{
  "_format": "hh-sol-artifact-1",
  "contractName": "MINEDTokenAsymptoticEnhanced",
  "sourceName": "contracts/MINEDTokenAsymptoticEnhanced.sol",
  "abi": [
    {
      "inputs": [
        {
          "internalType": "address",
          "name": "_initialHolder",
          "type": "address"
        },
        {
          "internalType": "address",
          "name": "_miningRewardsPool",
          "type": "address"
        },
        {
          "internalType": "address",
          "name": "_stakingRewardsPool",
          "type": "address"
        },
        {
          "internalType": "address",
          "name": "_researchFund",
          "type": "address"
        },
        {
          "internalType": "address",
          "name": "_treasury",
          "type": "address"
        },
        {
          "internalType": "address",
          "name": "_productiveMiner",
          "type": "address"
        }
      ],
      "stateMutability": "nonpayable",
      "type": "constructor"
    },
    {
      "inputs": [
        {
          "internalType": "address",
          "name": "spender",
          "type": "address"
        },
        {
          "internalType": "uint256",
          "name": "allowance",
          "type": "uint256"
        },
        {
          "internalType": "uint256",
          "name": "needed",
          "type": "uint256"
        }
      ],
      "name": "ERC20InsufficientAllowance",
      "type": "error"
    },
    {
      "inputs": [
        {
          "internalType": "address",
          "name": "sender",
          "type": "address"
        },
        {
          "internalType": "uint256",
          "name": "balance",
          "type": "uint256"
        },
        {
          "internalType": "uint256",
          "name": "needed",
          "type": "uint256"
        }
      ],
      "name": "ERC20InsufficientBalance",
      "type": "error"
    },
    {
      "inputs": [
        {
          "internalType": "address",
          "name": "approver",
          "type": "address"
        }
      ],
      "name": "ERC20InvalidApprover",
      "type": "error"
    },
    {
      "inputs": [
        {
          "internalType": "address",
          "name": "receiver",
          "type": "address"
        }
      ],
      "name": "ERC20InvalidReceiver",
      "type": "error"
    },
    {
      "inputs": [
        {
          "internalType": "address",
          "name": "sender",
          "type": "address"
        }
      ],
      "name": "ERC20InvalidSender",
      "type": "error"
    },
    {
      "inputs": [
        {
          "internalType": "address",
          "name": "spender",
          "type": "address"
        }
      ],
      "name": "ERC20InvalidSpender",
      "type": "error"
    },
    {
      "inputs": [],
      "name": "EnforcedPause",
      "type": "error"
    },
    {
      "inputs": [],
      "name": "ExpectedPause",
      "type": "error"
    },
    {
      "inputs": [
        {
          "internalType": "address",
          "name": "owner",
          "type": "address"
        }
      ],
      "name": "OwnableInvalidOwner",
      "type": "error"
    },
    {
      "inputs": [
        {
          "internalType": "address",
          "name": "account",
          "type": "address"
        }
      ],
      "name": "OwnableUnauthorizedAccount",
      "type": "error"
    },
    {
      "inputs": [],
      "name": "ReentrancyGuardReentrantCall",
      "type": "error"
    },
    {
      "anonymous": false,
      "inputs": [
        {
          "indexed": true,
          "internalType": "address",
          "name": "owner",
          "type": "address"
        },
        {
          "indexed": true,
          "internalType": "address",
          "name": "spender",
          "type": "address"
        },
        {
          "indexed": false,
          "internalType": "uint256",
          "name": "value",
          "type": "uint256"
        }
      ],
      "name": "Approval",
      "type": "event"
    },
    {
      "anonymous": false,
      "inputs": [
        {
          "indexed": false,
          "internalType": "uint256",
          "name": "blockHeight",
          "type": "uint256"
        },
        {
          "indexed": false,
          "internalType": "uint256",
          "name": "emission",
          "type": "uint256"
        },
        {
          "indexed": false,
          "internalType": "uint256",
          "name": "researchValue",
          "type": "uint256"
        },
        {
          "indexed": false,
          "internalType": "uint256",
          "name": "multiplier",
          "type": "uint256"
        }
      ],
      "name": "AsymptoticEmission",
      "type": "event"
    },
    {
      "anonymous": false,
      "inputs": [
        {
          "indexed": true,
          "internalType": "address",
          "name": "to",
          "type": "address"
        },
        {
          "indexed": false,
          "internalType": "uint256",
          "name": "amount",
          "type": "uint256"
        },
        {
          "indexed": false,
          "internalType": "uint256",
          "name": "blockHeight",
          "type": "uint256"
        }
      ],
      "name": "MiningRewardsMinted",
      "type": "event"
    },
    {
      "anonymous": false,
      "inputs": [
        {
          "indexed": true,
          "internalType": "address",
          "name": "minter",
          "type": "address"
        }
      ],
      "name": "MinterAdded",
      "type": "event"
    },
    {
      "anonymous": false,
      "inputs": [
        {
          "indexed": true,
          "internalType": "address",
          "name": "minter",
          "type": "address"
        }
      ],
      "name": "MinterRemoved",
      "type": "event"
    },
    {
      "anonymous": false,
      "inputs": [
        {
          "indexed": true,
          "internalType": "address",
          "name": "previousOwner",
          "type": "address"
        },
        {
          "indexed": true,
          "internalType": "address",
          "name": "newOwner",
          "type": "address"
        }
      ],
      "name": "OwnershipTransferred",
      "type": "event"
    },
    {
      "anonymous": false,
      "inputs": [
        {
          "indexed": false,
          "internalType": "address",
          "name": "account",
          "type": "address"
        }
      ],
      "name": "Paused",
      "type": "event"
    },
    {
      "anonymous": false,
      "inputs": [
        {
          "indexed": true,
          "internalType": "address",
          "name": "to",
          "type": "address"
        },
        {
          "indexed": false,
          "internalType": "uint256",
          "name": "amount",
          "type": "uint256"
        },
        {
          "indexed": false,
          "internalType": "uint256",
          "name": "blockHeight",
          "type": "uint256"
        }
      ],
      "name": "ResearchRewardsMinted",
      "type": "event"
    },
    {
      "anonymous": false,
      "inputs": [
        {
          "indexed": false,
          "internalType": "uint256",
          "name": "blockHeight",
          "type": "uint256"
        },
        {
          "indexed": true,
          "internalType": "address",
          "name": "contributor",
          "type": "address"
        },
        {
          "indexed": false,
          "internalType": "uint256",
          "name": "researchValue",
          "type": "uint256"
        }
      ],
      "name": "ResearchValueAdded",
      "type": "event"
    },
    {
      "anonymous": false,
      "inputs": [
        {
          "indexed": true,
          "internalType": "address",
          "name": "to",
          "type": "address"
        },
        {
          "indexed": false,
          "internalType": "uint256",
          "name": "amount",
          "type": "uint256"
        },
        {
          "indexed": false,
          "internalType": "uint256",
          "name": "blockHeight",
          "type": "uint256"
        }
      ],
      "name": "StakingRewardsMinted",
      "type": "event"
    },
    {
      "anonymous": false,
      "inputs": [
        {
          "indexed": true,
          "internalType": "address",
          "name": "from",
          "type": "address"
        },
        {
          "indexed": true,
          "internalType": "address",
          "name": "to",
          "type": "address"
        },
        {
          "indexed": false,
          "internalType": "uint256",
          "name": "value",
          "type": "uint256"
        }
      ],
      "name": "Transfer",
      "type": "event"
    },
    {
      "anonymous": false,
      "inputs": [
        {
          "indexed": true,
          "internalType": "address",
          "name": "to",
          "type": "address"
        },
        {
          "indexed": false,
          "internalType": "uint256",
          "name": "amount",
          "type": "uint256"
        },
        {
          "indexed": false,
          "internalType": "uint256",
          "name": "blockHeight",
          "type": "uint256"
        }
      ],
      "name": "TreasuryMinted",
      "type": "event"
    },
    {
      "anonymous": false,
      "inputs": [
        {
          "indexed": false,
          "internalType": "address",
          "name": "account",
          "type": "address"
        }
      ],
      "name": "Unpaused",
      "type": "event"
    },
    {
      "inputs": [],
      "name": "DECAY_CONSTANT",
      "outputs": [
        {
          "internalType": "uint256",
          "name": "",
          "type": "uint256"
        }
      ],
      "stateMutability": "view",
      "type": "function"
    },
    {
      "inputs": [],
      "name": "DECAY_SCALE",
      "outputs": [
        {
          "internalType": "uint256",
          "name": "",
          "type": "uint256"
        }
      ],
      "stateMutability": "view",
      "type": "function"
    },
    {
      "inputs": [],
      "name": "INITIAL_EMISSION_RATE",
      "outputs": [
        {
          "internalType": "uint256",
          "name": "",
          "type": "uint256"
        }
      ],
      "stateMutability": "view",
      "type": "function"
    },
    {
      "inputs": [],
      "name": "RESEARCH_MULTIPLIER_BASE",
      "outputs": [
        {
          "internalType": "uint256",
          "name": "",
          "type": "uint256"
        }
      ],
      "stateMutability": "view",
      "type": "function"
    },
    {
      "inputs": [],
      "name": "RESEARCH_SCALE",
      "outputs": [
        {
          "internalType": "uint256",
          "name": "",
          "type": "uint256"
        }
      ],
      "stateMutability": "view",
      "type": "function"
    },
    {
      "inputs": [],
      "name": "SOFT_CAP",
      "outputs": [
        {
          "internalType": "uint256",
          "name": "",
          "type": "uint256"
        }
      ],
      "stateMutability": "view",
      "type": "function"
    },
    {
      "inputs": [
        {
          "internalType": "address",
          "name": "_minter",
          "type": "address"
        }
      ],
      "name": "addMinter",
      "outputs": [],
      "stateMutability": "nonpayable",
      "type": "function"
    },
    {
      "inputs": [
        {
          "internalType": "uint256",
          "name": "_blockHeight",
          "type": "uint256"
        },
        {
          "internalType": "uint256",
          "name": "_researchValue",
          "type": "uint256"
        },
        {
          "internalType": "address",
          "name": "_contributor",
          "type": "address"
        }
      ],
      "name": "addResearchValue",
      "outputs": [],
      "stateMutability": "nonpayable",
      "type": "function"
    },
    {
      "inputs": [
        {
          "internalType": "address",
          "name": "owner",
          "type": "address"
        },
        {
          "internalType": "address",
          "name": "spender",
          "type": "address"
        }
      ],
      "name": "allowance",
      "outputs": [
        {
          "internalType": "uint256",
          "name": "",
          "type": "uint256"
        }
      ],
      "stateMutability": "view",
      "type": "function"
    },
    {
      "inputs": [
        {
          "internalType": "address",
          "name": "spender",
          "type": "address"
        },
        {
          "internalType": "uint256",
          "name": "value",
          "type": "uint256"
        }
      ],
      "name": "approve",
      "outputs": [
        {
          "internalType": "bool",
          "name": "",
          "type": "bool"
        }
      ],
      "stateMutability": "nonpayable",
      "type": "function"
    },
    {
      "inputs": [
        {
          "internalType": "address",
          "name": "account",
          "type": "address"
        }
      ],
      "name": "balanceOf",
      "outputs": [
        {
          "internalType": "uint256",
          "name": "",
          "type": "uint256"
        }
      ],
      "stateMutability": "view",
      "type": "function"
    },
    {
      "inputs": [
        {
          "internalType": "uint256",
          "name": "",
          "type": "uint256"
        }
      ],
      "name": "blockResearchValue",
      "outputs": [
        {
          "internalType": "uint256",
          "name": "",
          "type": "uint256"
        }
      ],
      "stateMutability": "view",
      "type": "function"
    },
    {
      "inputs": [
        {
          "internalType": "uint256",
          "name": "value",
          "type": "uint256"
        }
      ],
      "name": "burn",
      "outputs": [],
      "stateMutability": "nonpayable",
      "type": "function"
    },
    {
      "inputs": [
        {
          "internalType": "address",
          "name": "account",
          "type": "address"
        },
        {
          "internalType": "uint256",
          "name": "value",
          "type": "uint256"
        }
      ],
      "name": "burnFrom",
      "outputs": [],
      "stateMutability": "nonpayable",
      "type": "function"
    },
    {
      "inputs": [
        {
          "internalType": "uint256",
          "name": "_blockHeight",
          "type": "uint256"
        },
        {
          "internalType": "uint256",
          "name": "_researchValue",
          "type": "uint256"
        }
      ],
      "name": "calculateAsymptoticEmission",
      "outputs": [
        {
          "internalType": "uint256",
          "name": "emission",
          "type": "uint256"
        }
      ],
      "stateMutability": "view",
      "type": "function"
    },
    {
      "inputs": [],
      "name": "currentBlockHeight",
      "outputs": [
        {
          "internalType": "uint256",
          "name": "",
          "type": "uint256"
        }
      ],
      "stateMutability": "view",
      "type": "function"
    },
    {
      "inputs": [],
      "name": "decimals",
      "outputs": [
        {
          "internalType": "uint8",
          "name": "",
          "type": "uint8"
        }
      ],
      "stateMutability": "view",
      "type": "function"
    },
    {
      "inputs": [],
      "name": "getAsymptoticTokenInfo",
      "outputs": [
        {
          "internalType": "string",
          "name": "tokenName",
          "type": "string"
        },
        {
          "internalType": "string",
          "name": "tokenSymbol",
          "type": "string"
        },
        {
          "internalType": "uint8",
          "name": "tokenDecimals",
          "type": "uint8"
        },
        {
          "internalType": "uint256",
          "name": "tokenTotalSupply",
          "type": "uint256"
        },
        {
          "internalType": "uint256",
          "name": "tokenSoftCap",
          "type": "uint256"
        },
        {
          "internalType": "uint256",
          "name": "tokenCurrentBlockHeight",
          "type": "uint256"
        },
        {
          "internalType": "uint256",
          "name": "tokenTotalResearchValue",
          "type": "uint256"
        },
        {
          "internalType": "uint256",
          "name": "tokenTotalEmitted",
          "type": "uint256"
        }
      ],
      "stateMutability": "view",
      "type": "function"
    },
    {
      "inputs": [],
      "name": "getEmissionParameters",
      "outputs": [
        {
          "internalType": "uint256",
          "name": "initialEmissionRate",
          "type": "uint256"
        },
        {
          "internalType": "uint256",
          "name": "decayConstant",
          "type": "uint256"
        },
        {
          "internalType": "uint256",
          "name": "researchMultiplierBase",
          "type": "uint256"
        },
        {
          "internalType": "uint256",
          "name": "decayScale",
          "type": "uint256"
        },
        {
          "internalType": "uint256",
          "name": "researchScale",
          "type": "uint256"
        }
      ],
      "stateMutability": "pure",
      "type": "function"
    },
    {
      "inputs": [
        {
          "internalType": "address",
          "name": "_user",
          "type": "address"
        }
      ],
      "name": "getUserResearchContributions",
      "outputs": [
        {
          "internalType": "uint256",
          "name": "contributions",
          "type": "uint256"
        }
      ],
      "stateMutability": "view",
      "type": "function"
    },
    {
      "inputs": [],
      "name": "lastEmissionBlock",
      "outputs": [
        {
          "internalType": "uint256",
          "name": "",
          "type": "uint256"
        }
      ],
      "stateMutability": "view",
      "type": "function"
    },
    {
      "inputs": [],
      "name": "miningRewardsPool",
      "outputs": [
        {
          "internalType": "address",
          "name": "",
          "type": "address"
        }
      ],
      "stateMutability": "view",
      "type": "function"
    },
    {
      "inputs": [
        {
          "internalType": "address",
          "name": "_to",
          "type": "address"
        },
        {
          "internalType": "uint256",
          "name": "_amount",
          "type": "uint256"
        },
        {
          "internalType": "uint256",
          "name": "_blockHeight",
          "type": "uint256"
        }
      ],
      "name": "mintMiningRewards",
      "outputs": [],
      "stateMutability": "nonpayable",
      "type": "function"
    },
    {
      "inputs": [
        {
          "internalType": "address",
          "name": "_to",
          "type": "address"
        },
        {
          "internalType": "uint256",
          "name": "_amount",
          "type": "uint256"
        }
      ],
      "name": "mintResearchRewards",
      "outputs": [],
      "stateMutability": "nonpayable",
      "type": "function"
    },
    {
      "inputs": [
        {
          "internalType": "address",
          "name": "_to",
          "type": "address"
        },
        {
          "internalType": "uint256",
          "name": "_amount",
          "type": "uint256"
        }
      ],
      "name": "mintStakingRewards",
      "outputs": [],
      "stateMutability": "nonpayable",
      "type": "function"
    },
    {
      "inputs": [
        {
          "internalType": "address",
          "name": "_to",
          "type": "address"
        },
        {
          "internalType": "uint256",
          "name": "_amount",
          "type": "uint256"
        }
      ],
      "name": "mintTreasury",
      "outputs": [],
      "stateMutability": "nonpayable",
      "type": "function"
    },
    {
      "inputs": [
        {
          "internalType": "address",
          "name": "",
          "type": "address"
        }
      ],
      "name": "minters",
      "outputs": [
        {
          "internalType": "bool",
          "name": "",
          "type": "bool"
        }
      ],
      "stateMutability": "view",
      "type": "function"
    },
    {
      "inputs": [],
      "name": "name",
      "outputs": [
        {
          "internalType": "string",
          "name": "",
          "type": "string"
        }
      ],
      "stateMutability": "view",
      "type": "function"
    },
    {
      "inputs": [],
      "name": "owner",
      "outputs": [
        {
          "internalType": "address",
          "name": "",
          "type": "address"
        }
      ],
      "stateMutability": "view",
      "type": "function"
    },
    {
      "inputs": [],
      "name": "pause",
      "outputs": [],
      "stateMutability": "nonpayable",
      "type": "function"
    },
    {
      "inputs": [],
      "name": "paused",
      "outputs": [
        {
          "internalType": "bool",
          "name": "",
          "type": "bool"
        }
      ],
      "stateMutability": "view",
      "type": "function"
    },
    {
      "inputs": [],
      "name": "productiveMinerContract",
      "outputs": [
        {
          "internalType": "address",
          "name": "",
          "type": "address"
        }
      ],
      "stateMutability": "view",
      "type": "function"
    },
    {
      "inputs": [
        {
          "internalType": "address",
          "name": "_minter",
          "type": "address"
        }
      ],
      "name": "removeMinter",
      "outputs": [],
      "stateMutability": "nonpayable",
      "type": "function"
    },
    {
      "inputs": [],
      "name": "renounceOwnership",
      "outputs": [],
      "stateMutability": "nonpayable",
      "type": "function"
    },
    {
      "inputs": [],
      "name": "researchFund",
      "outputs": [
        {
          "internalType": "address",
          "name": "",
          "type": "address"
        }
      ],
      "stateMutability": "view",
      "type": "function"
    },
    {
      "inputs": [],
      "name": "stakingRewardsPool",
      "outputs": [
        {
          "internalType": "address",
          "name": "",
          "type": "address"
        }
      ],
      "stateMutability": "view",
      "type": "function"
    },
    {
      "inputs": [],
      "name": "symbol",
      "outputs": [
        {
          "internalType": "string",
          "name": "",
          "type": "string"
        }
      ],
      "stateMutability": "view",
      "type": "function"
    },
    {
      "inputs": [],
      "name": "totalEmitted",
      "outputs": [
        {
          "internalType": "uint256",
          "name": "",
          "type": "uint256"
        }
      ],
      "stateMutability": "view",
      "type": "function"
    },
    {
      "inputs": [],
      "name": "totalResearchValue",
      "outputs": [
        {
          "internalType": "uint256",
          "name": "",
          "type": "uint256"
        }
      ],
      "stateMutability": "view",
      "type": "function"
    },
    {
      "inputs": [],
      "name": "totalSupply",
      "outputs": [
        {
          "internalType": "uint256",
          "name": "",
          "type": "uint256"
        }
      ],
      "stateMutability": "view",
      "type": "function"
    },
    {
      "inputs": [
        {
          "internalType": "address",
          "name": "to",
          "type": "address"
        },
        {
          "internalType": "uint256",
          "name": "value",
          "type": "uint256"
        }
      ],
      "name": "transfer",
      "outputs": [
        {
          "internalType": "bool",
          "name": "",
          "type": "bool"
        }
      ],
      "stateMutability": "nonpayable",
      "type": "function"
    },
    {
      "inputs": [
        {
          "internalType": "address",
          "name": "from",
          "type": "address"
        },
        {
          "internalType": "address",
          "name": "to",
          "type": "address"
        },
        {
          "internalType": "uint256",
          "name": "value",
          "type": "uint256"
        }
      ],
      "name": "transferFrom",
      "outputs": [
        {
          "internalType": "bool",
          "name": "",
          "type": "bool"
        }
      ],
      "stateMutability": "nonpayable",
      "type": "function"
    },
    {
      "inputs": [
        {
          "internalType": "address",
          "name": "newOwner",
          "type": "address"
        }
      ],
      "name": "transferOwnership",
      "outputs": [],
      "stateMutability": "nonpayable",
      "type": "function"
    },
    {
      "inputs": [],
      "name": "treasury",
      "outputs": [
        {
          "internalType": "address",
          "name": "",
          "type": "address"
        }
      ],
      "stateMutability": "view",
      "type": "function"
    },
    {
      "inputs": [],
      "name": "unpause",
      "outputs": [],
      "stateMutability": "nonpayable",
      "type": "function"
    },
    {
      "inputs": [
        {
          "internalType": "address",
          "name": "",
          "type": "address"
        }
      ],
      "name": "userResearchContributions",
      "outputs": [
        {
          "internalType": "uint256",
          "name": "",
          "type": "uint256"
        }
      ],
      "stateMutability": "view",
      "type": "function"
    }
  ],
  "bytecode": "0x60806040523480156200001157600080fd5b50604051620024703803806200247083398101604081905262000034916200065b565b604080518082018252600580825264135253915160da1b60208084018290528451808601909552918452908301523391600362000072838262000780565b50600462000081828262000780565b5050506001600160a01b038116620000b457604051631e4fbdf760e01b8152600060048201526024015b60405180910390fd5b620000bf8162000423565b5060016006556001600160a01b0386166200011d5760405162461bcd60e51b815260206004820152601d60248201527f4d494e45443a20696e76616c696420696e697469616c20686f6c6465720000006044820152606401620000ab565b6001600160a01b038516620001805760405162461bcd60e51b815260206004820152602260248201527f4d494e45443a20696e76616c6964206d696e696e67207265776172647320706f6044820152611bdb60f21b6064820152608401620000ab565b6001600160a01b038416620001e45760405162461bcd60e51b815260206004820152602360248201527f4d494e45443a20696e76616c6964207374616b696e67207265776172647320706044820152621bdbdb60ea1b6064820152608401620000ab565b6001600160a01b0383166200023c5760405162461bcd60e51b815260206004820152601c60248201527f4d494e45443a20696e76616c69642072657365617263682066756e64000000006044820152606401620000ab565b6001600160a01b038216620002945760405162461bcd60e51b815260206004820152601760248201527f4d494e45443a20696e76616c69642074726561737572790000000000000000006044820152606401620000ab565b6001600160a01b038116620002fb5760405162461bcd60e51b815260206004820152602660248201527f4d494e45443a20696e76616c69642050726f647563746976654d696e6572206160448201526564647265737360d01b6064820152608401620000ab565b600780546001600160a01b03199081166001600160a01b0388811691909117909255600880548216878416179055600980548216868416179055600a80548216858416179055600b80549091169183169190911790556001600c556000600e819055600f819055600d8190556200038060146b3077b58d5d378391980000006200084c565b90506200038e87826200047d565b80600f6000828254620003a291906200086f565b9091555050336000818152601260205260408082208054600160ff1991821681179092556001600160a01b03871684528284208054909116909117905551600080516020620024508339815191529190a26040516001600160a01b038316906000805160206200245083398151915290600090a25050505050505062000897565b600580546001600160a01b03838116610100818102610100600160a81b031985161790945560405193909204169182907f8be0079c531659141344cd1fd0a4f28419497f9722a3daafe3b4186f6b6457e090600090a35050565b6001600160a01b038216620004a95760405163ec442f0560e01b815260006004820152602401620000ab565b620004b760008383620004bb565b5050565b620004c8838383620004cd565b505050565b620004d7620004e4565b620004c88383836200050b565b60055460ff1615620005095760405163d93c066560e01b815260040160405180910390fd5b565b6001600160a01b0383166200053a5780600260008282546200052e91906200086f565b90915550620005ae9050565b6001600160a01b038316600090815260208190526040902054818110156200058f5760405163391434e360e21b81526001600160a01b03851660048201526024810182905260448101839052606401620000ab565b6001600160a01b03841660009081526020819052604090209082900390555b6001600160a01b038216620005cc57600280548290039055620005eb565b6001600160a01b03821660009081526020819052604090208054820190555b816001600160a01b0316836001600160a01b03167fddf252ad1be2c89b69c2b068fc378daa952ba7f163c4a11628f55a4df523b3ef836040516200063191815260200190565b60405180910390a3505050565b80516001600160a01b03811681146200065657600080fd5b919050565b60008060008060008060c087890312156200067557600080fd5b62000680876200063e565b955062000690602088016200063e565b9450620006a0604088016200063e565b9350620006b0606088016200063e565b9250620006c0608088016200063e565b9150620006d060a088016200063e565b90509295509295509295565b634e487b7160e01b600052604160045260246000fd5b600181811c908216806200070757607f821691505b6020821081036200072857634e487b7160e01b600052602260045260246000fd5b50919050565b601f821115620004c857600081815260208120601f850160051c81016020861015620007575750805b601f850160051c820191505b81811015620007785782815560010162000763565b505050505050565b81516001600160401b038111156200079c576200079c620006dc565b620007b481620007ad8454620006f2565b846200072e565b602080601f831160018114620007ec5760008415620007d35750858301515b600019600386901b1c1916600185901b17855562000778565b600085815260208120601f198616915b828110156200081d57888601518255948401946001909101908401620007fc565b50858210156200083c5787850151600019600388901b60f8161c191681555b5050505050600190811b01905550565b6000826200086a57634e487b7160e01b600052601260045260246000fd5b500490565b808201808211156200089157634e487b7160e01b600052601160045260246000fd5b92915050565b611ba980620008a76000396000f3fe608060405234801561001057600080fd5b506004361061028a5760003560e01c806370a082311161015c578063a9059cbb116100ce578063dd50037a11610087578063dd50037a1461033c578063dd62ed3e146105bc578063df0244b1146105f5578063f2fde38b146105fe578063f46eccc414610611578063f68f210b1461063457600080fd5b8063a9059cbb14610547578063aa2954531461055a578063b131b7801461056d578063b652dc2f1461058d578063c66966b7146105a0578063d88cfa04146105a957600080fd5b80638ac688e0116101205780638ac688e0146104d35780638da5cb5b146104e657806391bb809c146104fc578063955da4621461050c57806395d89b411461052c578063983b2d561461053457600080fd5b806370a0823114610474578063715018a61461049d5780637929b27b146104a557806379cc6790146104b85780638456cb59146104cb57600080fd5b80632d4ab5d9116102005780633f4ba83a116101b95780633f4ba83a146103ff57806342966c6814610407578063477ec9921461041a5780635c975abb1461044357806361d027b31461044e5780636a1cbf641461046157600080fd5b80632d4ab5d91461035f5780633092afd514610396578063313ce567146103a9578063367bf2f9146103b8578063368e3daf146103c157806338386f69146103ec57600080fd5b806315061fa41161025257806315061fa41461031857806318160ddd1461032157806319174ae2146103295780631e8267d71461033c5780631f7836351461034457806323b872dd1461034c57600080fd5b80630194a7ca1461028f57806306fdde03146102a4578063072f4346146102c257806307e993ae146102d9578063095ea7b3146102f5575b600080fd5b6102a261029d3660046117d3565b610647565b005b6102ac610793565b6040516102b99190611843565b60405180910390f35b6102cb600d5481565b6040519081526020016102b9565b6102e1610825565b6040516102b998979695949392919061185d565b6103086103033660046117d3565b610873565b60405190151581526020016102b9565b6102cb61271081565b6002546102cb565b6102a26103373660046118bb565b61088d565b6102cb600181565b6102cb606481565b61030861035a3660046118f0565b610a61565b60408051683635c9adc5dea0000081526001602082018190529181019190915261271060608201526064608082015260a0016102b9565b6102a26103a436600461192c565b610a85565b604051601281526020016102b9565b6102cb600c5481565b6009546103d4906001600160a01b031681565b6040516001600160a01b0390911681526020016102b9565b600b546103d4906001600160a01b031681565b6102a2610c07565b6102a2610415366004611947565b610c19565b6102cb61042836600461192c565b6001600160a01b031660009081526011602052604090205490565b60055460ff16610308565b600a546103d4906001600160a01b031681565b6007546103d4906001600160a01b031681565b6102cb61048236600461192c565b6001600160a01b031660009081526020819052604090205490565b6102a2610c26565b6102a26104b33660046117d3565b610c38565b6102a26104c63660046117d3565b610d73565b6102a2610d8c565b6102a26104e1366004611960565b610d9c565b60055461010090046001600160a01b03166103d4565b6102cb683635c9adc5dea0000081565b6102cb61051a36600461192c565b60116020526000908152604090205481565b6102ac610ee2565b6102a261054236600461192c565b610ef1565b6103086105553660046117d3565b611004565b6102cb610568366004611993565b611012565b6102cb61057b366004611947565b60106020526000908152604090205481565b6102cb6b3077b58d5d3783919800000081565b6102cb600e5481565b6102a26105b73660046117d3565b61116a565b6102cb6105ca3660046119b5565b6001600160a01b03918216600090815260016020908152604080832093909416825291909152205490565b6102cb600f5481565b6102a261060c36600461192c565b6112a5565b61030861061f36600461192c565b60126020526000908152604090205460ff1681565b6008546103d4906001600160a01b031681565b3360009081526012602052604090205460ff1680610686575060055461010090046001600160a01b03166001600160a01b0316336001600160a01b0316145b6106ab5760405162461bcd60e51b81526004016106a2906119e8565b60405180910390fd5b6001600160a01b0382166106d15760405162461bcd60e51b81526004016106a290611a1f565b600081116106f15760405162461bcd60e51b81526004016106a290611a56565b6b3077b58d5d3783919800000081600f5461070c9190611aa3565b111561072a5760405162461bcd60e51b81526004016106a290611ab6565b61073482826112e0565b80600f60008282546107469190611aa3565b9091555050604080518281524360208201526001600160a01b038416917f728e25e27853d4af728e4f7d94277f913f0fa1010496a04144b3943f71d2c6e191015b60405180910390a25050565b6060600380546107a290611aed565b80601f01602080910402602001604051908101604052809291908181526020018280546107ce90611aed565b801561081b5780601f106107f05761010080835404028352916020019161081b565b820191906000526020600020905b8154815290600101906020018083116107fe57829003601f168201915b5050505050905090565b606080600080600080600080610839610793565b610841610ee2565b600254600c54600d54600f54949d939c5060129b509199506b3077b58d5d378391980000009850965094509092509050565b600033610881818585611316565b60019150505b92915050565b600b546001600160a01b031633146108f95760405162461bcd60e51b815260206004820152602960248201527f4d494e45443a206f6e6c792050726f647563746976654d696e65722063616e2060448201526863616c6c207468697360b81b60648201526084016106a2565b600082116109585760405162461bcd60e51b815260206004820152602660248201527f4d494e45443a2072657365617263682076616c7565206d75737420626520706f60448201526573697469766560d01b60648201526084016106a2565b6001600160a01b0381166109ae5760405162461bcd60e51b815260206004820152601a60248201527f4d494e45443a20696e76616c696420636f6e7472696275746f7200000000000060448201526064016106a2565b600083815260106020526040812080548492906109cc908490611aa3565b9250508190555081600d60008282546109e59190611aa3565b90915550506001600160a01b03811660009081526011602052604081208054849290610a12908490611aa3565b909155505060408051848152602081018490526001600160a01b038316917f8cccd45bfba8849250eb2d315ed1f9071d43d5db1250ddc5f7556aa5ecf98d6591015b60405180910390a2505050565b600033610a6f858285611328565b610a7a8585856113a7565b506001949350505050565b610a8d611406565b6001600160a01b038116610ae35760405162461bcd60e51b815260206004820152601d60248201527f4d494e45443a20696e76616c6964206d696e746572206164647265737300000060448201526064016106a2565b6001600160a01b03811660009081526012602052604090205460ff16610b415760405162461bcd60e51b815260206004820152601360248201527226a4a722a21d103737ba10309036b4b73a32b960691b60448201526064016106a2565b60055461010090046001600160a01b03166001600160a01b0316816001600160a01b031603610bbe5760405162461bcd60e51b8152602060048201526024808201527f4d494e45443a2063616e6e6f742072656d6f7665206f776e6572206173206d69604482015263373a32b960e11b60648201526084016106a2565b6001600160a01b038116600081815260126020526040808220805460ff19169055517fe94479a9f7e1952cc78f2d6baab678adc1b772d936c6583def489e524cb666929190a250565b610c0f611406565b610c17611439565b565b610c23338261148b565b50565b610c2e611406565b610c1760006114c1565b3360009081526012602052604090205460ff1680610c77575060055461010090046001600160a01b03166001600160a01b0316336001600160a01b0316145b610c935760405162461bcd60e51b81526004016106a2906119e8565b6001600160a01b038216610cb95760405162461bcd60e51b81526004016106a290611a1f565b60008111610cd95760405162461bcd60e51b81526004016106a290611a56565b6b3077b58d5d3783919800000081600f54610cf49190611aa3565b1115610d125760405162461bcd60e51b81526004016106a290611ab6565b610d1c82826112e0565b80600f6000828254610d2e9190611aa3565b9091555050604080518281524360208201526001600160a01b038416917fdea0655b5cd3280541c6ec1aa5b38ab4402a62df698e2455fd96c03651bbec8a9101610787565b610d7e823383611328565b610d88828261148b565b5050565b610d94611406565b610c1761151b565b3360009081526012602052604090205460ff1680610ddb575060055461010090046001600160a01b03166001600160a01b0316336001600160a01b0316145b610df75760405162461bcd60e51b81526004016106a2906119e8565b6001600160a01b038316610e1d5760405162461bcd60e51b81526004016106a290611a1f565b60008211610e3d5760405162461bcd60e51b81526004016106a290611a56565b6b3077b58d5d3783919800000082600f54610e589190611aa3565b1115610e765760405162461bcd60e51b81526004016106a290611ab6565b610e8083836112e0565b81600f6000828254610e929190611aa3565b9091555050600c819055600e81905560408051838152602081018390526001600160a01b038516917fe92b2165b0258b757b29311a8ec1163b5bf23c113557cc3440f4c0a2d845dbc69101610a54565b6060600480546107a290611aed565b610ef9611406565b6001600160a01b038116610f4f5760405162461bcd60e51b815260206004820152601d60248201527f4d494e45443a20696e76616c6964206d696e746572206164647265737300000060448201526064016106a2565b6001600160a01b03811660009081526012602052604090205460ff1615610fb85760405162461bcd60e51b815260206004820152601760248201527f4d494e45443a20616c72656164792061206d696e74657200000000000000000060448201526064016106a2565b6001600160a01b038116600081815260126020526040808220805460ff19166001179055517f6ae172837ea30b801fbfcdd4108aa1d5bf8ff775444fd70256b44e6bf3dfc3f69190a250565b6000336108818185856113a7565b600080612710611023856001611b27565b61102d9190611b3e565b9050600061271082101561107f57600061271061104a8480611b27565b6110549190611b3e565b9050611061600282611b3e565b61106d84612710611b60565b6110779190611aa3565b91505061108f565b61108c6064612710611b3e565b90505b6000606461109e866001611b27565b6110a89190611b3e565b6110b3906064611aa3565b90506110c26064612710611b27565b816110d684683635c9adc5dea00000611b27565b6110e09190611b27565b6110ea9190611b3e565b9350670de0b6b3a764000084101561110857670de0b6b3a764000093505b6b3077b58d5d3783919800000084600f546111239190611aa3565b111561116157600f546b3077b58d5d378391980000001161114557600061115e565b600f5461115e906b3077b58d5d37839198000000611b60565b93505b50505092915050565b3360009081526012602052604090205460ff16806111a9575060055461010090046001600160a01b03166001600160a01b0316336001600160a01b0316145b6111c55760405162461bcd60e51b81526004016106a2906119e8565b6001600160a01b0382166111eb5760405162461bcd60e51b81526004016106a290611a1f565b6000811161120b5760405162461bcd60e51b81526004016106a290611a56565b6b3077b58d5d3783919800000081600f546112269190611aa3565b11156112445760405162461bcd60e51b81526004016106a290611ab6565b61124e82826112e0565b80600f60008282546112609190611aa3565b9091555050604080518281524360208201526001600160a01b038416917f617585ce19a00b383f531602d6761790bee787b9db7fc70b41b4565c87e8cfb79101610787565b6112ad611406565b6001600160a01b0381166112d757604051631e4fbdf760e01b8152600060048201526024016106a2565b610c23816114c1565b6001600160a01b03821661130a5760405163ec442f0560e01b8152600060048201526024016106a2565b610d8860008383611558565b6113238383836001611563565b505050565b6001600160a01b038381166000908152600160209081526040808320938616835292905220546000198110156113a1578181101561139257604051637dc7a0d960e11b81526001600160a01b038416600482015260248101829052604481018390526064016106a2565b6113a184848484036000611563565b50505050565b6001600160a01b0383166113d157604051634b637e8f60e11b8152600060048201526024016106a2565b6001600160a01b0382166113fb5760405163ec442f0560e01b8152600060048201526024016106a2565b611323838383611558565b6005546001600160a01b03610100909104163314610c175760405163118cdaa760e01b81523360048201526024016106a2565b611441611638565b6005805460ff191690557f5db9ee0a495bf2e6ff9c91a7834c1ba4fdd244a5e8aa4e537bd38aeae4b073aa335b6040516001600160a01b03909116815260200160405180910390a1565b6001600160a01b0382166114b557604051634b637e8f60e11b8152600060048201526024016106a2565b610d8882600083611558565b600580546001600160a01b03838116610100818102610100600160a81b031985161790945560405193909204169182907f8be0079c531659141344cd1fd0a4f28419497f9722a3daafe3b4186f6b6457e090600090a35050565b61152361165b565b6005805460ff191660011790557f62e78cea01bee320cd4e420270b5ea74000d11b0c9f74754ebdbfc544b05a25861146e3390565b61132383838361167f565b6001600160a01b03841661158d5760405163e602df0560e01b8152600060048201526024016106a2565b6001600160a01b0383166115b757604051634a1406b160e11b8152600060048201526024016106a2565b6001600160a01b03808516600090815260016020908152604080832093871683529290522082905580156113a157826001600160a01b0316846001600160a01b03167f8c5be1e5ebec7d5bd14f71427d1e84f3dd0314c0f7b2291e5b200ac8c7c3b9258460405161162a91815260200190565b60405180910390a350505050565b60055460ff16610c1757604051638dfc202b60e01b815260040160405180910390fd5b60055460ff1615610c175760405163d93c066560e01b815260040160405180910390fd5b61168761165b565b6113238383836001600160a01b0383166116b85780600260008282546116ad9190611aa3565b9091555061172a9050565b6001600160a01b0383166000908152602081905260409020548181101561170b5760405163391434e360e21b81526001600160a01b038516600482015260248101829052604481018390526064016106a2565b6001600160a01b03841660009081526020819052604090209082900390555b6001600160a01b03821661174657600280548290039055611765565b6001600160a01b03821660009081526020819052604090208054820190555b816001600160a01b0316836001600160a01b03167fddf252ad1be2c89b69c2b068fc378daa952ba7f163c4a11628f55a4df523b3ef836040516117aa91815260200190565b60405180910390a3505050565b80356001600160a01b03811681146117ce57600080fd5b919050565b600080604083850312156117e657600080fd5b6117ef836117b7565b946020939093013593505050565b6000815180845260005b8181101561182357602081850181015186830182015201611807565b506000602082860101526020601f19601f83011685010191505092915050565b60208152600061185660208301846117fd565b9392505050565b60006101008083526118718184018c6117fd565b90508281036020840152611885818b6117fd565b60ff99909916604084015250506060810195909552608085019390935260a084019190915260c083015260e09091015292915050565b6000806000606084860312156118d057600080fd5b83359250602084013591506118e7604085016117b7565b90509250925092565b60008060006060848603121561190557600080fd5b61190e846117b7565b925061191c602085016117b7565b9150604084013590509250925092565b60006020828403121561193e57600080fd5b611856826117b7565b60006020828403121561195957600080fd5b5035919050565b60008060006060848603121561197557600080fd5b61197e846117b7565b95602085013595506040909401359392505050565b600080604083850312156119a657600080fd5b50508035926020909101359150565b600080604083850312156119c857600080fd5b6119d1836117b7565b91506119df602084016117b7565b90509250929050565b6020808252601d908201527f4d494e45443a2063616c6c6572206973206e6f742061206d696e746572000000604082015260600190565b60208082526018908201527f4d494e45443a20696e76616c696420726563697069656e740000000000000000604082015260600190565b6020808252601e908201527f4d494e45443a20616d6f756e74206d75737420626520706f7369746976650000604082015260600190565b634e487b7160e01b600052601160045260246000fd5b8082018082111561088757610887611a8d565b6020808252601c908201527f4d494e45443a20776f756c642065786365656420736f66742063617000000000604082015260600190565b600181811c90821680611b0157607f821691505b602082108103611b2157634e487b7160e01b600052602260045260246000fd5b50919050565b808202811582820484141761088757610887611a8d565b600082611b5b57634e487b7160e01b600052601260045260246000fd5b500490565b8181038181111561088757610887611a8d56fea26469706673582212207f127a6119ec800ecd8abe4c172e4f3518cc9ee903ac6ad613dffbf721e2461864736f6c634300081400336ae172837ea30b801fbfcdd4108aa1d5bf8ff775444fd70256b44e6bf3dfc3f6",
  "linkReferences": {},
  "deployedLinkReferences": {}
}