{
  "_format": "hh-sol-artifact-1",
  "contractName": "ProductiveMinerFixed",
  "sourceName": "contracts/ProductiveMinerFixed.sol",
  "abi": [
    {
      "inputs": [],
      "stateMutability": "nonpayable",
      "type": "constructor"
    },
    {
      "anonymous": false,
      "inputs": [
        {
          "indexed": true,
          "internalType": "uint256",
          "name": "discoveryId",
          "type": "uint256"
        },
        {
          "indexed": true,
          "internalType": "address",
          "name": "miner",
          "type": "address"
        },
        {
          "indexed": false,
          "internalType": "enum ProductiveMinerFixed.WorkType",
          "name": "workType",
          "type": "uint8"
        },
        {
          "indexed": false,
          "internalType": "uint256",
          "name": "difficulty",
          "type": "uint256"
        },
        {
          "indexed": false,
          "internalType": "uint256",
          "name": "researchValue",
          "type": "uint256"
        }
      ],
      "name": "DiscoverySubmitted",
      "type": "event"
    },
    {
      "anonymous": false,
      "inputs": [
        {
          "indexed": true,
          "internalType": "uint256",
          "name": "sessionId",
          "type": "uint256"
        },
        {
          "indexed": true,
          "internalType": "address",
          "name": "miner",
          "type": "address"
        },
        {
          "indexed": false,
          "internalType": "uint256",
          "name": "reward",
          "type": "uint256"
        },
        {
          "indexed": false,
          "internalType": "uint256",
          "name": "tokenReward",
          "type": "uint256"
        },
        {
          "indexed": false,
          "internalType": "uint256",
          "name": "discoveries",
          "type": "uint256"
        }
      ],
      "name": "MiningSessionCompleted",
      "type": "event"
    },
    {
      "anonymous": false,
      "inputs": [
        {
          "indexed": true,
          "internalType": "uint256",
          "name": "sessionId",
          "type": "uint256"
        },
        {
          "indexed": true,
          "internalType": "address",
          "name": "miner",
          "type": "address"
        },
        {
          "indexed": false,
          "internalType": "enum ProductiveMinerFixed.WorkType",
          "name": "workType",
          "type": "uint8"
        },
        {
          "indexed": false,
          "internalType": "uint256",
          "name": "difficulty",
          "type": "uint256"
        }
      ],
      "name": "MiningSessionStarted",
      "type": "event"
    },
    {
      "anonymous": false,
      "inputs": [
        {
          "indexed": false,
          "internalType": "uint256",
          "name": "blockHeight",
          "type": "uint256"
        },
        {
          "indexed": true,
          "internalType": "address",
          "name": "contributor",
          "type": "address"
        },
        {
          "indexed": false,
          "internalType": "uint256",
          "name": "researchValue",
          "type": "uint256"
        }
      ],
      "name": "ResearchValueAdded",
      "type": "event"
    },
    {
      "anonymous": false,
      "inputs": [
        {
          "indexed": true,
          "internalType": "address",
          "name": "staker",
          "type": "address"
        },
        {
          "indexed": false,
          "internalType": "uint256",
          "name": "ethRewards",
          "type": "uint256"
        },
        {
          "indexed": false,
          "internalType": "uint256",
          "name": "tokenRewards",
          "type": "uint256"
        }
      ],
      "name": "RewardsClaimed",
      "type": "event"
    },
    {
      "anonymous": false,
      "inputs": [
        {
          "indexed": true,
          "internalType": "address",
          "name": "staker",
          "type": "address"
        },
        {
          "indexed": false,
          "internalType": "uint256",
          "name": "amount",
          "type": "uint256"
        }
      ],
      "name": "Staked",
      "type": "event"
    },
    {
      "anonymous": false,
      "inputs": [
        {
          "indexed": true,
          "internalType": "address",
          "name": "tokenAddress",
          "type": "address"
        }
      ],
      "name": "TokenIntegrationEnabled",
      "type": "event"
    },
    {
      "anonymous": false,
      "inputs": [
        {
          "indexed": true,
          "internalType": "address",
          "name": "miner",
          "type": "address"
        },
        {
          "indexed": false,
          "internalType": "uint256",
          "name": "amount",
          "type": "uint256"
        },
        {
          "indexed": false,
          "internalType": "string",
          "name": "reason",
          "type": "string"
        }
      ],
      "name": "TokenRewardsEarned",
      "type": "event"
    },
    {
      "anonymous": false,
      "inputs": [
        {
          "indexed": true,
          "internalType": "address",
          "name": "staker",
          "type": "address"
        },
        {
          "indexed": false,
          "internalType": "uint256",
          "name": "amount",
          "type": "uint256"
        }
      ],
      "name": "Unstaked",
      "type": "event"
    },
    {
      "stateMutability": "payable",
      "type": "fallback"
    },
    {
      "inputs": [],
      "name": "baseReward",
      "outputs": [
        {
          "internalType": "uint256",
          "name": "",
          "type": "uint256"
        }
      ],
      "stateMutability": "view",
      "type": "function"
    },
    {
      "inputs": [],
      "name": "claimStakingRewards",
      "outputs": [],
      "stateMutability": "nonpayable",
      "type": "function"
    },
    {
      "inputs": [
        {
          "internalType": "uint256",
          "name": "_sessionId",
          "type": "uint256"
        },
        {
          "internalType": "bytes32",
          "name": "_proofHash",
          "type": "bytes32"
        },
        {
          "internalType": "string",
          "name": "_metadata",
          "type": "string"
        }
      ],
      "name": "completeMiningSession",
      "outputs": [],
      "stateMutability": "nonpayable",
      "type": "function"
    },
    {
      "inputs": [],
      "name": "currentBlockHeight",
      "outputs": [
        {
          "internalType": "uint256",
          "name": "",
          "type": "uint256"
        }
      ],
      "stateMutability": "view",
      "type": "function"
    },
    {
      "inputs": [
        {
          "internalType": "uint256",
          "name": "",
          "type": "uint256"
        }
      ],
      "name": "discoveries",
      "outputs": [
        {
          "internalType": "uint256",
          "name": "id",
          "type": "uint256"
        },
        {
          "internalType": "address",
          "name": "miner",
          "type": "address"
        },
        {
          "internalType": "enum ProductiveMinerFixed.WorkType",
          "name": "workType",
          "type": "uint8"
        },
        {
          "internalType": "uint256",
          "name": "difficulty",
          "type": "uint256"
        },
        {
          "internalType": "uint256",
          "name": "quantumSecurityLevel",
          "type": "uint256"
        },
        {
          "internalType": "uint256",
          "name": "reward",
          "type": "uint256"
        },
        {
          "internalType": "uint256",
          "name": "tokenReward",
          "type": "uint256"
        },
        {
          "internalType": "uint256",
          "name": "timestamp",
          "type": "uint256"
        },
        {
          "internalType": "bytes32",
          "name": "proofHash",
          "type": "bytes32"
        },
        {
          "internalType": "bool",
          "name": "verified",
          "type": "bool"
        },
        {
          "internalType": "string",
          "name": "metadata",
          "type": "string"
        },
        {
          "internalType": "uint256",
          "name": "computationalComplexity",
          "type": "uint256"
        },
        {
          "internalType": "uint256",
          "name": "impactScore",
          "type": "uint256"
        },
        {
          "internalType": "uint256",
          "name": "researchValue",
          "type": "uint256"
        }
      ],
      "stateMutability": "view",
      "type": "function"
    },
    {
      "inputs": [],
      "name": "discoveryCounter",
      "outputs": [
        {
          "internalType": "uint256",
          "name": "",
          "type": "uint256"
        }
      ],
      "stateMutability": "view",
      "type": "function"
    },
    {
      "inputs": [
        {
          "internalType": "address",
          "name": "_miner",
          "type": "address"
        }
      ],
      "name": "getMinerStats",
      "outputs": [
        {
          "internalType": "uint256",
          "name": "totalSessions",
          "type": "uint256"
        },
        {
          "internalType": "uint256",
          "name": "totalDiscoveries",
          "type": "uint256"
        },
        {
          "internalType": "uint256",
          "name": "totalRewards",
          "type": "uint256"
        },
        {
          "internalType": "uint256",
          "name": "totalTokenRewards",
          "type": "uint256"
        },
        {
          "internalType": "uint256",
          "name": "pendingRewards",
          "type": "uint256"
        },
        {
          "internalType": "uint256",
          "name": "pendingTokenRewards",
          "type": "uint256"
        },
        {
          "internalType": "uint256",
          "name": "stakedAmount",
          "type": "uint256"
        },
        {
          "internalType": "uint256",
          "name": "researchContributions",
          "type": "uint256"
        }
      ],
      "stateMutability": "view",
      "type": "function"
    },
    {
      "inputs": [],
      "name": "getNetworkStats",
      "outputs": [
        {
          "components": [
            {
              "internalType": "uint256",
              "name": "totalDiscoveries",
              "type": "uint256"
            },
            {
              "internalType": "uint256",
              "name": "totalSessions",
              "type": "uint256"
            },
            {
              "internalType": "uint256",
              "name": "currentActiveSessions",
              "type": "uint256"
            },
            {
              "internalType": "uint256",
              "name": "maxDifficulty",
              "type": "uint256"
            },
            {
              "internalType": "uint256",
              "name": "baseReward",
              "type": "uint256"
            },
            {
              "internalType": "uint256",
              "name": "quantumSecurityLevel",
              "type": "uint256"
            },
            {
              "internalType": "uint256",
              "name": "totalStaked",
              "type": "uint256"
            },
            {
              "internalType": "uint256",
              "name": "totalRewardsDistributed",
              "type": "uint256"
            },
            {
              "internalType": "uint256",
              "name": "totalTokenRewardsDistributed",
              "type": "uint256"
            },
            {
              "internalType": "uint256",
              "name": "averageComputationalComplexity",
              "type": "uint256"
            },
            {
              "internalType": "uint256",
              "name": "totalResearchValue",
              "type": "uint256"
            },
            {
              "internalType": "uint256",
              "name": "currentBlockHeight",
              "type": "uint256"
            }
          ],
          "internalType": "struct ProductiveMinerFixed.NetworkStats",
          "name": "",
          "type": "tuple"
        }
      ],
      "stateMutability": "view",
      "type": "function"
    },
    {
      "inputs": [],
      "name": "maxDifficulty",
      "outputs": [
        {
          "internalType": "uint256",
          "name": "",
          "type": "uint256"
        }
      ],
      "stateMutability": "view",
      "type": "function"
    },
    {
      "inputs": [],
      "name": "minStakeAmount",
      "outputs": [
        {
          "internalType": "uint256",
          "name": "",
          "type": "uint256"
        }
      ],
      "stateMutability": "view",
      "type": "function"
    },
    {
      "inputs": [],
      "name": "minedToken",
      "outputs": [
        {
          "internalType": "contract MINEDTokenFixed",
          "name": "",
          "type": "address"
        }
      ],
      "stateMutability": "view",
      "type": "function"
    },
    {
      "inputs": [
        {
          "internalType": "address",
          "name": "",
          "type": "address"
        },
        {
          "internalType": "uint256",
          "name": "",
          "type": "uint256"
        }
      ],
      "name": "minerDiscoveries",
      "outputs": [
        {
          "internalType": "uint256",
          "name": "",
          "type": "uint256"
        }
      ],
      "stateMutability": "view",
      "type": "function"
    },
    {
      "inputs": [
        {
          "internalType": "address",
          "name": "",
          "type": "address"
        },
        {
          "internalType": "uint256",
          "name": "",
          "type": "uint256"
        }
      ],
      "name": "minerSessions",
      "outputs": [
        {
          "internalType": "uint256",
          "name": "",
          "type": "uint256"
        }
      ],
      "stateMutability": "view",
      "type": "function"
    },
    {
      "inputs": [],
      "name": "owner",
      "outputs": [
        {
          "internalType": "address",
          "name": "",
          "type": "address"
        }
      ],
      "stateMutability": "view",
      "type": "function"
    },
    {
      "inputs": [],
      "name": "paused",
      "outputs": [
        {
          "internalType": "bool",
          "name": "",
          "type": "bool"
        }
      ],
      "stateMutability": "view",
      "type": "function"
    },
    {
      "inputs": [],
      "name": "sessionCounter",
      "outputs": [
        {
          "internalType": "uint256",
          "name": "",
          "type": "uint256"
        }
      ],
      "stateMutability": "view",
      "type": "function"
    },
    {
      "inputs": [
        {
          "internalType": "uint256",
          "name": "",
          "type": "uint256"
        }
      ],
      "name": "sessions",
      "outputs": [
        {
          "internalType": "uint256",
          "name": "sessionId",
          "type": "uint256"
        },
        {
          "internalType": "address",
          "name": "miner",
          "type": "address"
        },
        {
          "internalType": "enum ProductiveMinerFixed.WorkType",
          "name": "workType",
          "type": "uint8"
        },
        {
          "internalType": "uint256",
          "name": "startTime",
          "type": "uint256"
        },
        {
          "internalType": "uint256",
          "name": "endTime",
          "type": "uint256"
        },
        {
          "internalType": "uint256",
          "name": "difficulty",
          "type": "uint256"
        },
        {
          "internalType": "uint256",
          "name": "quantumSecurityLevel",
          "type": "uint256"
        },
        {
          "internalType": "bool",
          "name": "active",
          "type": "bool"
        },
        {
          "internalType": "bool",
          "name": "completed",
          "type": "bool"
        },
        {
          "internalType": "uint256",
          "name": "computationalPower",
          "type": "uint256"
        },
        {
          "internalType": "uint256",
          "name": "energyConsumption",
          "type": "uint256"
        },
        {
          "internalType": "uint256",
          "name": "researchValue",
          "type": "uint256"
        },
        {
          "internalType": "uint256",
          "name": "discoveriesFound",
          "type": "uint256"
        },
        {
          "internalType": "uint256",
          "name": "totalTokenRewards",
          "type": "uint256"
        }
      ],
      "stateMutability": "view",
      "type": "function"
    },
    {
      "inputs": [
        {
          "internalType": "bool",
          "name": "_paused",
          "type": "bool"
        }
      ],
      "name": "setPaused",
      "outputs": [],
      "stateMutability": "nonpayable",
      "type": "function"
    },
    {
      "inputs": [],
      "name": "stake",
      "outputs": [],
      "stateMutability": "payable",
      "type": "function"
    },
    {
      "inputs": [],
      "name": "stakingAPY",
      "outputs": [
        {
          "internalType": "uint256",
          "name": "",
          "type": "uint256"
        }
      ],
      "stateMutability": "view",
      "type": "function"
    },
    {
      "inputs": [
        {
          "internalType": "address",
          "name": "",
          "type": "address"
        }
      ],
      "name": "stakingInfo",
      "outputs": [
        {
          "internalType": "uint256",
          "name": "stakedAmount",
          "type": "uint256"
        },
        {
          "internalType": "uint256",
          "name": "rewards",
          "type": "uint256"
        },
        {
          "internalType": "uint256",
          "name": "tokenRewards",
          "type": "uint256"
        },
        {
          "internalType": "uint256",
          "name": "lastClaimTime",
          "type": "uint256"
        },
        {
          "internalType": "uint256",
          "name": "apy",
          "type": "uint256"
        },
        {
          "internalType": "bool",
          "name": "isActive",
          "type": "bool"
        },
        {
          "internalType": "uint256",
          "name": "totalStakingRewards",
          "type": "uint256"
        },
        {
          "internalType": "uint256",
          "name": "totalTokenStakingRewards",
          "type": "uint256"
        }
      ],
      "stateMutability": "view",
      "type": "function"
    },
    {
      "inputs": [
        {
          "internalType": "enum ProductiveMinerFixed.WorkType",
          "name": "_workType",
          "type": "uint8"
        },
        {
          "internalType": "uint256",
          "name": "_difficulty",
          "type": "uint256"
        }
      ],
      "name": "startMiningSession",
      "outputs": [],
      "stateMutability": "nonpayable",
      "type": "function"
    },
    {
      "inputs": [
        {
          "internalType": "enum ProductiveMinerFixed.WorkType",
          "name": "_workType",
          "type": "uint8"
        },
        {
          "internalType": "uint256",
          "name": "_difficulty",
          "type": "uint256"
        },
        {
          "internalType": "bytes32",
          "name": "_proofHash",
          "type": "bytes32"
        },
        {
          "internalType": "string",
          "name": "_metadata",
          "type": "string"
        }
      ],
      "name": "submitDiscovery",
      "outputs": [],
      "stateMutability": "nonpayable",
      "type": "function"
    },
    {
      "inputs": [],
      "name": "tokenIntegrationEnabled",
      "outputs": [
        {
          "internalType": "bool",
          "name": "",
          "type": "bool"
        }
      ],
      "stateMutability": "view",
      "type": "function"
    },
    {
      "inputs": [],
      "name": "totalResearchValue",
      "outputs": [
        {
          "internalType": "uint256",
          "name": "",
          "type": "uint256"
        }
      ],
      "stateMutability": "view",
      "type": "function"
    },
    {
      "inputs": [],
      "name": "totalRewardsDistributed",
      "outputs": [
        {
          "internalType": "uint256",
          "name": "",
          "type": "uint256"
        }
      ],
      "stateMutability": "view",
      "type": "function"
    },
    {
      "inputs": [],
      "name": "totalStaked",
      "outputs": [
        {
          "internalType": "uint256",
          "name": "",
          "type": "uint256"
        }
      ],
      "stateMutability": "view",
      "type": "function"
    },
    {
      "inputs": [],
      "name": "totalTokenRewardsDistributed",
      "outputs": [
        {
          "internalType": "uint256",
          "name": "",
          "type": "uint256"
        }
      ],
      "stateMutability": "view",
      "type": "function"
    },
    {
      "inputs": [
        {
          "internalType": "uint256",
          "name": "_amount",
          "type": "uint256"
        }
      ],
      "name": "unstake",
      "outputs": [],
      "stateMutability": "nonpayable",
      "type": "function"
    },
    {
      "inputs": [
        {
          "internalType": "address",
          "name": "_tokenAddress",
          "type": "address"
        }
      ],
      "name": "updateTokenIntegration",
      "outputs": [],
      "stateMutability": "nonpayable",
      "type": "function"
    },
    {
      "inputs": [
        {
          "internalType": "enum ProductiveMinerFixed.WorkType",
          "name": "",
          "type": "uint8"
        }
      ],
      "name": "workTypeResearchMultipliers",
      "outputs": [
        {
          "internalType": "uint256",
          "name": "",
          "type": "uint256"
        }
      ],
      "stateMutability": "view",
      "type": "function"
    },
    {
      "stateMutability": "payable",
      "type": "receive"
    }
  ],
  "bytecode": "0x6080604052620f4240600055662386f26fc10000600155662386f26fc100006009556005600a5534801561003257600080fd5b50601280546101003302610100600160a81b03199091161790556001600755600c60205260647f13649b2456f1b42fef0f0040b3aaeabcd21a76a0f3f5defd4f583839455116e85560c87fd421a5181c571bba3f01190c922c3b2a896fc1d84e86c9f17ac10e67ebef8b5c5560967f5d6016397a73f5e079297ac5a36fef17b4d9c3831618e63ab105738020ddd7205560787fc0da782485e77ae272268ae0a3ff44c1552ecb60b3743924de17a815e0a3cfd75560b47f5b84bb9e0f5aa9cc45a8bb66468db5d4816d1e75ff86b5e1f1dd8d144dab80975560a07f2cd9ebf6ff19cdd7ffcc447d7c7d47b5991f5c7392a04512134e765802361fa655608c7f980f427e00e74f6d338adfccc7468518c8c8ea00836d0dce98c5fe154e17bf2b5560827fdae089abd7155aa13ce498edb0d7a7156b783d015031f10c9a3d4f5fcb5189715560fa7f5ff1be3842b54290a9d10674244dae5848d2371b5314790c54805c086586e1df5560aa7f2fb3c9afecd3f0d43923381d3e9f60168c039b98f0b7120382e81b682b7bc31655606e7f9e6c92d7be355807bd948171438a5e65aaf9e4c36f1405c1b9ca25d27c4ea3a055600b600052605a7f6a9911425952520efa6de3784a0ac63c35d3c5bb392028ea0beb0dc41a19195755612c588061021a6000396000f3fe6080604052600436106101c45760003560e01c806376ad03bc116100f6578063a952a3261161008f578063d1bec27611610061578063d1bec276146106d1578063edfffca0146106f2578063ee17254614610712578063f18876841461072857005b8063a952a32614610665578063ab483ff614610685578063c5835e441461069b578063cc64e2af146106bb57005b8063921b71c2116100c8578063921b71c21461057a57806394eecb50146105905780639a9974531461062f578063a7bd789d1461064557005b806376ad03bc14610468578063817b1cd21461047e57806383c4b7a3146104945780638da5cb5b1461053d57005b80633a4b66f11161016857806358821a0a1161013a57806358821a0a146103dc5780635c975abb146104095780635e309e09146104335780636b69e05b1461045357005b80633a4b66f1146102dd5780634a662f48146102e55780634d61ac3114610382578063559e9845146103bc57005b806316c38b3c116101a157806316c38b3c1461022c5780632e17de781461024c57806334b2237a1461026c578063367bf2f9146102c757005b8063072f4346146101cd5780630ace5d28146101f65780631531b62a1461021657005b366101cb57005b005b3480156101d957600080fd5b506101e360065481565b6040519081526020015b60405180910390f35b34801561020257600080fd5b506101cb6102113660046125bd565b61073e565b34801561022257600080fd5b506101e3600a5481565b34801561023857600080fd5b506101cb6102473660046125e7565b610ae7565b34801561025857600080fd5b506101cb610267366004612610565b610b46565b34801561027857600080fd5b5061028c610287366004612640565b610d08565b604080519889526020890197909752958701949094526060860192909252608085015260a084015260c083015260e0820152610100016101ed565b3480156102d357600080fd5b506101e360075481565b6101cb610eb1565b3480156102f157600080fd5b506102fa61111a565b6040516101ed9190815181526020808301519082015260408083015190820152606080830151908201526080808301519082015260a0808301519082015260c0808301519082015260e0808301519082015261010080830151908201526101208083015190820152610140808301519082015261016091820151918101919091526101800190565b34801561038e57600080fd5b506103a261039d366004612610565b6111f6565b6040516101ed9e9d9c9b9a999897969594939291906126d9565b3480156103c857600080fd5b506101e36103d7366004612768565b6112f3565b3480156103e857600080fd5b506101e36103f7366004612784565b600c6020526000908152604090205481565b34801561041557600080fd5b506012546104239060ff1681565b60405190151581526020016101ed565b34801561043f57600080fd5b506101cb61044e366004612842565b611324565b34801561045f57600080fd5b506101cb6118f0565b34801561047457600080fd5b506101e360015481565b34801561048a57600080fd5b506101e3600b5481565b3480156104a057600080fd5b506105236104af366004612610565b600d60205260009081526040902080546001820154600283015460038401546004850154600586015460068701546007880154600889015460098a0154600a8b0154600b909b0154999a6001600160a01b038a169a60ff600160a01b909b048b169a8681169661010090041694939291908e565b6040516101ed9e9d9c9b9a99989796959493929190612892565b34801561054957600080fd5b506012546105629061010090046001600160a01b031681565b6040516001600160a01b0390911681526020016101ed565b34801561058657600080fd5b506101e360055481565b34801561059c57600080fd5b506105f26105ab366004612640565b601160205260009081526040902080546001820154600283015460038401546004850154600586015460068701546007909701549596949593949293919260ff9091169188565b6040805198895260208901979097529587019490945260608601929092526080850152151560a084015260c083015260e0820152610100016101ed565b34801561063b57600080fd5b506101e360005481565b34801561065157600080fd5b506101e3610660366004612768565b611b84565b34801561067157600080fd5b506101cb610680366004612640565b611ba0565b34801561069157600080fd5b506101e360035481565b3480156106a757600080fd5b506101cb6106b636600461291a565b611c5a565b3480156106c757600080fd5b506101e360025481565b3480156106dd57600080fd5b5060085461042390600160a01b900460ff1681565b3480156106fe57600080fd5b50600854610562906001600160a01b031681565b34801561071e57600080fd5b506101e360045481565b34801561073457600080fd5b506101e360095481565b60125460ff161561076a5760405162461bcd60e51b81526004016107619061297b565b60405180910390fd5b60008111801561077c57506000548111155b6107bd5760405162461bcd60e51b8152602060048201526012602482015271496e76616c696420646966666963756c747960701b6044820152606401610761565b600280549060006107cd836129bd565b909155505060025460006107e484846103e8611f33565b604080516101c081018252848152336020820152919250810185600b81111561080f5761080f61265b565b81524260208201526000604082018190526060820186905260016080830181905260a083015260c082015260e0016108488560646129d6565b8152600060208083018290526040808401869052606084018390526080909301829052858252600d81529082902083518155908301516001820180546001600160a01b039092166001600160a01b031983168117825593850151929390916001600160a81b03191617600160a01b83600b8111156108c8576108c861265b565b0217905550606082015160028201556080820151600382015560a0820151600482015560c0820151600582015560e08201516006820180546101008086015115150261ff00199315159390931661ffff199091161791909117905561012082015160078201556101408201516008808301919091556101608301516009830155610180830151600a8301556101a090920151600b90910155336000908152600f602090815260408220805460018101825590835291200183905554600160a01b900460ff1615610a9d57600061099e8486611f9f565b600854600754604051630456344760e51b81529293506001600160a01b0390911691638ac688e0916109d691339186916004016129ed565b600060405180830381600087803b1580156109f057600080fd5b505af1158015610a04573d6000803e3d6000fd5b5050506000848152600d60205260408120600b018054849350909190610a2b908490612a0e565b925050819055508060056000828254610a449190612a0e565b90915550506040513390600080516020612c0383398151915290610a93908481526040602082018190526010908201526f141bd5c8135a5b9a5b99c814dd185c9d60821b606082015260800190565b60405180910390a2505b336001600160a01b0316827f6a076484c19a77742a92063180d09799c4f84c1299381b580e50ba5a068f0d838686604051610ad9929190612a21565b60405180910390a350505050565b60125461010090046001600160a01b03163314610b335760405162461bcd60e51b815260206004820152600a60248201526927b7363c9037bbb732b960b11b6044820152606401610761565b6012805460ff1916911515919091179055565b60125460ff1615610b695760405162461bcd60e51b81526004016107619061297b565b336000908152601160205260409020600581015460ff16610bba5760405162461bcd60e51b815260206004820152600b60248201526a4e6f74207374616b696e6760a81b6044820152606401610761565b8054821115610c0b5760405162461bcd60e51b815260206004820152601a60248201527f496e73756666696369656e74207374616b656420616d6f756e740000000000006044820152606401610761565b6000610c1633612039565b90506000610c23336120cc565b905081836001016000828254610c399190612a0e565b9250508190555080836002016000828254610c549190612a0e565b9091555050825484908490600090610c6d908490612a3c565b90915550508254600003610c885760058301805460ff191690555b83600b6000828254610c9a9190612a3c565b9091555050604051339085156108fc029086906000818181858888f19350505050158015610ccc573d6000803e3d6000fd5b5060405184815233907f0f5bb82176feb1b5e747e28471aa92156a04d9f3ab9f45f28e2d704232b93f759060200160405180910390a250505050565b6001600160a01b0381166000908152600f6020908152604080832054601090925282205490918080808080805b88811015610dee576001600160a01b038a166000908152600f60205260408120805483908110610d6757610d67612a4f565b6000918252602080832090910154808352600d909152604090912060068101549192509060ff6101009091041615610dd957610dba816004015482600201548360030154610db59190612a3c565b61214b565b610dc4908a612a0e565b985080600b015488610dd69190612a0e565b97505b50508080610de6906129bd565b915050610d35565b506001600160a01b0389166000908152601160205260409020610e108a612039565b9450610e1b8a6120cc565b81546008549195509350600160a01b900460ff1615610ea5576008546040516323bf64c960e11b81526001600160a01b038c811660048301529091169063477ec99290602401602060405180830381865afa158015610e7e573d6000803e3d6000fd5b505050506040513d601f19601f82011682018060405250810190610ea29190612a65565b91505b50919395975091939597565b60125460ff1615610ed45760405162461bcd60e51b81526004016107619061297b565b600954341015610f1d5760405162461bcd60e51b81526020600482015260146024820152735374616b6520616d6f756e7420746f6f206c6f7760601b6044820152606401610761565b336000908152601160205260409020600581015460ff1615610f8a576000610f4433612039565b90506000610f51336120cc565b905081836001016000828254610f679190612a0e565b9250508190555080836002016000828254610f829190612a0e565b909155505050505b34816000016000828254610f9e9190612a0e565b909155505042600382015560058101805460ff19166001179055600a546004820155600b8054349190600090610fd5908490612a0e565b9091555050600854600160a01b900460ff16156110e2576000610ff73461218f565b60085460075460405163cb2f64f560e01b81529293506001600160a01b039091169163cb2f64f59161102f91339186916004016129ed565b600060405180830381600087803b15801561104957600080fd5b505af115801561105d573d6000803e3d6000fd5b50505050808260070160008282546110759190612a0e565b92505081905550806005600082825461108e9190612a0e565b90915550506040513390600080516020612c03833981519152906110d890848152604060208201819052600b908201526a506f53205374616b696e6760a81b606082015260800190565b60405180910390a2505b60405134815233907f9e71bc8eea02a63969f509818f2dafb9254532904319f9dbda79b67bd34a5f3d9060200160405180910390a250565b61117e6040518061018001604052806000815260200160008152602001600081526020016000815260200160008152602001600081526020016000815260200160008152602001600081526020016000815260200160008152602001600081525090565b604051806101800160405280600354815260200160025481526020016111a26121d2565b81526020016000548152602001600154815260200160018152602001600b548152602001600454815260200160055481526020016111de612221565b81526020016006548152602001600754815250905090565b600e60205260009081526040902080546001820154600283015460038401546004850154600586015460068701546007880154600889015460098a018054999a6001600160a01b038a169a600160a01b909a0460ff9081169a93169290919061125e90612a7e565b80601f016020809104026020016040519081016040528092919081815260200182805461128a90612a7e565b80156112d75780601f106112ac576101008083540402835291602001916112d7565b820191906000526020600020905b8154815290600101906020018083116112ba57829003601f168201915b50505050509080600a01549080600b01549080600c015490508e565b6010602052816000526040600020818154811061130f57600080fd5b90600052602060002001600091509150505481565b60125460ff16156113475760405162461bcd60e51b81526004016107619061297b565b60008311801561135957506002548311155b61139a5760405162461bcd60e51b8152602060048201526012602482015271125b9d985b1a59081cd95cdcda5bdb88125160721b6044820152606401610761565b6000838152600d6020526040902060018101546001600160a01b031633146113fc5760405162461bcd60e51b81526020600482015260156024820152742737ba103a34329039b2b9b9b4b7b71036b4b732b960591b6044820152606401610761565b600681015460ff16801561141a57506006810154610100900460ff16155b6114765760405162461bcd60e51b815260206004820152602760248201527f53657373696f6e206e6f7420616374697665206f7220616c726561647920636f6044820152661b5c1b195d195960ca1b6064820152608401610761565b60068101805461ffff1916610100179055426003820181905560028201546000916114a19190612a3c565b905060006114b383600401548361214b565b905060006114c5846004015484612285565b600a8501819055905060006114db8260646129d6565b85600901546114ea9190612a0e565b60098601819055600380549192506000611503836129bd565b9091555050600354604080516101c08101825282815233602082015260018801549091820190600160a01b900460ff16600b8111156115445761154461265b565b8152602001876004015481526020018760050154815260200185815260200160008152602001428152602001898152602001600115158152602001888152602001876007015481526020016115ae88600401548960010160149054906101000a900460ff166122b0565b815260209081018490526000838152600e825260409081902083518155918301516001830180546001600160a01b039092166001600160a01b0319831681178255928501519290916001600160a81b03191617600160a01b83600b8111156116185761161861265b565b0217905550606082015160028201556080820151600382015560a0820151600482015560c0820151600582015560e08201516006820155610100820151600782015561012082015160088201805460ff191691151591909117905561014082015160098201906116889082612b01565b50610160820151600a820155610180820151600b8201556101a090910151600c909101553360009081526010602090815260408220805460018101825590835290822001829055600480548692906116e1908490612a0e565b9091555050600854600090600160a01b900460ff1615611722576117063384846122ec565b90508087600b01600082825461171c9190612a0e565b90915550505b600854600160a01b900460ff161561184d57600061174488600401548661255a565b600854600754604051630456344760e51b81529293506001600160a01b0390911691638ac688e09161177c91339186916004016129ed565b600060405180830381600087803b15801561179657600080fd5b505af11580156117aa573d6000803e3d6000fd5b505050508088600b0160008282546117c29190612a0e565b9250508190555080600560008282546117db9190612a0e565b909155506117eb90508183612a0e565b9150336001600160a01b0316600080516020612c0383398151915282604051611843918152604060208201819052601590820152742837ab9026b4b734b7339021b7b6b83632ba34b7b760591b606082015260800190565b60405180910390a2505b604080518681526020810183905290810185905233908b907ffbae14475142d21477824cb3237b3fc2965bda66ad651faecec57f2ffc6ee9399060600160405180910390a360018701546004880154604051339285927f077f921c16369f1276708e215c5885a8d3357b8dfe405c93f6f39197f40b55a3926118dc92600160a01b900460ff1691908990612bc1565b60405180910390a350505050505050505050565b60125460ff16156119135760405162461bcd60e51b81526004016107619061297b565b600854600160a01b900460ff1661196c5760405162461bcd60e51b815260206004820152601d60248201527f546f6b656e20696e746567726174696f6e206e6f7420656e61626c65640000006044820152606401610761565b336000908152601160205260409020600581015460ff166119bd5760405162461bcd60e51b815260206004820152600b60248201526a4e6f74207374616b696e6760a81b6044820152606401610761565b60006119c833612039565b82600101546119d79190612a0e565b905060006119e4336120cc565b83600201546119f39190612a0e565b90506000821180611a045750600081115b611a465760405162461bcd60e51b81526020600482015260136024820152724e6f207265776172647320746f20636c61696d60681b6044820152606401610761565b60006001840181905560028401554260038401558115611a8f57604051339083156108fc029084906000818181858888f19350505050158015611a8d573d6000803e3d6000fd5b505b8015611b445760078054906000611aa5836129bd565b909155505060085460075460405163cb2f64f560e01b81526001600160a01b039092169163cb2f64f591611adf91339186916004016129ed565b600060405180830381600087803b158015611af957600080fd5b505af1158015611b0d573d6000803e3d6000fd5b5050505080836007016000828254611b259190612a0e565b925050819055508060056000828254611b3e9190612a0e565b90915550505b604080518381526020810183905233917fdacbdde355ba930696a362ea6738feb9f8bd52dfb3d81947558fd3217e23e325910160405180910390a2505050565b600f602052816000526040600020818154811061130f57600080fd5b60125461010090046001600160a01b03163314611bec5760405162461bcd60e51b815260206004820152600a60248201526927b7363c9037bbb732b960b11b6044820152606401610761565b6001600160a01b038116611c0a576008805460ff60a01b1916905550565b600880546001600160a81b0319166001600160a01b038316908117600160a01b179091556040517f481c683fc025a181130081945f61f1b14dbee0f02d769b7abef6cf6a2325e13190600090a250565b60125460ff1615611c7d5760405162461bcd60e51b81526004016107619061297b565b600083118015611c8f57506000548311155b611cd05760405162461bcd60e51b8152602060048201526012602482015271496e76616c696420646966666963756c747960701b6044820152606401610761565b60038054906000611ce0836129bd565b90915550506003546000611cf786866103e8611f33565b90506000611d0786610e1061214b565b604080516101c081018252858152336020820152919250810188600b811115611d3257611d3261265b565b81526020018781526020016001815260200182815260200160008152602001428152602001868152602001600115158152602001858152602001876064611d7991906129d6565b8152602001611d88888a6122b0565b815260209081018490526000858152600e825260409081902083518155918301516001830180546001600160a01b039092166001600160a01b0319831681178255928501519290916001600160a81b03191617600160a01b83600b811115611df257611df261265b565b0217905550606082015160028201556080820151600382015560a0820151600482015560c0820151600582015560e08201516006820155610100820151600782015561012082015160088201805460ff19169115159190911790556101408201516009820190611e629082612b01565b50610160820151600a820155610180820151600b8201556101a090910151600c90910155336000908152601060209081526040822080546001810182559083529082200184905560048054839290611ebb908490612a0e565b9091555050600854600090600160a01b900460ff1615611ee357611ee03384866122ec565b90505b336001600160a01b0316847f077f921c16369f1276708e215c5885a8d3357b8dfe405c93f6f39197f40b55a38a8a87604051611f2193929190612bc1565b60405180910390a35050505050505050565b6000806103e8611f4384866129d6565b611f4d9190612be0565b90506000600c600087600b811115611f6757611f6761265b565b600b811115611f7857611f7861265b565b81526020019081526020016000205490508082611f9591906129d6565b9695505050505050565b6000678ac7230489e8000081611fb76103e886612be0565b905060006064600c600087600b811115611fd357611fd361265b565b600b811115611fe457611fe461265b565b815260200190815260200160002054611ffd9190612be0565b90508160000361200c57600191505b80600003612018575060015b8061202383856129d6565b61202d91906129d6565b93505050505b92915050565b6001600160a01b0381166000908152601160205260408120600581015460ff16158061206457508054155b156120725750600092915050565b60008160030154426120849190612a3c565b9050600060648360040154846000015461209e91906129d6565b6120a89190612be0565b90506301e133806120b983836129d6565b6120c39190612be0565b95945050505050565b600854600090600160a01b900460ff166120e857506000919050565b6001600160a01b0382166000908152601160205260409020600581015460ff16158061211357508054155b156121215750600092915050565b60008160030154426121339190612a3c565b905060006127108360000154603261209e91906129d6565b6000806103e88460015461215f91906129d6565b6121699190612be0565b90506000610e10841161217d576001612180565b60025b60ff1690506120c381836129d6565b6000674563918244f40000816121ad67016345785d8a000085612be0565b9050600081116121be5760016121c0565b805b6121ca90836129d6565b949350505050565b60008060015b600254811161221b576000818152600d602052604090206006015460ff16156122095781612205816129bd565b9250505b80612213816129bd565b9150506121d8565b50919050565b60006002546000036122335750600090565b600060015b6002548111612271576000818152600d602052604090206007015461225d9083612a0e565b915080612269816129bd565b915050612238565b5060025461227f9082612be0565b91505090565b60008061229461271085612be0565b905060006122a4610e1085612be0565b90506120c38183612a0e565b6000806122bf6103e885612be0565b9050600083600b8111156122d5576122d561265b565b6122e0906001612a0e565b90506120c381836129d6565b60078054600091826122fd836129bd565b9091555050600854600754604051630c8ba57160e11b81526004810191909152602481018590526001600160a01b038681166044830152909116906319174ae290606401600060405180830381600087803b15801561235b57600080fd5b505af115801561236f573d6000803e3d6000fd5b505060085460075460405163aa29545360e01b8152600481019190915260248101879052600093506001600160a01b03909116915063aa29545390604401602060405180830381865afa1580156123ca573d6000803e3d6000fd5b505050506040513d601f19601f820116820180604052508101906123ee9190612a65565b9050806000036124035750670de0b6b3a76400005b600854600754604051630456344760e51b81526001600160a01b0390921691638ac688e09161243891899186916004016129ed565b600060405180830381600087803b15801561245257600080fd5b505af1158015612466573d6000803e3d6000fd5b5050506000848152600e6020526040812060059081018490558054849350909190612492908490612a0e565b9250508190555083600660008282546124ab9190612a0e565b909155505060075460408051918252602082018690526001600160a01b038716917f8cccd45bfba8849250eb2d315ed1f9071d43d5db1250ddc5f7556aa5ecf98d65910160405180910390a2846001600160a01b0316600080516020612c038339815191528260405161254a91815260406020820181905260129082015271088d2e6c6deeccae4f240a4cae6cac2e4c6d60731b606082015260800190565b60405180910390a2949350505050565b60006801158e460913d00000816125736103e886612be0565b90506000808511612585576001612590565b6125908560026129d6565b90508160000361201857600191508061202383856129d6565b8035600c81106125b857600080fd5b919050565b600080604083850312156125d057600080fd5b6125d9836125a9565b946020939093013593505050565b6000602082840312156125f957600080fd5b8135801515811461260957600080fd5b9392505050565b60006020828403121561262257600080fd5b5035919050565b80356001600160a01b03811681146125b857600080fd5b60006020828403121561265257600080fd5b61260982612629565b634e487b7160e01b600052602160045260246000fd5b600c811061268f57634e487b7160e01b600052602160045260246000fd5b9052565b6000815180845260005b818110156126b95760208185018101518683018201520161269d565b506000602082860101526020601f19601f83011685010191505092915050565b8e81526001600160a01b038e1660208201526126f8604082018e612671565b8b60608201528a60808201528960a08201528860c08201528760e0820152866101008201528515156101208201526101c0610140820152600061273f6101c0830187612693565b610160830195909552506101808101929092526101a0909101529b9a5050505050505050505050565b6000806040838503121561277b57600080fd5b6125d983612629565b60006020828403121561279657600080fd5b612609826125a9565b634e487b7160e01b600052604160045260246000fd5b600082601f8301126127c657600080fd5b813567ffffffffffffffff808211156127e1576127e161279f565b604051601f8301601f19908116603f011681019082821181831017156128095761280961279f565b8160405283815286602085880101111561282257600080fd5b836020870160208301376000602085830101528094505050505092915050565b60008060006060848603121561285757600080fd5b8335925060208401359150604084013567ffffffffffffffff81111561287c57600080fd5b612888868287016127b5565b9150509250925092565b8e81526001600160a01b038e1660208201526101c081016128b6604083018f612671565b8c60608301528b60808301528a60a08301528960c083015288151560e08301526128e561010083018915159052565b6101208201969096526101408101949094526101608401929092526101808301526101a0909101529998505050505050505050565b6000806000806080858703121561293057600080fd5b612939856125a9565b93506020850135925060408501359150606085013567ffffffffffffffff81111561296357600080fd5b61296f878288016127b5565b91505092959194509250565b60208082526012908201527110dbdb9d1c9858dd081a5cc81c185d5cd95960721b604082015260600190565b634e487b7160e01b600052601160045260246000fd5b6000600182016129cf576129cf6129a7565b5060010190565b8082028115828204841417612033576120336129a7565b6001600160a01b039390931683526020830191909152604082015260600190565b80820180821115612033576120336129a7565b60408101612a2f8285612671565b8260208301529392505050565b81810381811115612033576120336129a7565b634e487b7160e01b600052603260045260246000fd5b600060208284031215612a7757600080fd5b5051919050565b600181811c90821680612a9257607f821691505b60208210810361221b57634e487b7160e01b600052602260045260246000fd5b601f821115612afc57600081815260208120601f850160051c81016020861015612ad95750805b601f850160051c820191505b81811015612af857828155600101612ae5565b5050505b505050565b815167ffffffffffffffff811115612b1b57612b1b61279f565b612b2f81612b298454612a7e565b84612ab2565b602080601f831160018114612b645760008415612b4c5750858301515b600019600386901b1c1916600185901b178555612af8565b600085815260208120601f198616915b82811015612b9357888601518255948401946001909101908401612b74565b5085821015612bb15787850151600019600388901b60f8161c191681555b5050505050600190811b01905550565b60608101612bcf8286612671565b602082019390935260400152919050565b600082612bfd57634e487b7160e01b600052601260045260246000fd5b50049056fe7ec9779521462f71670667645a59d1313e9a2329d80b9bfa5d65f7f3be5f97b8a2646970667358221220cb12ec5c1a2c65fd1f82ff31a7c1c7fb9f1961c9110bf268c5f0b6cd54c20dcd64736f6c63430008140033",
  "linkReferences": {},
  "deployedLinkReferences": {}
}