{
  "_format": "hh-sol-artifact-1",
  "contractName": "MINEDTokenFixed",
  "sourceName": "contracts/MINEDTokenFixed.sol",
  "abi": [
    {
      "inputs": [
        {
          "internalType": "address",
          "name": "_initialHolder",
          "type": "address"
        },
        {
          "internalType": "address",
          "name": "_miningRewardsPool",
          "type": "address"
        },
        {
          "internalType": "address",
          "name": "_stakingRewardsPool",
          "type": "address"
        },
        {
          "internalType": "address",
          "name": "_researchFund",
          "type": "address"
        },
        {
          "internalType": "address",
          "name": "_treasury",
          "type": "address"
        },
        {
          "internalType": "address",
          "name": "_productiveMiner",
          "type": "address"
        }
      ],
      "stateMutability": "nonpayable",
      "type": "constructor"
    },
    {
      "inputs": [
        {
          "internalType": "address",
          "name": "spender",
          "type": "address"
        },
        {
          "internalType": "uint256",
          "name": "allowance",
          "type": "uint256"
        },
        {
          "internalType": "uint256",
          "name": "needed",
          "type": "uint256"
        }
      ],
      "name": "ERC20InsufficientAllowance",
      "type": "error"
    },
    {
      "inputs": [
        {
          "internalType": "address",
          "name": "sender",
          "type": "address"
        },
        {
          "internalType": "uint256",
          "name": "balance",
          "type": "uint256"
        },
        {
          "internalType": "uint256",
          "name": "needed",
          "type": "uint256"
        }
      ],
      "name": "ERC20InsufficientBalance",
      "type": "error"
    },
    {
      "inputs": [
        {
          "internalType": "address",
          "name": "approver",
          "type": "address"
        }
      ],
      "name": "ERC20InvalidApprover",
      "type": "error"
    },
    {
      "inputs": [
        {
          "internalType": "address",
          "name": "receiver",
          "type": "address"
        }
      ],
      "name": "ERC20InvalidReceiver",
      "type": "error"
    },
    {
      "inputs": [
        {
          "internalType": "address",
          "name": "sender",
          "type": "address"
        }
      ],
      "name": "ERC20InvalidSender",
      "type": "error"
    },
    {
      "inputs": [
        {
          "internalType": "address",
          "name": "spender",
          "type": "address"
        }
      ],
      "name": "ERC20InvalidSpender",
      "type": "error"
    },
    {
      "inputs": [],
      "name": "EnforcedPause",
      "type": "error"
    },
    {
      "inputs": [],
      "name": "ExpectedPause",
      "type": "error"
    },
    {
      "inputs": [
        {
          "internalType": "address",
          "name": "owner",
          "type": "address"
        }
      ],
      "name": "OwnableInvalidOwner",
      "type": "error"
    },
    {
      "inputs": [
        {
          "internalType": "address",
          "name": "account",
          "type": "address"
        }
      ],
      "name": "OwnableUnauthorizedAccount",
      "type": "error"
    },
    {
      "inputs": [],
      "name": "ReentrancyGuardReentrantCall",
      "type": "error"
    },
    {
      "anonymous": false,
      "inputs": [
        {
          "indexed": true,
          "internalType": "address",
          "name": "owner",
          "type": "address"
        },
        {
          "indexed": true,
          "internalType": "address",
          "name": "spender",
          "type": "address"
        },
        {
          "indexed": false,
          "internalType": "uint256",
          "name": "value",
          "type": "uint256"
        }
      ],
      "name": "Approval",
      "type": "event"
    },
    {
      "anonymous": false,
      "inputs": [
        {
          "indexed": false,
          "internalType": "uint256",
          "name": "blockHeight",
          "type": "uint256"
        },
        {
          "indexed": false,
          "internalType": "uint256",
          "name": "emission",
          "type": "uint256"
        },
        {
          "indexed": false,
          "internalType": "uint256",
          "name": "researchValue",
          "type": "uint256"
        },
        {
          "indexed": false,
          "internalType": "uint256",
          "name": "multiplier",
          "type": "uint256"
        }
      ],
      "name": "AsymptoticEmission",
      "type": "event"
    },
    {
      "anonymous": false,
      "inputs": [
        {
          "indexed": true,
          "internalType": "address",
          "name": "to",
          "type": "address"
        },
        {
          "indexed": false,
          "internalType": "uint256",
          "name": "amount",
          "type": "uint256"
        },
        {
          "indexed": false,
          "internalType": "uint256",
          "name": "blockHeight",
          "type": "uint256"
        }
      ],
      "name": "MiningRewardsMinted",
      "type": "event"
    },
    {
      "anonymous": false,
      "inputs": [
        {
          "indexed": true,
          "internalType": "address",
          "name": "minter",
          "type": "address"
        }
      ],
      "name": "MinterAdded",
      "type": "event"
    },
    {
      "anonymous": false,
      "inputs": [
        {
          "indexed": true,
          "internalType": "address",
          "name": "minter",
          "type": "address"
        }
      ],
      "name": "MinterRemoved",
      "type": "event"
    },
    {
      "anonymous": false,
      "inputs": [
        {
          "indexed": true,
          "internalType": "address",
          "name": "previousOwner",
          "type": "address"
        },
        {
          "indexed": true,
          "internalType": "address",
          "name": "newOwner",
          "type": "address"
        }
      ],
      "name": "OwnershipTransferred",
      "type": "event"
    },
    {
      "anonymous": false,
      "inputs": [
        {
          "indexed": false,
          "internalType": "address",
          "name": "account",
          "type": "address"
        }
      ],
      "name": "Paused",
      "type": "event"
    },
    {
      "anonymous": false,
      "inputs": [
        {
          "indexed": true,
          "internalType": "address",
          "name": "to",
          "type": "address"
        },
        {
          "indexed": false,
          "internalType": "uint256",
          "name": "amount",
          "type": "uint256"
        },
        {
          "indexed": false,
          "internalType": "uint256",
          "name": "blockHeight",
          "type": "uint256"
        }
      ],
      "name": "ResearchRewardsMinted",
      "type": "event"
    },
    {
      "anonymous": false,
      "inputs": [
        {
          "indexed": false,
          "internalType": "uint256",
          "name": "blockHeight",
          "type": "uint256"
        },
        {
          "indexed": true,
          "internalType": "address",
          "name": "contributor",
          "type": "address"
        },
        {
          "indexed": false,
          "internalType": "uint256",
          "name": "researchValue",
          "type": "uint256"
        }
      ],
      "name": "ResearchValueAdded",
      "type": "event"
    },
    {
      "anonymous": false,
      "inputs": [
        {
          "indexed": true,
          "internalType": "address",
          "name": "to",
          "type": "address"
        },
        {
          "indexed": false,
          "internalType": "uint256",
          "name": "amount",
          "type": "uint256"
        },
        {
          "indexed": false,
          "internalType": "uint256",
          "name": "blockHeight",
          "type": "uint256"
        }
      ],
      "name": "StakingRewardsMinted",
      "type": "event"
    },
    {
      "anonymous": false,
      "inputs": [
        {
          "indexed": true,
          "internalType": "address",
          "name": "from",
          "type": "address"
        },
        {
          "indexed": true,
          "internalType": "address",
          "name": "to",
          "type": "address"
        },
        {
          "indexed": false,
          "internalType": "uint256",
          "name": "value",
          "type": "uint256"
        }
      ],
      "name": "Transfer",
      "type": "event"
    },
    {
      "anonymous": false,
      "inputs": [
        {
          "indexed": true,
          "internalType": "address",
          "name": "to",
          "type": "address"
        },
        {
          "indexed": false,
          "internalType": "uint256",
          "name": "amount",
          "type": "uint256"
        },
        {
          "indexed": false,
          "internalType": "uint256",
          "name": "blockHeight",
          "type": "uint256"
        }
      ],
      "name": "TreasuryMinted",
      "type": "event"
    },
    {
      "anonymous": false,
      "inputs": [
        {
          "indexed": false,
          "internalType": "address",
          "name": "account",
          "type": "address"
        }
      ],
      "name": "Unpaused",
      "type": "event"
    },
    {
      "inputs": [],
      "name": "DECAY_CONSTANT",
      "outputs": [
        {
          "internalType": "uint256",
          "name": "",
          "type": "uint256"
        }
      ],
      "stateMutability": "view",
      "type": "function"
    },
    {
      "inputs": [],
      "name": "DECAY_SCALE",
      "outputs": [
        {
          "internalType": "uint256",
          "name": "",
          "type": "uint256"
        }
      ],
      "stateMutability": "view",
      "type": "function"
    },
    {
      "inputs": [],
      "name": "INITIAL_EMISSION_RATE",
      "outputs": [
        {
          "internalType": "uint256",
          "name": "",
          "type": "uint256"
        }
      ],
      "stateMutability": "view",
      "type": "function"
    },
    {
      "inputs": [],
      "name": "RESEARCH_MULTIPLIER_BASE",
      "outputs": [
        {
          "internalType": "uint256",
          "name": "",
          "type": "uint256"
        }
      ],
      "stateMutability": "view",
      "type": "function"
    },
    {
      "inputs": [],
      "name": "RESEARCH_SCALE",
      "outputs": [
        {
          "internalType": "uint256",
          "name": "",
          "type": "uint256"
        }
      ],
      "stateMutability": "view",
      "type": "function"
    },
    {
      "inputs": [],
      "name": "SOFT_CAP",
      "outputs": [
        {
          "internalType": "uint256",
          "name": "",
          "type": "uint256"
        }
      ],
      "stateMutability": "view",
      "type": "function"
    },
    {
      "inputs": [
        {
          "internalType": "address",
          "name": "_minter",
          "type": "address"
        }
      ],
      "name": "addMinter",
      "outputs": [],
      "stateMutability": "nonpayable",
      "type": "function"
    },
    {
      "inputs": [
        {
          "internalType": "uint256",
          "name": "_blockHeight",
          "type": "uint256"
        },
        {
          "internalType": "uint256",
          "name": "_researchValue",
          "type": "uint256"
        },
        {
          "internalType": "address",
          "name": "_contributor",
          "type": "address"
        }
      ],
      "name": "addResearchValue",
      "outputs": [],
      "stateMutability": "nonpayable",
      "type": "function"
    },
    {
      "inputs": [
        {
          "internalType": "address",
          "name": "owner",
          "type": "address"
        },
        {
          "internalType": "address",
          "name": "spender",
          "type": "address"
        }
      ],
      "name": "allowance",
      "outputs": [
        {
          "internalType": "uint256",
          "name": "",
          "type": "uint256"
        }
      ],
      "stateMutability": "view",
      "type": "function"
    },
    {
      "inputs": [
        {
          "internalType": "address",
          "name": "spender",
          "type": "address"
        },
        {
          "internalType": "uint256",
          "name": "value",
          "type": "uint256"
        }
      ],
      "name": "approve",
      "outputs": [
        {
          "internalType": "bool",
          "name": "",
          "type": "bool"
        }
      ],
      "stateMutability": "nonpayable",
      "type": "function"
    },
    {
      "inputs": [
        {
          "internalType": "address",
          "name": "account",
          "type": "address"
        }
      ],
      "name": "balanceOf",
      "outputs": [
        {
          "internalType": "uint256",
          "name": "",
          "type": "uint256"
        }
      ],
      "stateMutability": "view",
      "type": "function"
    },
    {
      "inputs": [
        {
          "internalType": "uint256",
          "name": "",
          "type": "uint256"
        }
      ],
      "name": "blockResearchValue",
      "outputs": [
        {
          "internalType": "uint256",
          "name": "",
          "type": "uint256"
        }
      ],
      "stateMutability": "view",
      "type": "function"
    },
    {
      "inputs": [
        {
          "internalType": "uint256",
          "name": "value",
          "type": "uint256"
        }
      ],
      "name": "burn",
      "outputs": [],
      "stateMutability": "nonpayable",
      "type": "function"
    },
    {
      "inputs": [
        {
          "internalType": "address",
          "name": "account",
          "type": "address"
        },
        {
          "internalType": "uint256",
          "name": "value",
          "type": "uint256"
        }
      ],
      "name": "burnFrom",
      "outputs": [],
      "stateMutability": "nonpayable",
      "type": "function"
    },
    {
      "inputs": [
        {
          "internalType": "uint256",
          "name": "_blockHeight",
          "type": "uint256"
        },
        {
          "internalType": "uint256",
          "name": "_researchValue",
          "type": "uint256"
        }
      ],
      "name": "calculateAsymptoticEmission",
      "outputs": [
        {
          "internalType": "uint256",
          "name": "",
          "type": "uint256"
        }
      ],
      "stateMutability": "view",
      "type": "function"
    },
    {
      "inputs": [],
      "name": "currentBlockHeight",
      "outputs": [
        {
          "internalType": "uint256",
          "name": "",
          "type": "uint256"
        }
      ],
      "stateMutability": "view",
      "type": "function"
    },
    {
      "inputs": [],
      "name": "decimals",
      "outputs": [
        {
          "internalType": "uint8",
          "name": "",
          "type": "uint8"
        }
      ],
      "stateMutability": "view",
      "type": "function"
    },
    {
      "inputs": [],
      "name": "getAsymptoticTokenInfo",
      "outputs": [
        {
          "internalType": "string",
          "name": "name",
          "type": "string"
        },
        {
          "internalType": "string",
          "name": "symbol",
          "type": "string"
        },
        {
          "internalType": "uint8",
          "name": "decimals",
          "type": "uint8"
        },
        {
          "internalType": "uint256",
          "name": "totalSupply",
          "type": "uint256"
        },
        {
          "internalType": "uint256",
          "name": "currentBlockHeight",
          "type": "uint256"
        },
        {
          "internalType": "uint256",
          "name": "totalResearchValue",
          "type": "uint256"
        },
        {
          "internalType": "uint256",
          "name": "softCap",
          "type": "uint256"
        }
      ],
      "stateMutability": "view",
      "type": "function"
    },
    {
      "inputs": [
        {
          "internalType": "uint256",
          "name": "_blockHeight",
          "type": "uint256"
        }
      ],
      "name": "getBlockResearchValue",
      "outputs": [
        {
          "internalType": "uint256",
          "name": "",
          "type": "uint256"
        }
      ],
      "stateMutability": "view",
      "type": "function"
    },
    {
      "inputs": [],
      "name": "getEmissionParameters",
      "outputs": [
        {
          "internalType": "uint256",
          "name": "initialEmissionRate",
          "type": "uint256"
        },
        {
          "internalType": "uint256",
          "name": "decayConstant",
          "type": "uint256"
        },
        {
          "internalType": "uint256",
          "name": "researchMultiplierBase",
          "type": "uint256"
        },
        {
          "internalType": "uint256",
          "name": "currentBlockHeight",
          "type": "uint256"
        },
        {
          "internalType": "uint256",
          "name": "totalEmitted",
          "type": "uint256"
        }
      ],
      "stateMutability": "view",
      "type": "function"
    },
    {
      "inputs": [
        {
          "internalType": "address",
          "name": "_user",
          "type": "address"
        }
      ],
      "name": "getUserResearchContributions",
      "outputs": [
        {
          "internalType": "uint256",
          "name": "",
          "type": "uint256"
        }
      ],
      "stateMutability": "view",
      "type": "function"
    },
    {
      "inputs": [],
      "name": "lastEmissionBlock",
      "outputs": [
        {
          "internalType": "uint256",
          "name": "",
          "type": "uint256"
        }
      ],
      "stateMutability": "view",
      "type": "function"
    },
    {
      "inputs": [],
      "name": "miningRewardsPool",
      "outputs": [
        {
          "internalType": "address",
          "name": "",
          "type": "address"
        }
      ],
      "stateMutability": "view",
      "type": "function"
    },
    {
      "inputs": [
        {
          "internalType": "address",
          "name": "_to",
          "type": "address"
        },
        {
          "internalType": "uint256",
          "name": "_amount",
          "type": "uint256"
        },
        {
          "internalType": "uint256",
          "name": "_blockHeight",
          "type": "uint256"
        }
      ],
      "name": "mintMiningRewards",
      "outputs": [],
      "stateMutability": "nonpayable",
      "type": "function"
    },
    {
      "inputs": [
        {
          "internalType": "address",
          "name": "_to",
          "type": "address"
        },
        {
          "internalType": "uint256",
          "name": "_amount",
          "type": "uint256"
        },
        {
          "internalType": "uint256",
          "name": "_blockHeight",
          "type": "uint256"
        }
      ],
      "name": "mintStakingRewards",
      "outputs": [],
      "stateMutability": "nonpayable",
      "type": "function"
    },
    {
      "inputs": [
        {
          "internalType": "uint256",
          "name": "_amount",
          "type": "uint256"
        }
      ],
      "name": "mintToTreasury",
      "outputs": [],
      "stateMutability": "nonpayable",
      "type": "function"
    },
    {
      "inputs": [
        {
          "internalType": "address",
          "name": "",
          "type": "address"
        }
      ],
      "name": "minters",
      "outputs": [
        {
          "internalType": "bool",
          "name": "",
          "type": "bool"
        }
      ],
      "stateMutability": "view",
      "type": "function"
    },
    {
      "inputs": [],
      "name": "name",
      "outputs": [
        {
          "internalType": "string",
          "name": "",
          "type": "string"
        }
      ],
      "stateMutability": "view",
      "type": "function"
    },
    {
      "inputs": [],
      "name": "owner",
      "outputs": [
        {
          "internalType": "address",
          "name": "",
          "type": "address"
        }
      ],
      "stateMutability": "view",
      "type": "function"
    },
    {
      "inputs": [],
      "name": "pause",
      "outputs": [],
      "stateMutability": "nonpayable",
      "type": "function"
    },
    {
      "inputs": [],
      "name": "paused",
      "outputs": [
        {
          "internalType": "bool",
          "name": "",
          "type": "bool"
        }
      ],
      "stateMutability": "view",
      "type": "function"
    },
    {
      "inputs": [],
      "name": "productiveMinerContract",
      "outputs": [
        {
          "internalType": "address",
          "name": "",
          "type": "address"
        }
      ],
      "stateMutability": "view",
      "type": "function"
    },
    {
      "inputs": [
        {
          "internalType": "address",
          "name": "_minter",
          "type": "address"
        }
      ],
      "name": "removeMinter",
      "outputs": [],
      "stateMutability": "nonpayable",
      "type": "function"
    },
    {
      "inputs": [],
      "name": "renounceOwnership",
      "outputs": [],
      "stateMutability": "nonpayable",
      "type": "function"
    },
    {
      "inputs": [],
      "name": "researchFund",
      "outputs": [
        {
          "internalType": "address",
          "name": "",
          "type": "address"
        }
      ],
      "stateMutability": "view",
      "type": "function"
    },
    {
      "inputs": [],
      "name": "stakingRewardsPool",
      "outputs": [
        {
          "internalType": "address",
          "name": "",
          "type": "address"
        }
      ],
      "stateMutability": "view",
      "type": "function"
    },
    {
      "inputs": [],
      "name": "symbol",
      "outputs": [
        {
          "internalType": "string",
          "name": "",
          "type": "string"
        }
      ],
      "stateMutability": "view",
      "type": "function"
    },
    {
      "inputs": [],
      "name": "totalEmitted",
      "outputs": [
        {
          "internalType": "uint256",
          "name": "",
          "type": "uint256"
        }
      ],
      "stateMutability": "view",
      "type": "function"
    },
    {
      "inputs": [],
      "name": "totalResearchValue",
      "outputs": [
        {
          "internalType": "uint256",
          "name": "",
          "type": "uint256"
        }
      ],
      "stateMutability": "view",
      "type": "function"
    },
    {
      "inputs": [],
      "name": "totalSupply",
      "outputs": [
        {
          "internalType": "uint256",
          "name": "",
          "type": "uint256"
        }
      ],
      "stateMutability": "view",
      "type": "function"
    },
    {
      "inputs": [
        {
          "internalType": "address",
          "name": "to",
          "type": "address"
        },
        {
          "internalType": "uint256",
          "name": "value",
          "type": "uint256"
        }
      ],
      "name": "transfer",
      "outputs": [
        {
          "internalType": "bool",
          "name": "",
          "type": "bool"
        }
      ],
      "stateMutability": "nonpayable",
      "type": "function"
    },
    {
      "inputs": [
        {
          "internalType": "address",
          "name": "from",
          "type": "address"
        },
        {
          "internalType": "address",
          "name": "to",
          "type": "address"
        },
        {
          "internalType": "uint256",
          "name": "value",
          "type": "uint256"
        }
      ],
      "name": "transferFrom",
      "outputs": [
        {
          "internalType": "bool",
          "name": "",
          "type": "bool"
        }
      ],
      "stateMutability": "nonpayable",
      "type": "function"
    },
    {
      "inputs": [
        {
          "internalType": "address",
          "name": "newOwner",
          "type": "address"
        }
      ],
      "name": "transferOwnership",
      "outputs": [],
      "stateMutability": "nonpayable",
      "type": "function"
    },
    {
      "inputs": [],
      "name": "treasury",
      "outputs": [
        {
          "internalType": "address",
          "name": "",
          "type": "address"
        }
      ],
      "stateMutability": "view",
      "type": "function"
    },
    {
      "inputs": [],
      "name": "unpause",
      "outputs": [],
      "stateMutability": "nonpayable",
      "type": "function"
    },
    {
      "inputs": [
        {
          "internalType": "address",
          "name": "_miningRewardsPool",
          "type": "address"
        },
        {
          "internalType": "address",
          "name": "_stakingRewardsPool",
          "type": "address"
        },
        {
          "internalType": "address",
          "name": "_researchFund",
          "type": "address"
        },
        {
          "internalType": "address",
          "name": "_treasury",
          "type": "address"
        }
      ],
      "name": "updatePlatformAddresses",
      "outputs": [],
      "stateMutability": "nonpayable",
      "type": "function"
    },
    {
      "inputs": [
        {
          "internalType": "address",
          "name": "_newContract",
          "type": "address"
        }
      ],
      "name": "updateProductiveMinerContract",
      "outputs": [],
      "stateMutability": "nonpayable",
      "type": "function"
    },
    {
      "inputs": [
        {
          "internalType": "address",
          "name": "",
          "type": "address"
        }
      ],
      "name": "userResearchContributions",
      "outputs": [
        {
          "internalType": "uint256",
          "name": "",
          "type": "uint256"
        }
      ],
      "stateMutability": "view",
      "type": "function"
    }
  ],
  "bytecode": "0x60806040523480156200001157600080fd5b506040516200244b3803806200244b833981016040819052620000349162000711565b604080518082018252600580825264135253915160da1b60208084018290528451808601909552918452908301523391600362000072838262000836565b50600462000081828262000836565b5050506001600160a01b038116620000b457604051631e4fbdf760e01b8152600060048201526024015b60405180910390fd5b620000bf81620004d9565b5060016006556001600160a01b0386166200011d5760405162461bcd60e51b815260206004820152601d60248201527f4d494e45443a20696e76616c696420696e697469616c20686f6c6465720000006044820152606401620000ab565b6001600160a01b038516620001805760405162461bcd60e51b815260206004820152602260248201527f4d494e45443a20696e76616c6964206d696e696e67207265776172647320706f6044820152611bdb60f21b6064820152608401620000ab565b6001600160a01b038416620001e45760405162461bcd60e51b815260206004820152602360248201527f4d494e45443a20696e76616c6964207374616b696e67207265776172647320706044820152621bdbdb60ea1b6064820152608401620000ab565b6001600160a01b0383166200023c5760405162461bcd60e51b815260206004820152601c60248201527f4d494e45443a20696e76616c69642072657365617263682066756e64000000006044820152606401620000ab565b6001600160a01b038216620002945760405162461bcd60e51b815260206004820152601760248201527f4d494e45443a20696e76616c69642074726561737572790000000000000000006044820152606401620000ab565b6001600160a01b038116620002ec5760405162461bcd60e51b815260206004820152601f60248201527f4d494e45443a20696e76616c69642070726f64756374697665206d696e6572006044820152606401620000ab565b600780546001600160a01b038088166001600160a01b0319928316179092556008805487841690831617905560098054868416908316179055600a8054858416908316179055600b805492841692909116821790556001600c819055600e819055600082815260126020526040808220805460ff191690931790925590517f6ae172837ea30b801fbfcdd4108aa1d5bf8ff775444fd70256b44e6bf3dfc3f69190a26b033b2e3c9fd0803ce8000000620003a7878262000533565b600f81905560006064620003bd83600a62000918565b620003c9919062000938565b905060006064620003dc84601462000918565b620003e8919062000938565b905060006064620003fb85600a62000918565b62000407919062000938565b9050600060646200041a86600a62000918565b62000426919062000938565b60075490915062000441906001600160a01b03168562000533565b60085462000459906001600160a01b03168462000533565b60095462000471906001600160a01b03168362000533565b600a5462000489906001600160a01b03168262000533565b80826200049785876200095b565b620004a391906200095b565b620004af91906200095b565b600f6000828254620004c291906200095b565b90915550620009719b505050505050505050505050565b600580546001600160a01b03838116610100818102610100600160a81b031985161790945560405193909204169182907f8be0079c531659141344cd1fd0a4f28419497f9722a3daafe3b4186f6b6457e090600090a35050565b6001600160a01b0382166200055f5760405163ec442f0560e01b815260006004820152602401620000ab565b6200056d6000838362000571565b5050565b6200057e83838362000583565b505050565b6200058d6200059a565b6200057e838383620005c1565b60055460ff1615620005bf5760405163d93c066560e01b815260040160405180910390fd5b565b6001600160a01b038316620005f0578060026000828254620005e491906200095b565b90915550620006649050565b6001600160a01b03831660009081526020819052604090205481811015620006455760405163391434e360e21b81526001600160a01b03851660048201526024810182905260448101839052606401620000ab565b6001600160a01b03841660009081526020819052604090209082900390555b6001600160a01b0382166200068257600280548290039055620006a1565b6001600160a01b03821660009081526020819052604090208054820190555b816001600160a01b0316836001600160a01b03167fddf252ad1be2c89b69c2b068fc378daa952ba7f163c4a11628f55a4df523b3ef83604051620006e791815260200190565b60405180910390a3505050565b80516001600160a01b03811681146200070c57600080fd5b919050565b60008060008060008060c087890312156200072b57600080fd5b6200073687620006f4565b95506200074660208801620006f4565b94506200075660408801620006f4565b93506200076660608801620006f4565b92506200077660808801620006f4565b91506200078660a08801620006f4565b90509295509295509295565b634e487b7160e01b600052604160045260246000fd5b600181811c90821680620007bd57607f821691505b602082108103620007de57634e487b7160e01b600052602260045260246000fd5b50919050565b601f8211156200057e57600081815260208120601f850160051c810160208610156200080d5750805b601f850160051c820191505b818110156200082e5782815560010162000819565b505050505050565b81516001600160401b0381111562000852576200085262000792565b6200086a81620008638454620007a8565b84620007e4565b602080601f831160018114620008a25760008415620008895750858301515b600019600386901b1c1916600185901b1785556200082e565b600085815260208120601f198616915b82811015620008d357888601518255948401946001909101908401620008b2565b5085821015620008f25787850151600019600388901b60f8161c191681555b5050505050600190811b01905550565b634e487b7160e01b600052601160045260246000fd5b808202811582820484141762000932576200093262000902565b92915050565b6000826200095657634e487b7160e01b600052601260045260246000fd5b500490565b8082018082111562000932576200093262000902565b611aca80620009816000396000f3fe608060405234801561001057600080fd5b50600436106102a05760003560e01c806370a0823111610167578063a9059cbb116100ce578063dd50037a11610087578063dd50037a1461033e578063dd62ed3e14610603578063df0244b11461063c578063f2fde38b14610645578063f46eccc414610658578063f68f210b1461067b57600080fd5b8063a9059cbb1461058e578063aa295453146105a1578063b131b780146105b4578063b652dc2f146105d4578063c66966b7146105e7578063cb2f64f5146105f057600080fd5b806391bb809c1161012057806391bb809c1461051d578063955da4621461052d57806395d89b411461054d578063983b2d56146105555780639af154bc14610568578063a65948a31461057b57600080fd5b806370a08231146104a8578063715018a6146104d157806379cc6790146104d95780638456cb59146104ec5780638ac688e0146104f45780638da5cb5b1461050757600080fd5b8063313ce5671161020b578063477ec992116101c4578063477ec9921461041b5780634995c811146104445780635c975abb1461045757806361d027b31461046257806369f7e5a9146104755780636a1cbf641461049557600080fd5b8063313ce567146103aa578063367bf2f9146103b9578063368e3daf146103c257806338386f69146103ed5780633f4ba83a1461040057806342966c681461040857600080fd5b806319174ae21161025d57806319174ae2146103295780631e8267d71461033e5780631f7836351461034657806323b872dd1461034e5780632d4ab5d9146103615780633092afd51461039757600080fd5b806306fdde03146102a5578063072f4346146102c357806307e993ae146102da578063095ea7b3146102f557806315061fa41461031857806318160ddd14610321575b600080fd5b6102ad61068e565b6040516102ba91906116c3565b60405180910390f35b6102cc600d5481565b6040519081526020016102ba565b6102e2610720565b6040516102ba97969594939291906116dd565b61030861030336600461174c565b610760565b60405190151581526020016102ba565b6102cc61271081565b6002546102cc565b61033c610337366004611776565b61077a565b005b6102cc600181565b6102cc606481565b61030861035c3660046117ab565b61091a565b60408051683635c9adc5dea00000815260016020820181905291810191909152600060608201819052608082015260a0016102ba565b61033c6103a53660046117e7565b61093e565b604051601281526020016102ba565b6102cc600c5481565b6009546103d5906001600160a01b031681565b6040516001600160a01b0390911681526020016102ba565b600b546103d5906001600160a01b031681565b61033c6109dd565b61033c610416366004611802565b6109ef565b6102cc6104293660046117e7565b6001600160a01b031660009081526011602052604090205490565b61033c6104523660046117e7565b6109fc565b60055460ff16610308565b600a546103d5906001600160a01b031681565b6102cc610483366004611802565b60009081526010602052604090205490565b6007546103d5906001600160a01b031681565b6102cc6104b63660046117e7565b6001600160a01b031660009081526020819052604090205490565b61033c610b1f565b61033c6104e736600461174c565b610b31565b61033c610b4a565b61033c61050236600461181b565b610b5a565b60055461010090046001600160a01b03166103d5565b6102cc683635c9adc5dea0000081565b6102cc61053b3660046117e7565b60116020526000908152604090205481565b6102ad610cbb565b61033c6105633660046117e7565b610cca565b61033c61057636600461184e565b610d6c565b61033c610589366004611802565b610e26565b61030861059c36600461174c565b610f09565b6102cc6105af3660046118a2565b610f17565b6102cc6105c2366004611802565b60106020526000908152604090205481565b6102cc6b3077b58d5d3783919800000081565b6102cc600e5481565b61033c6105fe36600461181b565b611010565b6102cc6106113660046118c4565b6001600160a01b03918216600090815260016020908152604080832093909416825291909152205490565b6102cc600f5481565b61033c6106533660046117e7565b611171565b6103086106663660046117e7565b60126020526000908152604090205460ff1681565b6008546103d5906001600160a01b031681565b60606003805461069d906118f7565b80601f01602080910402602001604051908101604052809291908181526020018280546106c9906118f7565b80156107165780601f106106eb57610100808354040283529160200191610716565b820191906000526020600020905b8154815290600101906020018083116106f957829003601f168201915b5050505050905090565b606080600080600080600061073361068e565b61073b610cbb565b6012600254929a919950975090955092935090916b3077b58d5d378391980000009150565b60003361076e8185856111ac565b60019150505b92915050565b600b546001600160a01b031633146107ad5760405162461bcd60e51b81526004016107a490611931565b60405180910390fd5b6000821161080c5760405162461bcd60e51b815260206004820152602660248201527f4d494e45443a2072657365617263682076616c7565206d75737420626520706f60448201526573697469766560d01b60648201526084016107a4565b6001600160a01b0381166108625760405162461bcd60e51b815260206004820152601a60248201527f4d494e45443a20696e76616c696420636f6e7472696275746f7200000000000060448201526064016107a4565b60008381526010602052604081208054849290610880908490611990565b9250508190555081600d60008282546108999190611990565b90915550506001600160a01b038116600090815260116020526040812080548492906108c6908490611990565b9091555050600c83905560408051848152602081018490526001600160a01b038316917f8cccd45bfba8849250eb2d315ed1f9071d43d5db1250ddc5f7556aa5ecf98d6591015b60405180910390a2505050565b6000336109288582856111be565b610933858585611237565b506001949350505050565b610946611296565b6001600160a01b0381166109945760405162461bcd60e51b815260206004820152601560248201527426a4a722a21d1034b73b30b634b21036b4b73a32b960591b60448201526064016107a4565b6001600160a01b038116600081815260126020526040808220805460ff19169055517fe94479a9f7e1952cc78f2d6baab678adc1b772d936c6583def489e524cb666929190a250565b6109e5611296565b6109ed6112c9565b565b6109f9338261131b565b50565b610a04611296565b6001600160a01b038116610a5a5760405162461bcd60e51b815260206004820152601f60248201527f4d494e45443a20696e76616c696420636f6e747261637420616464726573730060448201526064016107a4565b600b546001600160a01b031615610abf57600b80546001600160a01b03908116600090815260126020526040808220805460ff191690559254925192909116917fe94479a9f7e1952cc78f2d6baab678adc1b772d936c6583def489e524cb666929190a25b600b80546001600160a01b0319166001600160a01b038316908117909155600081815260126020526040808220805460ff19166001179055517f6ae172837ea30b801fbfcdd4108aa1d5bf8ff775444fd70256b44e6bf3dfc3f69190a250565b610b27611296565b6109ed6000611351565b610b3c8233836111be565b610b46828261131b565b5050565b610b52611296565b6109ed6113ab565b600b546001600160a01b03163314610b845760405162461bcd60e51b81526004016107a490611931565b6001600160a01b038316610bd55760405162461bcd60e51b815260206004820152601860248201527713525391510e881a5b9d985b1a59081c9958da5c1a595b9d60421b60448201526064016107a4565b60008211610bf55760405162461bcd60e51b81526004016107a4906119a3565b60008111610c155760405162461bcd60e51b81526004016107a4906119da565b6b3077b58d5d3783919800000082610c2c60025490565b610c369190611990565b1115610c545760405162461bcd60e51b81526004016107a490611a11565b610c5e83836113e8565b81600f6000828254610c709190611990565b9091555050600c81905560408051838152602081018390526001600160a01b038516917fe92b2165b0258b757b29311a8ec1163b5bf23c113557cc3440f4c0a2d845dbc6910161090d565b60606004805461069d906118f7565b610cd2611296565b6001600160a01b038116610d205760405162461bcd60e51b815260206004820152601560248201527426a4a722a21d1034b73b30b634b21036b4b73a32b960591b60448201526064016107a4565b6001600160a01b038116600081815260126020526040808220805460ff19166001179055517f6ae172837ea30b801fbfcdd4108aa1d5bf8ff775444fd70256b44e6bf3dfc3f69190a250565b610d74611296565b6001600160a01b03841615610d9f57600780546001600160a01b0319166001600160a01b0386161790555b6001600160a01b03831615610dca57600880546001600160a01b0319166001600160a01b0385161790555b6001600160a01b03821615610df557600980546001600160a01b0319166001600160a01b0384161790555b6001600160a01b03811615610e2057600a80546001600160a01b0319166001600160a01b0383161790555b50505050565b610e2e611296565b60008111610e4e5760405162461bcd60e51b81526004016107a4906119a3565b6b3077b58d5d3783919800000081610e6560025490565b610e6f9190611990565b1115610e8d5760405162461bcd60e51b81526004016107a490611a11565b600a54610ea3906001600160a01b0316826113e8565b80600f6000828254610eb59190611990565b9091555050600a54600c546040805184815260208101929092526001600160a01b03909216917fdea0655b5cd3280541c6ec1aa5b38ab4402a62df698e2455fd96c03651bbec8a910160405180910390a250565b60003361076e818585611237565b6000808311610f385760405162461bcd60e51b81526004016107a4906119da565b6000610f45600185611a48565b90506000612710610f57836001611a5b565b610f619190611a72565b610f6d90612710611a48565b90506000612710610f8783683635c9adc5dea00000611a5b565b610f919190611a72565b905060006064610fa2876001611a5b565b610fac9190611a72565b610fb7906064611990565b905060006064610fc78385611a5b565b610fd19190611a72565b9050610fe7683635c9adc5dea00000600a611a5b565b81111561100557611002683635c9adc5dea00000600a611a5b565b90505b979650505050505050565b600b546001600160a01b0316331461103a5760405162461bcd60e51b81526004016107a490611931565b6001600160a01b03831661108b5760405162461bcd60e51b815260206004820152601860248201527713525391510e881a5b9d985b1a59081c9958da5c1a595b9d60421b60448201526064016107a4565b600082116110ab5760405162461bcd60e51b81526004016107a4906119a3565b600081116110cb5760405162461bcd60e51b81526004016107a4906119da565b6b3077b58d5d37839198000000826110e260025490565b6110ec9190611990565b111561110a5760405162461bcd60e51b81526004016107a490611a11565b61111483836113e8565b81600f60008282546111269190611990565b9091555050600c81905560408051838152602081018390526001600160a01b038516917f728e25e27853d4af728e4f7d94277f913f0fa1010496a04144b3943f71d2c6e1910161090d565b611179611296565b6001600160a01b0381166111a357604051631e4fbdf760e01b8152600060048201526024016107a4565b6109f981611351565b6111b9838383600161141e565b505050565b6001600160a01b03838116600090815260016020908152604080832093861683529290522054600019811015610e20578181101561122857604051637dc7a0d960e11b81526001600160a01b038416600482015260248101829052604481018390526064016107a4565b610e208484848403600061141e565b6001600160a01b03831661126157604051634b637e8f60e11b8152600060048201526024016107a4565b6001600160a01b03821661128b5760405163ec442f0560e01b8152600060048201526024016107a4565b6111b98383836114f3565b6005546001600160a01b036101009091041633146109ed5760405163118cdaa760e01b81523360048201526024016107a4565b6112d16114fe565b6005805460ff191690557f5db9ee0a495bf2e6ff9c91a7834c1ba4fdd244a5e8aa4e537bd38aeae4b073aa335b6040516001600160a01b03909116815260200160405180910390a1565b6001600160a01b03821661134557604051634b637e8f60e11b8152600060048201526024016107a4565b610b46826000836114f3565b600580546001600160a01b03838116610100818102610100600160a81b031985161790945560405193909204169182907f8be0079c531659141344cd1fd0a4f28419497f9722a3daafe3b4186f6b6457e090600090a35050565b6113b3611521565b6005805460ff191660011790557f62e78cea01bee320cd4e420270b5ea74000d11b0c9f74754ebdbfc544b05a2586112fe3390565b6001600160a01b0382166114125760405163ec442f0560e01b8152600060048201526024016107a4565b610b46600083836114f3565b6001600160a01b0384166114485760405163e602df0560e01b8152600060048201526024016107a4565b6001600160a01b03831661147257604051634a1406b160e11b8152600060048201526024016107a4565b6001600160a01b0380851660009081526001602090815260408083209387168352929052208290558015610e2057826001600160a01b0316846001600160a01b03167f8c5be1e5ebec7d5bd14f71427d1e84f3dd0314c0f7b2291e5b200ac8c7c3b925846040516114e591815260200190565b60405180910390a350505050565b6111b9838383611545565b60055460ff166109ed57604051638dfc202b60e01b815260040160405180910390fd5b60055460ff16156109ed5760405163d93c066560e01b815260040160405180910390fd5b61154d611521565b6111b98383836001600160a01b03831661157e5780600260008282546115739190611990565b909155506115f09050565b6001600160a01b038316600090815260208190526040902054818110156115d15760405163391434e360e21b81526001600160a01b038516600482015260248101829052604481018390526064016107a4565b6001600160a01b03841660009081526020819052604090209082900390555b6001600160a01b03821661160c5760028054829003905561162b565b6001600160a01b03821660009081526020819052604090208054820190555b816001600160a01b0316836001600160a01b03167fddf252ad1be2c89b69c2b068fc378daa952ba7f163c4a11628f55a4df523b3ef8360405161167091815260200190565b60405180910390a3505050565b6000815180845260005b818110156116a357602081850181015186830182015201611687565b506000602082860101526020601f19601f83011685010191505092915050565b6020815260006116d6602083018461167d565b9392505050565b60e0815260006116f060e083018a61167d565b8281036020840152611702818a61167d565b60ff98909816604084015250506060810194909452608084019290925260a083015260c09091015292915050565b80356001600160a01b038116811461174757600080fd5b919050565b6000806040838503121561175f57600080fd5b61176883611730565b946020939093013593505050565b60008060006060848603121561178b57600080fd5b83359250602084013591506117a260408501611730565b90509250925092565b6000806000606084860312156117c057600080fd5b6117c984611730565b92506117d760208501611730565b9150604084013590509250925092565b6000602082840312156117f957600080fd5b6116d682611730565b60006020828403121561181457600080fd5b5035919050565b60008060006060848603121561183057600080fd5b61183984611730565b95602085013595506040909401359392505050565b6000806000806080858703121561186457600080fd5b61186d85611730565b935061187b60208601611730565b925061188960408601611730565b915061189760608601611730565b905092959194509250565b600080604083850312156118b557600080fd5b50508035926020909101359150565b600080604083850312156118d757600080fd5b6118e083611730565b91506118ee60208401611730565b90509250929050565b600181811c9082168061190b57607f821691505b60208210810361192b57634e487b7160e01b600052602260045260246000fd5b50919050565b60208082526029908201527f4d494e45443a206f6e6c792050726f647563746976654d696e65722063616e2060408201526863616c6c207468697360b81b606082015260800190565b634e487b7160e01b600052601160045260246000fd5b808201808211156107745761077461197a565b6020808252601e908201527f4d494e45443a20616d6f756e74206d75737420626520706f7369746976650000604082015260600190565b6020808252601b908201527f4d494e45443a20696e76616c696420626c6f636b206865696768740000000000604082015260600190565b6020808252601c908201527f4d494e45443a20776f756c642065786365656420736f66742063617000000000604082015260600190565b818103818111156107745761077461197a565b80820281158282048414176107745761077461197a565b600082611a8f57634e487b7160e01b600052601260045260246000fd5b50049056fea2646970667358221220d2fcfd5bef0a787c917cce49092382e3088ea889a7d7fccfb4693457f038b55764736f6c63430008140033",
  "linkReferences": {},
  "deployedLinkReferences": {}
}