{
  "_format": "hh-sol-artifact-1",
  "contractName": "OptimizedMINEDToken",
  "sourceName": "contracts/MINEDTokenStandalone.sol",
  "abi": [
    {
      "inputs": [
        {
          "internalType": "address",
          "name": "holder",
          "type": "address"
        }
      ],
      "stateMutability": "payable",
      "type": "constructor"
    },
    {
      "inputs": [
        {
          "internalType": "address",
          "name": "spender",
          "type": "address"
        },
        {
          "internalType": "uint256",
          "name": "allowance",
          "type": "uint256"
        },
        {
          "internalType": "uint256",
          "name": "needed",
          "type": "uint256"
        }
      ],
      "name": "ERC20InsufficientAllowance",
      "type": "error"
    },
    {
      "inputs": [
        {
          "internalType": "address",
          "name": "sender",
          "type": "address"
        },
        {
          "internalType": "uint256",
          "name": "balance",
          "type": "uint256"
        },
        {
          "internalType": "uint256",
          "name": "needed",
          "type": "uint256"
        }
      ],
      "name": "ERC20InsufficientBalance",
      "type": "error"
    },
    {
      "inputs": [
        {
          "internalType": "address",
          "name": "approver",
          "type": "address"
        }
      ],
      "name": "ERC20InvalidApprover",
      "type": "error"
    },
    {
      "inputs": [
        {
          "internalType": "address",
          "name": "receiver",
          "type": "address"
        }
      ],
      "name": "ERC20InvalidReceiver",
      "type": "error"
    },
    {
      "inputs": [
        {
          "internalType": "address",
          "name": "sender",
          "type": "address"
        }
      ],
      "name": "ERC20InvalidSender",
      "type": "error"
    },
    {
      "inputs": [
        {
          "internalType": "address",
          "name": "spender",
          "type": "address"
        }
      ],
      "name": "ERC20InvalidSpender",
      "type": "error"
    },
    {
      "inputs": [
        {
          "internalType": "address",
          "name": "owner",
          "type": "address"
        }
      ],
      "name": "OwnableInvalidOwner",
      "type": "error"
    },
    {
      "inputs": [
        {
          "internalType": "address",
          "name": "account",
          "type": "address"
        }
      ],
      "name": "OwnableUnauthorizedAccount",
      "type": "error"
    },
    {
      "anonymous": false,
      "inputs": [
        {
          "indexed": true,
          "internalType": "address",
          "name": "owner",
          "type": "address"
        },
        {
          "indexed": true,
          "internalType": "address",
          "name": "spender",
          "type": "address"
        },
        {
          "indexed": false,
          "internalType": "uint256",
          "name": "value",
          "type": "uint256"
        }
      ],
      "name": "Approval",
      "type": "event"
    },
    {
      "anonymous": false,
      "inputs": [
        {
          "indexed": true,
          "internalType": "uint32",
          "name": "id",
          "type": "uint32"
        },
        {
          "indexed": true,
          "internalType": "address",
          "name": "researcher",
          "type": "address"
        },
        {
          "indexed": false,
          "internalType": "uint8",
          "name": "workType",
          "type": "uint8"
        },
        {
          "indexed": false,
          "internalType": "uint256",
          "name": "value",
          "type": "uint256"
        }
      ],
      "name": "DiscoverySubmitted",
      "type": "event"
    },
    {
      "anonymous": false,
      "inputs": [
        {
          "indexed": true,
          "internalType": "uint32",
          "name": "discoveryId",
          "type": "uint32"
        },
        {
          "indexed": true,
          "internalType": "address",
          "name": "validator",
          "type": "address"
        },
        {
          "indexed": false,
          "internalType": "bool",
          "name": "consensus",
          "type": "bool"
        }
      ],
      "name": "DiscoveryValidated",
      "type": "event"
    },
    {
      "anonymous": false,
      "inputs": [
        {
          "indexed": true,
          "internalType": "address",
          "name": "to",
          "type": "address"
        },
        {
          "indexed": false,
          "internalType": "uint256",
          "name": "amount",
          "type": "uint256"
        }
      ],
      "name": "EmissionMinted",
      "type": "event"
    },
    {
      "anonymous": false,
      "inputs": [
        {
          "indexed": true,
          "internalType": "address",
          "name": "previousOwner",
          "type": "address"
        },
        {
          "indexed": true,
          "internalType": "address",
          "name": "newOwner",
          "type": "address"
        }
      ],
      "name": "OwnershipTransferStarted",
      "type": "event"
    },
    {
      "anonymous": false,
      "inputs": [
        {
          "indexed": true,
          "internalType": "address",
          "name": "previousOwner",
          "type": "address"
        },
        {
          "indexed": true,
          "internalType": "address",
          "name": "newOwner",
          "type": "address"
        }
      ],
      "name": "OwnershipTransferred",
      "type": "event"
    },
    {
      "anonymous": false,
      "inputs": [
        {
          "indexed": true,
          "internalType": "uint32",
          "name": "discoveryId",
          "type": "uint32"
        },
        {
          "indexed": false,
          "internalType": "uint256",
          "name": "securityEnhancement",
          "type": "uint256"
        }
      ],
      "name": "SecurityFeedback",
      "type": "event"
    },
    {
      "anonymous": false,
      "inputs": [
        {
          "indexed": true,
          "internalType": "address",
          "name": "from",
          "type": "address"
        },
        {
          "indexed": false,
          "internalType": "uint256",
          "name": "amount",
          "type": "uint256"
        }
      ],
      "name": "TokensBurned",
      "type": "event"
    },
    {
      "anonymous": false,
      "inputs": [
        {
          "indexed": true,
          "internalType": "address",
          "name": "user",
          "type": "address"
        },
        {
          "indexed": false,
          "internalType": "uint256",
          "name": "amount",
          "type": "uint256"
        }
      ],
      "name": "TokensStaked",
      "type": "event"
    },
    {
      "anonymous": false,
      "inputs": [
        {
          "indexed": true,
          "internalType": "address",
          "name": "user",
          "type": "address"
        },
        {
          "indexed": false,
          "internalType": "uint256",
          "name": "amount",
          "type": "uint256"
        },
        {
          "indexed": false,
          "internalType": "uint256",
          "name": "reward",
          "type": "uint256"
        }
      ],
      "name": "TokensUnstaked",
      "type": "event"
    },
    {
      "anonymous": false,
      "inputs": [
        {
          "indexed": true,
          "internalType": "address",
          "name": "from",
          "type": "address"
        },
        {
          "indexed": true,
          "internalType": "address",
          "name": "to",
          "type": "address"
        },
        {
          "indexed": false,
          "internalType": "uint256",
          "name": "value",
          "type": "uint256"
        }
      ],
      "name": "Transfer",
      "type": "event"
    },
    {
      "anonymous": false,
      "inputs": [
        {
          "indexed": true,
          "internalType": "uint32",
          "name": "requestId",
          "type": "uint32"
        },
        {
          "indexed": true,
          "internalType": "uint32",
          "name": "discoveryId",
          "type": "uint32"
        },
        {
          "indexed": false,
          "internalType": "uint256",
          "name": "fee",
          "type": "uint256"
        }
      ],
      "name": "ValidationRequested",
      "type": "event"
    },
    {
      "anonymous": false,
      "inputs": [
        {
          "indexed": true,
          "internalType": "address",
          "name": "validator",
          "type": "address"
        },
        {
          "indexed": false,
          "internalType": "uint256",
          "name": "stake",
          "type": "uint256"
        }
      ],
      "name": "ValidatorRegistered",
      "type": "event"
    },
    {
      "anonymous": false,
      "inputs": [
        {
          "indexed": true,
          "internalType": "address",
          "name": "validator",
          "type": "address"
        },
        {
          "indexed": false,
          "internalType": "uint256",
          "name": "amount",
          "type": "uint256"
        }
      ],
      "name": "ValidatorSlashed",
      "type": "event"
    },
    {
      "anonymous": false,
      "inputs": [
        {
          "indexed": true,
          "internalType": "address",
          "name": "validator",
          "type": "address"
        }
      ],
      "name": "ValidatorUnregistered",
      "type": "event"
    },
    {
      "anonymous": false,
      "inputs": [
        {
          "indexed": true,
          "internalType": "uint8",
          "name": "workType",
          "type": "uint8"
        }
      ],
      "name": "WorkTypeAdded",
      "type": "event"
    },
    {
      "anonymous": false,
      "inputs": [
        {
          "indexed": true,
          "internalType": "uint8",
          "name": "workType",
          "type": "uint8"
        },
        {
          "indexed": false,
          "internalType": "bool",
          "name": "isActive",
          "type": "bool"
        }
      ],
      "name": "WorkTypeUpdated",
      "type": "event"
    },
    {
      "inputs": [],
      "name": "acceptOwnership",
      "outputs": [],
      "stateMutability": "nonpayable",
      "type": "function"
    },
    {
      "inputs": [
        {
          "internalType": "uint8",
          "name": "workType",
          "type": "uint8"
        },
        {
          "internalType": "uint16",
          "name": "difficultyMultiplier",
          "type": "uint16"
        },
        {
          "internalType": "uint16",
          "name": "baseReward",
          "type": "uint16"
        }
      ],
      "name": "addWorkType",
      "outputs": [],
      "stateMutability": "payable",
      "type": "function"
    },
    {
      "inputs": [
        {
          "internalType": "address",
          "name": "owner",
          "type": "address"
        },
        {
          "internalType": "address",
          "name": "spender",
          "type": "address"
        }
      ],
      "name": "allowance",
      "outputs": [
        {
          "internalType": "uint256",
          "name": "",
          "type": "uint256"
        }
      ],
      "stateMutability": "view",
      "type": "function"
    },
    {
      "inputs": [
        {
          "internalType": "address",
          "name": "spender",
          "type": "address"
        },
        {
          "internalType": "uint256",
          "name": "value",
          "type": "uint256"
        }
      ],
      "name": "approve",
      "outputs": [
        {
          "internalType": "bool",
          "name": "",
          "type": "bool"
        }
      ],
      "stateMutability": "nonpayable",
      "type": "function"
    },
    {
      "inputs": [
        {
          "internalType": "address",
          "name": "account",
          "type": "address"
        }
      ],
      "name": "balanceOf",
      "outputs": [
        {
          "internalType": "uint256",
          "name": "",
          "type": "uint256"
        }
      ],
      "stateMutability": "view",
      "type": "function"
    },
    {
      "inputs": [],
      "name": "calculateEmission",
      "outputs": [
        {
          "internalType": "uint256",
          "name": "emission",
          "type": "uint256"
        }
      ],
      "stateMutability": "view",
      "type": "function"
    },
    {
      "inputs": [],
      "name": "decimals",
      "outputs": [
        {
          "internalType": "uint8",
          "name": "",
          "type": "uint8"
        }
      ],
      "stateMutability": "view",
      "type": "function"
    },
    {
      "inputs": [
        {
          "internalType": "uint32",
          "name": "",
          "type": "uint32"
        }
      ],
      "name": "discoveries",
      "outputs": [
        {
          "internalType": "uint128",
          "name": "researchValue",
          "type": "uint128"
        },
        {
          "internalType": "uint64",
          "name": "timestamp",
          "type": "uint64"
        },
        {
          "internalType": "uint32",
          "name": "validationCount",
          "type": "uint32"
        },
        {
          "internalType": "uint16",
          "name": "complexity",
          "type": "uint16"
        },
        {
          "internalType": "uint8",
          "name": "significance",
          "type": "uint8"
        },
        {
          "internalType": "uint8",
          "name": "workType",
          "type": "uint8"
        },
        {
          "internalType": "address",
          "name": "researcher",
          "type": "address"
        },
        {
          "internalType": "bool",
          "name": "isValidated",
          "type": "bool"
        },
        {
          "internalType": "bool",
          "name": "isCollaborative",
          "type": "bool"
        }
      ],
      "stateMutability": "view",
      "type": "function"
    },
    {
      "inputs": [
        {
          "internalType": "uint32",
          "name": "discoveryId",
          "type": "uint32"
        }
      ],
      "name": "getDiscovery",
      "outputs": [
        {
          "internalType": "address",
          "name": "researcher",
          "type": "address"
        },
        {
          "internalType": "uint8",
          "name": "workType",
          "type": "uint8"
        },
        {
          "internalType": "uint8",
          "name": "complexity",
          "type": "uint8"
        },
        {
          "internalType": "uint8",
          "name": "significance",
          "type": "uint8"
        },
        {
          "internalType": "uint256",
          "name": "researchValue",
          "type": "uint256"
        },
        {
          "internalType": "bool",
          "name": "isValidated",
          "type": "bool"
        },
        {
          "internalType": "uint256",
          "name": "validationCount",
          "type": "uint256"
        }
      ],
      "stateMutability": "view",
      "type": "function"
    },
    {
      "inputs": [],
      "name": "getSystemInfo",
      "outputs": [
        {
          "internalType": "uint256",
          "name": "totalSupply_",
          "type": "uint256"
        },
        {
          "internalType": "uint256",
          "name": "totalBurned_",
          "type": "uint256"
        },
        {
          "internalType": "uint256",
          "name": "totalResearchValue_",
          "type": "uint256"
        },
        {
          "internalType": "uint256",
          "name": "totalValidators_",
          "type": "uint256"
        },
        {
          "internalType": "uint256",
          "name": "currentEmission",
          "type": "uint256"
        }
      ],
      "stateMutability": "view",
      "type": "function"
    },
    {
      "inputs": [
        {
          "internalType": "address",
          "name": "validator",
          "type": "address"
        }
      ],
      "name": "getValidatorInfo",
      "outputs": [
        {
          "internalType": "uint256",
          "name": "stakedAmount",
          "type": "uint256"
        },
        {
          "internalType": "uint256",
          "name": "validations",
          "type": "uint256"
        },
        {
          "internalType": "uint256",
          "name": "reputation",
          "type": "uint256"
        },
        {
          "internalType": "bool",
          "name": "isActive",
          "type": "bool"
        }
      ],
      "stateMutability": "view",
      "type": "function"
    },
    {
      "inputs": [
        {
          "internalType": "uint8",
          "name": "workType",
          "type": "uint8"
        }
      ],
      "name": "getWorkTypeInfo",
      "outputs": [
        {
          "internalType": "uint16",
          "name": "difficultyMultiplier",
          "type": "uint16"
        },
        {
          "internalType": "uint16",
          "name": "baseReward",
          "type": "uint16"
        },
        {
          "internalType": "bool",
          "name": "isActive",
          "type": "bool"
        }
      ],
      "stateMutability": "view",
      "type": "function"
    },
    {
      "inputs": [
        {
          "internalType": "uint32",
          "name": "",
          "type": "uint32"
        },
        {
          "internalType": "address",
          "name": "",
          "type": "address"
        }
      ],
      "name": "hasValidated",
      "outputs": [
        {
          "internalType": "bool",
          "name": "",
          "type": "bool"
        }
      ],
      "stateMutability": "view",
      "type": "function"
    },
    {
      "inputs": [],
      "name": "maxWorkType",
      "outputs": [
        {
          "internalType": "uint8",
          "name": "",
          "type": "uint8"
        }
      ],
      "stateMutability": "view",
      "type": "function"
    },
    {
      "inputs": [
        {
          "internalType": "address",
          "name": "to",
          "type": "address"
        }
      ],
      "name": "mintEmission",
      "outputs": [],
      "stateMutability": "payable",
      "type": "function"
    },
    {
      "inputs": [],
      "name": "name",
      "outputs": [
        {
          "internalType": "string",
          "name": "",
          "type": "string"
        }
      ],
      "stateMutability": "view",
      "type": "function"
    },
    {
      "inputs": [],
      "name": "owner",
      "outputs": [
        {
          "internalType": "address",
          "name": "",
          "type": "address"
        }
      ],
      "stateMutability": "view",
      "type": "function"
    },
    {
      "inputs": [],
      "name": "pendingOwner",
      "outputs": [
        {
          "internalType": "address",
          "name": "",
          "type": "address"
        }
      ],
      "stateMutability": "view",
      "type": "function"
    },
    {
      "inputs": [],
      "name": "registerValidator",
      "outputs": [],
      "stateMutability": "nonpayable",
      "type": "function"
    },
    {
      "inputs": [],
      "name": "renounceOwnership",
      "outputs": [],
      "stateMutability": "nonpayable",
      "type": "function"
    },
    {
      "inputs": [
        {
          "internalType": "uint32",
          "name": "discoveryId",
          "type": "uint32"
        },
        {
          "internalType": "uint256",
          "name": "fee",
          "type": "uint256"
        }
      ],
      "name": "requestValidation",
      "outputs": [
        {
          "internalType": "uint32",
          "name": "",
          "type": "uint32"
        }
      ],
      "stateMutability": "nonpayable",
      "type": "function"
    },
    {
      "inputs": [
        {
          "internalType": "address",
          "name": "",
          "type": "address"
        }
      ],
      "name": "researchContributions",
      "outputs": [
        {
          "internalType": "uint256",
          "name": "",
          "type": "uint256"
        }
      ],
      "stateMutability": "view",
      "type": "function"
    },
    {
      "inputs": [
        {
          "internalType": "address",
          "name": "validatorAddr",
          "type": "address"
        },
        {
          "internalType": "uint256",
          "name": "amount",
          "type": "uint256"
        }
      ],
      "name": "slashValidator",
      "outputs": [],
      "stateMutability": "payable",
      "type": "function"
    },
    {
      "inputs": [
        {
          "internalType": "uint256",
          "name": "amount",
          "type": "uint256"
        }
      ],
      "name": "stakeTokens",
      "outputs": [],
      "stateMutability": "nonpayable",
      "type": "function"
    },
    {
      "inputs": [
        {
          "internalType": "address",
          "name": "",
          "type": "address"
        }
      ],
      "name": "stakingInfo",
      "outputs": [
        {
          "internalType": "uint256",
          "name": "",
          "type": "uint256"
        }
      ],
      "stateMutability": "view",
      "type": "function"
    },
    {
      "inputs": [],
      "name": "state",
      "outputs": [
        {
          "internalType": "uint128",
          "name": "totalBurned",
          "type": "uint128"
        },
        {
          "internalType": "uint128",
          "name": "totalResearchValue",
          "type": "uint128"
        },
        {
          "internalType": "uint64",
          "name": "lastEmissionBlock",
          "type": "uint64"
        },
        {
          "internalType": "uint32",
          "name": "totalValidators",
          "type": "uint32"
        },
        {
          "internalType": "uint32",
          "name": "nextDiscoveryId",
          "type": "uint32"
        }
      ],
      "stateMutability": "view",
      "type": "function"
    },
    {
      "inputs": [
        {
          "internalType": "uint8",
          "name": "workType",
          "type": "uint8"
        },
        {
          "internalType": "uint8",
          "name": "complexity",
          "type": "uint8"
        },
        {
          "internalType": "uint8",
          "name": "significance",
          "type": "uint8"
        },
        {
          "internalType": "uint256",
          "name": "researchValue",
          "type": "uint256"
        },
        {
          "internalType": "bool",
          "name": "isCollaborative",
          "type": "bool"
        }
      ],
      "name": "submitDiscovery",
      "outputs": [
        {
          "internalType": "uint32",
          "name": "",
          "type": "uint32"
        }
      ],
      "stateMutability": "nonpayable",
      "type": "function"
    },
    {
      "inputs": [],
      "name": "symbol",
      "outputs": [
        {
          "internalType": "string",
          "name": "",
          "type": "string"
        }
      ],
      "stateMutability": "view",
      "type": "function"
    },
    {
      "inputs": [],
      "name": "totalSupply",
      "outputs": [
        {
          "internalType": "uint256",
          "name": "",
          "type": "uint256"
        }
      ],
      "stateMutability": "view",
      "type": "function"
    },
    {
      "inputs": [
        {
          "internalType": "address",
          "name": "to",
          "type": "address"
        },
        {
          "internalType": "uint256",
          "name": "value",
          "type": "uint256"
        }
      ],
      "name": "transfer",
      "outputs": [
        {
          "internalType": "bool",
          "name": "",
          "type": "bool"
        }
      ],
      "stateMutability": "nonpayable",
      "type": "function"
    },
    {
      "inputs": [
        {
          "internalType": "address",
          "name": "from",
          "type": "address"
        },
        {
          "internalType": "address",
          "name": "to",
          "type": "address"
        },
        {
          "internalType": "uint256",
          "name": "value",
          "type": "uint256"
        }
      ],
      "name": "transferFrom",
      "outputs": [
        {
          "internalType": "bool",
          "name": "",
          "type": "bool"
        }
      ],
      "stateMutability": "nonpayable",
      "type": "function"
    },
    {
      "inputs": [
        {
          "internalType": "address",
          "name": "newOwner",
          "type": "address"
        }
      ],
      "name": "transferOwnership",
      "outputs": [],
      "stateMutability": "nonpayable",
      "type": "function"
    },
    {
      "inputs": [],
      "name": "unregisterValidator",
      "outputs": [],
      "stateMutability": "nonpayable",
      "type": "function"
    },
    {
      "inputs": [
        {
          "internalType": "uint256",
          "name": "amount",
          "type": "uint256"
        }
      ],
      "name": "unstake",
      "outputs": [],
      "stateMutability": "nonpayable",
      "type": "function"
    },
    {
      "inputs": [
        {
          "internalType": "uint8",
          "name": "workType",
          "type": "uint8"
        },
        {
          "internalType": "bool",
          "name": "isActive",
          "type": "bool"
        }
      ],
      "name": "updateWorkType",
      "outputs": [],
      "stateMutability": "payable",
      "type": "function"
    },
    {
      "inputs": [
        {
          "internalType": "uint32",
          "name": "requestId",
          "type": "uint32"
        },
        {
          "internalType": "bool",
          "name": "isValid",
          "type": "bool"
        }
      ],
      "name": "validateDiscovery",
      "outputs": [],
      "stateMutability": "nonpayable",
      "type": "function"
    },
    {
      "inputs": [
        {
          "internalType": "uint32",
          "name": "",
          "type": "uint32"
        }
      ],
      "name": "validationRequests",
      "outputs": [
        {
          "internalType": "uint128",
          "name": "fee",
          "type": "uint128"
        },
        {
          "internalType": "uint64",
          "name": "requestTime",
          "type": "uint64"
        },
        {
          "internalType": "uint32",
          "name": "discoveryId",
          "type": "uint32"
        },
        {
          "internalType": "uint16",
          "name": "consensusCount",
          "type": "uint16"
        },
        {
          "internalType": "bool",
          "name": "isCompleted",
          "type": "bool"
        }
      ],
      "stateMutability": "view",
      "type": "function"
    },
    {
      "inputs": [
        {
          "internalType": "address",
          "name": "",
          "type": "address"
        }
      ],
      "name": "validators",
      "outputs": [
        {
          "internalType": "uint128",
          "name": "stakedAmount",
          "type": "uint128"
        },
        {
          "internalType": "uint64",
          "name": "totalValidations",
          "type": "uint64"
        },
        {
          "internalType": "uint32",
          "name": "reputation",
          "type": "uint32"
        },
        {
          "internalType": "uint32",
          "name": "registrationTime",
          "type": "uint32"
        },
        {
          "internalType": "bool",
          "name": "isActive",
          "type": "bool"
        }
      ],
      "stateMutability": "view",
      "type": "function"
    },
    {
      "inputs": [
        {
          "internalType": "uint8",
          "name": "",
          "type": "uint8"
        }
      ],
      "name": "workTypes",
      "outputs": [
        {
          "internalType": "uint16",
          "name": "difficultyMultiplier",
          "type": "uint16"
        },
        {
          "internalType": "uint16",
          "name": "baseReward",
          "type": "uint16"
        },
        {
          "internalType": "bool",
          "name": "isActive",
          "type": "bool"
        }
      ],
      "stateMutability": "view",
      "type": "function"
    }
  ],
  "bytecode": "0x608060408190526009805460ff1916601817905561422d3881900390819083398101604081905261002f916113cd565b604080518082018252600580825264135253915160da1b60208084018290528451808601909552918452908301528291600361006b838261149c565b506004610078828261149c565b5050506001600160a01b0381166100aa57604051631e4fbdf760e01b8152600060048201526024015b60405180910390fd5b6100b3816111fb565b506001600160a01b0381166100fb5760405162461bcd60e51b815260206004820152600e60248201526d24b73b30b634b2103437b63232b960911b60448201526064016100a1565b610111816b033b2e3c9fd0803ce8000000611217565b60088054700100000000000000000000000000000001600755600167ffffffff0000000160401b0319166001600160401b034316176c010000000000000000000000001790556111f5604051806060016040528061271061ffff1681526020016103e861ffff16815260200160011515815250601060008060ff16815260200190815260200160002060008201518160000160006101000a81548161ffff021916908361ffff16021790555060208201518160000160026101000a81548161ffff021916908361ffff16021790555060408201518160000160046101000a81548160ff0219169083151502179055509050506040518060600160405280611f4061ffff1681526020016102ee61ffff1681526020016001151581525060106000600160ff16815260200190815260200160002060008201518160000160006101000a81548161ffff021916908361ffff16021790555060208201518160000160026101000a81548161ffff021916908361ffff16021790555060408201518160000160046101000a81548160ff0219169083151502179055509050506040518060600160405280611f4061ffff1681526020016102bc61ffff1681526020016001151581525060106000600260ff16815260200190815260200160002060008201518160000160006101000a81548161ffff021916908361ffff16021790555060208201518160000160026101000a81548161ffff021916908361ffff16021790555060408201518160000160046101000a81548160ff021916908315150217905550905050604051806060016040528061177061ffff1681526020016101f461ffff1681526020016001151581525060106000600360ff16815260200190815260200160002060008201518160000160006101000a81548161ffff021916908361ffff16021790555060208201518160000160026101000a81548161ffff021916908361ffff16021790555060408201518160000160046101000a81548160ff0219169083151502179055509050506040518060600160405280611f4061ffff16815260200161028a61ffff1681526020016001151581525060106000600460ff16815260200190815260200160002060008201518160000160006101000a81548161ffff021916908361ffff16021790555060208201518160000160026101000a81548161ffff021916908361ffff16021790555060408201518160000160046101000a81548160ff021916908315150217905550905050604051806060016040528061177061ffff16815260200161025861ffff1681526020016001151581525060106000600560ff16815260200190815260200160002060008201518160000160006101000a81548161ffff021916908361ffff16021790555060208201518160000160026101000a81548161ffff021916908361ffff16021790555060408201518160000160046101000a81548160ff0219169083151502179055509050506040518060600160405280611f4061ffff1681526020016102d061ffff1681526020016001151581525060106000600660ff16815260200190815260200160002060008201518160000160006101000a81548161ffff021916908361ffff16021790555060208201518160000160026101000a81548161ffff021916908361ffff16021790555060408201518160000160046101000a81548160ff021916908315150217905550905050604051806060016040528061271061ffff1681526020016103e861ffff1681526020016001151581525060106000600760ff16815260200190815260200160002060008201518160000160006101000a81548161ffff021916908361ffff16021790555060208201518160000160026101000a81548161ffff021916908361ffff16021790555060408201518160000160046101000a81548160ff0219169083151502179055509050506040518060600160405280610fa061ffff1681526020016101c261ffff1681526020016001151581525060106000600860ff16815260200190815260200160002060008201518160000160006101000a81548161ffff021916908361ffff16021790555060208201518160000160026101000a81548161ffff021916908361ffff16021790555060408201518160000160046101000a81548160ff0219169083151502179055509050506040518060600160405280610fa061ffff16815260200161019061ffff1681526020016001151581525060106000600960ff16815260200190815260200160002060008201518160000160006101000a81548161ffff021916908361ffff16021790555060208201518160000160026101000a81548161ffff021916908361ffff16021790555060408201518160000160046101000a81548160ff0219169083151502179055509050506040518060600160405280611f4061ffff1681526020016102f861ffff1681526020016001151581525060106000600a60ff16815260200190815260200160002060008201518160000160006101000a81548161ffff021916908361ffff16021790555060208201518160000160026101000a81548161ffff021916908361ffff16021790555060408201518160000160046101000a81548160ff021916908315150217905550905050604051806060016040528061177061ffff16815260200161028061ffff1681526020016001151581525060106000600b60ff16815260200190815260200160002060008201518160000160006101000a81548161ffff021916908361ffff16021790555060208201518160000160026101000a81548161ffff021916908361ffff16021790555060408201518160000160046101000a81548160ff021916908315150217905550905050604051806060016040528061271061ffff16815260200161038461ffff1681526020016001151581525060106000600c60ff16815260200190815260200160002060008201518160000160006101000a81548161ffff021916908361ffff16021790555060208201518160000160026101000a81548161ffff021916908361ffff16021790555060408201518160000160046101000a81548160ff021916908315150217905550905050604051806060016040528061271061ffff16815260200161035261ffff1681526020016001151581525060106000600d60ff16815260200190815260200160002060008201518160000160006101000a81548161ffff021916908361ffff16021790555060208201518160000160026101000a81548161ffff021916908361ffff16021790555060408201518160000160046101000a81548160ff021916908315150217905550905050604051806060016040528061177061ffff16815260200161022661ffff1681526020016001151581525060106000600e60ff16815260200190815260200160002060008201518160000160006101000a81548161ffff021916908361ffff16021790555060208201518160000160026101000a81548161ffff021916908361ffff16021790555060408201518160000160046101000a81548160ff021916908315150217905550905050604051806060016040528061271061ffff16815260200161032061ffff1681526020016001151581525060106000600f60ff16815260200190815260200160002060008201518160000160006101000a81548161ffff021916908361ffff16021790555060208201518160000160026101000a81548161ffff021916908361ffff16021790555060408201518160000160046101000a81548160ff021916908315150217905550905050604051806060016040528061177061ffff1681526020016102a861ffff1681526020016001151581525060106000601060ff16815260200190815260200160002060008201518160000160006101000a81548161ffff021916908361ffff16021790555060208201518160000160026101000a81548161ffff021916908361ffff16021790555060408201518160000160046101000a81548160ff021916908315150217905550905050604051806060016040528061271061ffff1681526020016103b661ffff1681526020016001151581525060106000601160ff16815260200190815260200160002060008201518160000160006101000a81548161ffff021916908361ffff16021790555060208201518160000160026101000a81548161ffff021916908361ffff16021790555060408201518160000160046101000a81548160ff021916908315150217905550905050604051806060016040528061271061ffff16815260200161039861ffff1681526020016001151581525060106000601260ff16815260200190815260200160002060008201518160000160006101000a81548161ffff021916908361ffff16021790555060208201518160000160026101000a81548161ffff021916908361ffff16021790555060408201518160000160046101000a81548160ff021916908315150217905550905050604051806060016040528061177061ffff16815260200161023061ffff1681526020016001151581525060106000601360ff16815260200190815260200160002060008201518160000160006101000a81548161ffff021916908361ffff16021790555060208201518160000160026101000a81548161ffff021916908361ffff16021790555060408201518160000160046101000a81548160ff021916908315150217905550905050604051806060016040528061271061ffff16815260200161044c61ffff1681526020016001151581525060106000601460ff16815260200190815260200160002060008201518160000160006101000a81548161ffff021916908361ffff16021790555060208201518160000160026101000a81548161ffff021916908361ffff16021790555060408201518160000160046101000a81548160ff0219169083151502179055509050506040518060600160405280611f4061ffff16815260200161034861ffff1681526020016001151581525060106000601560ff16815260200190815260200160002060008201518160000160006101000a81548161ffff021916908361ffff16021790555060208201518160000160026101000a81548161ffff021916908361ffff16021790555060408201518160000160046101000a81548160ff021916908315150217905550905050604051806060016040528061177061ffff16815260200161025861ffff1681526020016001151581525060106000601660ff16815260200190815260200160002060008201518160000160006101000a81548161ffff021916908361ffff16021790555060208201518160000160026101000a81548161ffff021916908361ffff16021790555060408201518160000160046101000a81548160ff021916908315150217905550905050604051806060016040528061177061ffff16815260200161023061ffff1681526020016001151581525060106000601760ff16815260200190815260200160002060008201518160000160006101000a81548161ffff021916908361ffff16021790555060208201518160000160026101000a81548161ffff021916908361ffff16021790555060408201518160000160046101000a81548160ff0219169083151502179055509050506040518060600160405280611f4061ffff1681526020016102f861ffff1681526020016001151581525060106000601860ff16815260200190815260200160002060008201518160000160006101000a81548161ffff021916908361ffff16021790555060208201518160000160026101000a81548161ffff021916908361ffff16021790555060408201518160000160046101000a81548160ff021916908315150217905550905050565b50611581565b600680546001600160a01b031916905561121481611251565b50565b6001600160a01b0382166112415760405163ec442f0560e01b8152600060048201526024016100a1565b61124d600083836112a3565b5050565b600580546001600160a01b038381166001600160a01b0319831681179093556040519116919082907f8be0079c531659141344cd1fd0a4f28419497f9722a3daafe3b4186f6b6457e090600090a35050565b6001600160a01b0383166112ce5780600260008282546112c3919061155a565b909155506113409050565b6001600160a01b038316600090815260208190526040902054818110156113215760405163391434e360e21b81526001600160a01b038516600482015260248101829052604481018390526064016100a1565b6001600160a01b03841660009081526020819052604090209082900390555b6001600160a01b03821661135c5760028054829003905561137b565b6001600160a01b03821660009081526020819052604090208054820190555b816001600160a01b0316836001600160a01b03167fddf252ad1be2c89b69c2b068fc378daa952ba7f163c4a11628f55a4df523b3ef836040516113c091815260200190565b60405180910390a3505050565b6000602082840312156113df57600080fd5b81516001600160a01b03811681146113f657600080fd5b9392505050565b634e487b7160e01b600052604160045260246000fd5b600181811c9082168061142757607f821691505b60208210810361144757634e487b7160e01b600052602260045260246000fd5b50919050565b601f82111561149757806000526020600020601f840160051c810160208510156114745750805b601f840160051c820191505b818110156114945760008155600101611480565b50505b505050565b81516001600160401b038111156114b5576114b56113fd565b6114c9816114c38454611413565b8461144d565b6020601f8211600181146114fd57600083156114e55750848201515b600019600385901b1c1916600184901b178455611494565b600084815260208120601f198516915b8281101561152d578785015182556020948501946001909201910161150d565b508482101561154b5786840151600019600387901b60f8161c191681555b50505050600190811b01905550565b8082018082111561157b57634e487b7160e01b600052601160045260246000fd5b92915050565b612c9d806115906000396000f3fe6080604052600436106102305760003560e01c806379ba50971161012e578063cae0ab19116100ab578063dd62ed3e1161006f578063dd62ed3e146109e5578063e30c397814610a2b578063f0d7f28d14610a49578063f2fde38b14610a92578063fa52c7d814610ab257600080fd5b8063cae0ab19146107d9578063d0309ce8146108e8578063d2db833114610908578063d5679b871461091b578063d9800bae1461092e57600080fd5b8063a6057aa3116100f2578063a6057aa3146106bb578063a9059cbb146106f6578063aa8754e414610716578063bcc6587f1461072b578063c19d93fb1461074057600080fd5b806379ba5097146105a65780638a11d7c9146105bb5780638da5cb5b1461064757806394eecb501461067957806395d89b41146106a657600080fd5b80634039e6a1116101bc5780636e216bd6116101805780636e216bd6146104e65780636ee8e8541461051b57806370a082311461053b578063715018a6146105715780637547c7a31461058657600080fd5b80634039e6a11461037c57806341be555a146103a957806352bcb9f9146103c35780636ca56267146104945780636cb69f42146104a957600080fd5b80632dfa42c6116102035780632dfa42c6146102cf5780632e17de78146102e45780632fb0d5b514610304578063313ce567146103475780633e4208ef1461036957600080fd5b806306fdde0314610235578063095ea7b31461026057806318160ddd1461029057806323b872dd146102af575b600080fd5b34801561024157600080fd5b5061024a610b62565b6040516102579190612745565b60405180910390f35b34801561026c57600080fd5b5061028061027b366004612794565b610bf4565b6040519015158152602001610257565b34801561029c57600080fd5b506002545b604051908152602001610257565b3480156102bb57600080fd5b506102806102ca3660046127be565b610c0e565b6102e26102dd3660046127fb565b610c32565b005b3480156102f057600080fd5b506102e26102ff36600461281d565b610d10565b34801561031057600080fd5b5061032461031f366004612847565b610e1a565b6040805161ffff9485168152939092166020840152151590820152606001610257565b34801561035357600080fd5b5060125b60405160ff9091168152602001610257565b6102e2610377366004612794565b610e8d565b34801561038857600080fd5b506102a16103973660046127fb565b600e6020526000908152604090205481565b3480156103b557600080fd5b506009546103579060ff1681565b3480156103cf57600080fd5b5061044c6103de366004612876565b63ffffffff9081166000908152600b60205260409020600181015490546001600160a01b0382169360ff600160f81b830481169461ffff600160e01b85041694600160f01b85048316946001600160801b03811694600160a01b90920490931692600160c01b900490911690565b604080516001600160a01b03909816885260ff968716602089015294861694870194909452939091166060850152608084015290151560a083015260c082015260e001610257565b3480156104a057600080fd5b506102e261112f565b3480156104b557600080fd5b506104be61120b565b604080519586526020860194909452928401919091526060830152608082015260a001610257565b3480156104f257600080fd5b506105066105013660046128a1565b61129b565b60405163ffffffff9091168152602001610257565b34801561052757600080fd5b506105066105363660046128ff565b611673565b34801561054757600080fd5b506102a16105563660046127fb565b6001600160a01b031660009081526020819052604090205490565b34801561057d57600080fd5b506102e2611820565b34801561059257600080fd5b506102e26105a136600461281d565b611834565b3480156105b257600080fd5b506102e26118df565b3480156105c757600080fd5b506106256105d63660046127fb565b6001600160a01b03166000908152600a6020526040902080546001909101546001600160801b03821692600160801b83046001600160401b031692600160c01b900463ffffffff169160ff1690565b6040805194855260208501939093529183015215156060820152608001610257565b34801561065357600080fd5b506005546001600160a01b03165b6040516001600160a01b039091168152602001610257565b34801561068557600080fd5b506102a16106943660046127fb565b600d6020526000908152604090205481565b3480156106b257600080fd5b5061024a611923565b3480156106c757600080fd5b506102806106d636600461291b565b600f60209081526000928352604080842090915290825290205460ff1681565b34801561070257600080fd5b50610280610711366004612794565b611932565b34801561072257600080fd5b506102a1611940565b34801561073757600080fd5b506102e2611a09565b34801561074c57600080fd5b50600754600854610792916001600160801b0380821692600160801b90920416906001600160401b0381169063ffffffff600160401b8204811691600160601b90041685565b604080516001600160801b0396871681529590941660208601526001600160401b039092169284019290925263ffffffff918216606084015216608082015260a001610257565b3480156107e557600080fd5b506108766107f4366004612876565b600b60205260009081526040902080546001909101546001600160801b038216916001600160401b03600160801b8204169163ffffffff600160c01b8304169161ffff600160e01b8204169160ff600160f01b8304811692600160f81b90048116916001600160a01b03811691600160a01b8204811691600160a81b90041689565b604080516001600160801b03909a168a526001600160401b0390981660208a015263ffffffff9096169688019690965261ffff909316606087015260ff91821660808701521660a08501526001600160a01b031660c084015290151560e0830152151561010082015261012001610257565b3480156108f457600080fd5b506102e261090336600461294e565b611b67565b6102e261091636600461298a565b611ed6565b6102e26109293660046129cd565b611ff4565b34801561093a57600080fd5b5061099b610949366004612876565b600c602052600090815260409020546001600160801b03811690600160801b81046001600160401b031690600160c01b810463ffffffff1690600160e01b810461ffff1690600160f01b900460ff1685565b604080516001600160801b0390961686526001600160401b03909416602086015263ffffffff9092169284019290925261ffff90911660608301521515608082015260a001610257565b3480156109f157600080fd5b506102a1610a003660046129e9565b6001600160a01b03918216600090815260016020908152604080832093909416825291909152205490565b348015610a3757600080fd5b506006546001600160a01b0316610661565b348015610a5557600080fd5b50610324610a64366004612847565b60106020526000908152604090205461ffff8082169162010000810490911690640100000000900460ff1683565b348015610a9e57600080fd5b506102e2610aad3660046127fb565b6120b2565b348015610abe57600080fd5b50610b1d610acd3660046127fb565b600a60205260009081526040902080546001909101546001600160801b038216916001600160401b03600160801b8204169163ffffffff600160c01b8304811692600160e01b9004169060ff1685565b604080516001600160801b0390961686526001600160401b03909416602086015263ffffffff928316938501939093521660608301521515608082015260a001610257565b606060038054610b7190612a05565b80601f0160208091040260200160405190810160405280929190818152602001828054610b9d90612a05565b8015610bea5780601f10610bbf57610100808354040283529160200191610bea565b820191906000526020600020905b815481529060010190602001808311610bcd57829003601f168201915b5050505050905090565b600033610c02818585612123565b60019150505b92915050565b600033610c1c858285612130565b610c278585856121af565b506001949350505050565b610c3a61220e565b6001600160a01b038116610c875760405162461bcd60e51b815260206004820152600f60248201526e496e76616c6964206164647265737360881b60448201526064015b60405180910390fd5b6000610c91611940565b90508015610d0c57610ca3828261223b565b610cab612271565b6008805467ffffffffffffffff19166001600160401b03929092169190911790556040518181526001600160a01b038316907fe01716fc731e770785d4ac2239649e9f82a5b9894500cb1c84606abdeeb4048b906020015b60405180910390a25b5050565b80600003610d305760405162461bcd60e51b8152600401610c7e90612a3f565b610d3b600182612a7a565b336000908152600d602052604090205411610d8e5760405162461bcd60e51b8152602060048201526013602482015272125b9cdd59999a58da595b9d081cdd185ad959606a1b6044820152606401610c7e565b336000908152600d60205260408120805483900390556064610db1836008612a8d565b610dbb9190612aba565b905030610dc98133856121af565b8115610dd957610dd9338361223b565b604080518481526020810184905233917f6f2d3e000c89d37446b7c0374c0125068ff316d1e3ee302336478a8cd03c233691015b60405180910390a2505050565b60095460009081908190610e329060ff166001612ace565b60ff168460ff1610610e565760405162461bcd60e51b8152600401610c7e90612ae7565b50505060ff90811660009081526010602052604090205461ffff808216936201000083049091169264010000000090920490911690565b610e9561220e565b6001600160a01b038216610edf5760405162461bcd60e51b815260206004820152601160248201527024b73b30b634b2103b30b634b230ba37b960791b6044820152606401610c7e565b6001600160a01b0382166000908152600a60205260409020600181015460ff16610f385760405162461bcd60e51b815260206004820152600a6024820152694e6f742061637469766560b01b6044820152606401610c7e565b81600003610f585760405162461bcd60e51b8152600401610c7e90612a3f565b8054610f6e906001600160801b03166001612b12565b6001600160801b03168210610fb75760405162461bcd60e51b815260206004820152600f60248201526e082dadeeadce840e8dede40d0d2ced608b1b6044820152606401610c7e565b30610fc2818461232b565b600780546001600160801b03198082166001600160801b039283168701831617909255835491821691811685900316178083556064600160c01b90910463ffffffff161015611012576000611026565b8154600160c01b900463ffffffff16606319015b825463ffffffff91909116600160c01b0263ffffffff60c01b1990911617825561105b600169043c33c1937564800000612a7a565b82546001600160801b0316116110a35760018201805460ff191690556008805460001963ffffffff600160401b808404821692909201160263ffffffff60401b199091161790555b836001600160a01b03167f17bddadfd7ec8898c3b9eadd0cf5ae77ba8d5df3a50e96ab86ec2dd711aa8fbb846040516110de91815260200190565b60405180910390a2806001600160a01b03167ffd38818f5291bf0bb3a2a48aadc06ba8757865d1dabd804585338aab3009dcb68460405161112191815260200190565b60405180910390a250505050565b336000908152600a60205260409020600181015460ff166111835760405162461bcd60e51b815260206004820152600e60248201526d139bdd081c9959da5cdd195c995960921b6044820152606401610c7e565b80546001600160801b03163061119a8133846121af565b336000818152600a6020526040808220828155600101805460ff1916905560088054600160401b80820463ffffffff90811660001901160263ffffffff60401b19909116179055517f182459ce960ec1c3689f209ad11c4d033c4133fd0f9653ee36f58b30359f3d989190a2505050565b60075460009081908190819081906001600160801b0380821691600160801b90041661123660025490565b82600103611245576000611250565b611250600184612a7a565b8260010361125f57600061126a565b61126a600184612a7a565b600854600160401b900463ffffffff16611282611940565b939b929a5090985063ffffffff16965090945092505050565b6009546000906112af9060ff166001612ace565b60ff168660ff16106112d35760405162461bcd60e51b8152600401610c7e90612ae7565b60ff8087166000908152601060205260409020546401000000009004166113315760405162461bcd60e51b8152602060048201526012602482015271576f726b207479706520696e61637469766560701b6044820152606401610c7e565b8460ff166000036113765760405162461bcd60e51b815260206004820152600f60248201526e5a65726f20636f6d706c657869747960881b6044820152606401610c7e565b600b8560ff16106113bf5760405162461bcd60e51b8152602060048201526013602482015272086dedae0d8caf0d2e8f240e8dede40d0d2ced606b1b6044820152606401610c7e565b8360ff166000036114065760405162461bcd60e51b81526020600482015260116024820152705a65726f207369676e69666963616e636560781b6044820152606401610c7e565b60048460ff16106114515760405162461bcd60e51b81526020600482015260156024820152740a6d2cedcd2ccd2c6c2dcc6ca40e8dede40d0d2ced605b1b6044820152606401610c7e565b826000036114975760405162461bcd60e51b81526020600482015260136024820152725a65726f2072657365617263682076616c756560681b6044820152606401610c7e565b60088054600091600160601b90910463ffffffff1690600c6114b883612b31565b82546101009290920a63ffffffff81810219909316918316021790915581166000908152600b6020526040812080546001600160801b0388166001600160c01b031990911617600160801b426001600160401b0316021766ffffffffffffff60c01b191660ff8a8116600160e01b0260ff60f01b191691909117600160f01b8a831602176001600160f81b0316600160f81b918c16919091021781556001810180546001600160b01b0319163361ffff60a01b191617600160a81b8815150217905591925061158a8989898989612361565b90506000611599888784612457565b90506115ae336115a98385612a7a565b61223b565b80156115e0576115be338261232b565b600780546001600160801b038082168401166001600160801b03199091161790555b600780546001600160801b03600160801b80830482168b018216029116179055336000818152600e60205260409081902080548a0190555163ffffffff8616907fc67d5f3d7a8017932de757b3250e0d313308a465ee6a08f238f95d15e183cd2b9061165d908e908c9060ff929092168252602082015260400190565b60405180910390a3509198975050505050505050565b63ffffffff82166000908152600b60205260408120600101546001600160a01b03166116d75760405162461bcd60e51b8152602060048201526013602482015272111a5cd8dbdd995c9e481b9bdd08199bdd5b99606a1b6044820152606401610c7e565b670de0b6b3a763ffff821161171c5760405162461bcd60e51b815260206004820152600b60248201526a46656520746f6f206c6f7760a81b6044820152606401610c7e565b611727600183612a7a565b33600090815260208190526040902054116117545760405162461bcd60e51b8152600401610c7e90612b56565b61175e338361232b565b600780546001600160801b031981166001600160801b0391821685018216179091554263ffffffff8181166000818152600c602090815260409182902080549689166001600160c01b031990971696909617600160801b6001600160401b038716021766ffffffffffffff60c01b1916600160c01b948a1694850262ffffff60e01b191617865590518781529394937f46094114a19ed3c8531f70b38dd5bc2c816f0a38ac75fcf42eaebe37394e5f44910160405180910390a3509392505050565b61182861220e565b61183260006124b7565b565b806000036118545760405162461bcd60e51b8152600401610c7e90612a3f565b61185f600182612a7a565b336000908152602081905260409020541161188c5760405162461bcd60e51b8152600401610c7e90612b56565b306118983382846121af565b336000818152600d602052604090819020805485019055517fb539ca1e5c8d398ddf1c41c30166f33404941683be4683319b57669a93dad4ef90610d039085815260200190565b60065433906001600160a01b031681146119175760405163118cdaa760e01b81526001600160a01b0382166004820152602401610c7e565b611920816124b7565b50565b606060048054610b7190612a05565b600033610c028185856121af565b6008546007546000916001600160401b031690600160801b90046001600160801b03168261196c612271565b9050600061197a8483612a7a565b905060006127108210156119995761199482612710612a7a565b61199c565b60015b90506000846001036119af5760006119ba565b6119ba600186612a7a565b905060006119ce600f83901c612710612b84565b90506305f5e100816119e985683635c9adc5dea00000612a8d565b6119f39190612a8d565b6119fd9190612aba565b97505050505050505090565b69043c33c1937564800000611a1f600182612a7a565b3360009081526020819052604090205411611a4c5760405162461bcd60e51b8152600401610c7e90612b56565b336000908152600a602052604090206001015460ff1615611aa45760405162461bcd60e51b8152602060048201526012602482015271105b1c9958591e481c9959da5cdd195c995960721b6044820152606401610c7e565b30611ab03382846121af565b336000818152600a602090815260409182902080546001600160801b0387166001600160e01b031990911617607d60c31b176001600160e01b0316600160e01b63ffffffff428116919091029190911782556001808301805460ff1916821790556008805463ffffffff60401b198116600160401b91829004851690930190931690920217905591518581529192917fb4a7f5c563a0e35593d156394ed681bdc9c39467d7d722749d23862c2e4b712c9101610e0d565b336000908152600a602052604090206001015460ff16611bb95760405162461bcd60e51b815260206004820152600d60248201526c2737ba103b30b634b230ba37b960991b6044820152606401610c7e565b63ffffffff82166000908152600f6020908152604080832033845290915290205460ff1615611c1e5760405162461bcd60e51b8152602060048201526011602482015270105b1c9958591e481d985b1a59185d1959607a1b6044820152606401610c7e565b63ffffffff82166000908152600c602052604090208054600160f01b900460ff1615611c805760405162461bcd60e51b815260206004820152601160248201527014995c5d595cdd0818dbdb5c1b195d1959607a1b6044820152606401610c7e565b805463ffffffff600160c01b90910481166000908152600b602090815260408083209387168352600f82528083203384529091529020805460ff191660011790558215611d2f578154600161ffff600160e01b808404821683019091160261ffff60e01b19909216919091178355336000908152600a6020526040902080546001600160401b03600160801b80830482169094011690920267ffffffffffffffff60801b199092169190911790555b600854600090611d5290600390600160401b900460011b6401fffffffe16612b97565b611d5d906001612bbf565b835463ffffffff919091169150600160e01b900461ffff168111611e7d57825460ff60f01b1916600160f01b17835560018201805460ff60a01b1916600160a01b17905582548254600160c01b61ffff600160e01b9384900481169190910263ffffffff60c01b1983168117808755600094611dec949104909216916001600160801b03918216911617612bdb565b84546040516001600160801b03929092168083529250600160c01b900463ffffffff16907f772d7d36d4ae5029fc86a865337ab672ded648d69a15c0f0eb42b0977f1a39339060200160405180910390a2835460009061271090611e5b906001600160801b03166101f4612bdb565b611e659190612c04565b6001600160801b03169050611e7a338261223b565b50505b8254604051600160e01b820461ffff1683111581523391600160c01b900463ffffffff16907ff82009e2f1784e2a74f5e1659f7e34826f709862a85c2fedcec476305a7d70239060200160405180910390a35050505050565b611ede61220e565b60095460ff90811690841611611f065760405162461bcd60e51b8152600401610c7e90612ae7565b8161ffff16600003611f4c5760405162461bcd60e51b815260206004820152600f60248201526e2d32b9379036bab63a34b83634b2b960891b6044820152606401610c7e565b6040805160608101825261ffff80851682528381166020808401918252600184860190815260ff891660008181526010909352868320955186549451925115156401000000000264ff0000000019938716620100000263ffffffff1990961691909616179390931716929092179092556009805460ff191683179055915190917fbe1b817fe2fa997b8704fa8030600570f2b4cf487f9d088a3a50a4ff75b6bed191a2505050565b611ffc61220e565b60095461200d9060ff166001612ace565b60ff168260ff16106120315760405162461bcd60e51b8152600401610c7e90612ae7565b60ff808316600090815260106020526040902080549091640100000000909104161515821515146120ad57805464ff00000000191664010000000083151590810291909117825560405190815260ff8416907f830adee8723a544828deee47ba52f96b92ebda81b138a856785b3750f1de1a6e90602001610e0d565b505050565b6120ba61220e565b600680546001600160a01b0383166001600160a01b031990911681179091556120eb6005546001600160a01b031690565b6001600160a01b03167f38d16b8cac22d99fc7c124b9cd0de2d3fa1faef420bfe791d8c362d765e2270060405160405180910390a350565b6120ad83838360016124d0565b6001600160a01b038381166000908152600160209081526040808320938616835292905220546000198110156121a9578181101561219a57604051637dc7a0d960e11b81526001600160a01b03841660048201526024810182905260448101839052606401610c7e565b6121a9848484840360006124d0565b50505050565b6001600160a01b0383166121d957604051634b637e8f60e11b815260006004820152602401610c7e565b6001600160a01b0382166122035760405163ec442f0560e01b815260006004820152602401610c7e565b6120ad8383836125a5565b6005546001600160a01b031633146118325760405163118cdaa760e01b8152336004820152602401610c7e565b6001600160a01b0382166122655760405163ec442f0560e01b815260006004820152602401610c7e565b610d0c600083836125a5565b60408051600481526024810182526020810180516001600160e01b031663a3b1b31d60e01b1790529051600091829182916064916122af9190612c32565b600060405180830381855afa9150503d80600081146122ea576040519150601f19603f3d011682016040523d82523d6000602084013e6122ef565b606091505b509150915081801561230357506020815110155b15612323578080602001905181019061231c9190612c4e565b9250505090565b439250505090565b6001600160a01b03821661235557604051634b637e8f60e11b815260006004820152602401610c7e565b610d0c826000836125a5565b60ff851660009081526010602052604081208054829061ffff1681036123c55760038760ff1611156123bd5760068760ff1611156123b55760088760ff1611156123ad576127106123cc565b6113886123cc565b6109c46123cc565b6103e86123cc565b815461ffff165b61ffff16905060008660ff16600314612407578660ff166002146123ff57846123f7576103e861240b565b610bb861240b565b613a9861240b565b6161a85b61ffff16905064e8d4a51000868261242c85683635c9adc5dea00000612a8d565b6124369190612a8d565b6124409190612a8d565b61244a9190612aba565b9998505050505050505050565b6000808460ff1660031461248d578460ff16600214612485578361247d576103e8612491565b6104b0612491565b6105dc612491565b6109c45b61ffff1690506127106124a48285612a8d565b6124ae9190612aba565b95945050505050565b600680546001600160a01b0319169055611920816126cf565b6001600160a01b0384166124fa5760405163e602df0560e01b815260006004820152602401610c7e565b6001600160a01b03831661252457604051634a1406b160e11b815260006004820152602401610c7e565b6001600160a01b03808516600090815260016020908152604080832093871683529290522082905580156121a957826001600160a01b0316846001600160a01b03167f8c5be1e5ebec7d5bd14f71427d1e84f3dd0314c0f7b2291e5b200ac8c7c3b9258460405161259791815260200190565b60405180910390a350505050565b6001600160a01b0383166125d05780600260008282546125c59190612b84565b909155506126429050565b6001600160a01b038316600090815260208190526040902054818110156126235760405163391434e360e21b81526001600160a01b03851660048201526024810182905260448101839052606401610c7e565b6001600160a01b03841660009081526020819052604090209082900390555b6001600160a01b03821661265e5760028054829003905561267d565b6001600160a01b03821660009081526020819052604090208054820190555b816001600160a01b0316836001600160a01b03167fddf252ad1be2c89b69c2b068fc378daa952ba7f163c4a11628f55a4df523b3ef836040516126c291815260200190565b60405180910390a3505050565b600580546001600160a01b038381166001600160a01b0319831681179093556040519116919082907f8be0079c531659141344cd1fd0a4f28419497f9722a3daafe3b4186f6b6457e090600090a35050565b60005b8381101561273c578181015183820152602001612724565b50506000910152565b6020815260008251806020840152612764816040850160208701612721565b601f01601f19169190910160400192915050565b80356001600160a01b038116811461278f57600080fd5b919050565b600080604083850312156127a757600080fd5b6127b083612778565b946020939093013593505050565b6000806000606084860312156127d357600080fd5b6127dc84612778565b92506127ea60208501612778565b929592945050506040919091013590565b60006020828403121561280d57600080fd5b61281682612778565b9392505050565b60006020828403121561282f57600080fd5b5035919050565b803560ff8116811461278f57600080fd5b60006020828403121561285957600080fd5b61281682612836565b803563ffffffff8116811461278f57600080fd5b60006020828403121561288857600080fd5b61281682612862565b8035801515811461278f57600080fd5b600080600080600060a086880312156128b957600080fd5b6128c286612836565b94506128d060208701612836565b93506128de60408701612836565b9250606086013591506128f360808701612891565b90509295509295909350565b6000806040838503121561291257600080fd5b6127b083612862565b6000806040838503121561292e57600080fd5b61293783612862565b915061294560208401612778565b90509250929050565b6000806040838503121561296157600080fd5b61296a83612862565b915061294560208401612891565b803561ffff8116811461278f57600080fd5b60008060006060848603121561299f57600080fd5b6129a884612836565b92506129b660208501612978565b91506129c460408501612978565b90509250925092565b600080604083850312156129e057600080fd5b61296a83612836565b600080604083850312156129fc57600080fd5b61293783612778565b600181811c90821680612a1957607f821691505b602082108103612a3957634e487b7160e01b600052602260045260246000fd5b50919050565b6020808252600b908201526a16995c9bc8185b5bdd5b9d60aa1b604082015260600190565b634e487b7160e01b600052601160045260246000fd5b81810381811115610c0857610c08612a64565b8082028115828204841417610c0857610c08612a64565b634e487b7160e01b600052601260045260246000fd5b600082612ac957612ac9612aa4565b500490565b60ff8181168382160190811115610c0857610c08612a64565b602080825260119082015270496e76616c696420776f726b207479706560781b604082015260600190565b6001600160801b038181168382160190811115610c0857610c08612a64565b600063ffffffff821663ffffffff8103612b4d57612b4d612a64565b60010192915050565b602080825260149082015273496e73756666696369656e742062616c616e636560601b604082015260600190565b80820180821115610c0857610c08612a64565b600063ffffffff831680612bad57612bad612aa4565b8063ffffffff84160491505092915050565b63ffffffff8181168382160190811115610c0857610c08612a64565b6001600160801b038181168382160290811690818114612bfd57612bfd612a64565b5092915050565b60006001600160801b03831680612c1d57612c1d612aa4565b806001600160801b0384160491505092915050565b60008251612c44818460208701612721565b9190910192915050565b600060208284031215612c6057600080fd5b505191905056fea264697066735822122043dc073699c33e9830d42eb94602d3600ea0812754ab9ceae21b631a04b2bcff64736f6c634300081e0033",
  "linkReferences": {},
  "deployedLinkReferences": {}
}