{
  "_format": "hh-sol-artifact-1",
  "contractName": "MINEDTokenAsymptoticEnhanced",
  "sourceName": "contracts/MINEDTokenAsymptoticEnhanced.sol",
  "abi": [
    {
      "inputs": [
        {
          "internalType": "address",
          "name": "_initialHolder",
          "type": "address"
        },
        {
          "internalType": "address",
          "name": "_miningRewardsPool",
          "type": "address"
        },
        {
          "internalType": "address",
          "name": "_stakingRewardsPool",
          "type": "address"
        },
        {
          "internalType": "address",
          "name": "_researchFund",
          "type": "address"
        },
        {
          "internalType": "address",
          "name": "_treasury",
          "type": "address"
        },
        {
          "internalType": "address",
          "name": "_productiveMiner",
          "type": "address"
        }
      ],
      "stateMutability": "nonpayable",
      "type": "constructor"
    },
    {
      "inputs": [
        {
          "internalType": "address",
          "name": "spender",
          "type": "address"
        },
        {
          "internalType": "uint256",
          "name": "allowance",
          "type": "uint256"
        },
        {
          "internalType": "uint256",
          "name": "needed",
          "type": "uint256"
        }
      ],
      "name": "ERC20InsufficientAllowance",
      "type": "error"
    },
    {
      "inputs": [
        {
          "internalType": "address",
          "name": "sender",
          "type": "address"
        },
        {
          "internalType": "uint256",
          "name": "balance",
          "type": "uint256"
        },
        {
          "internalType": "uint256",
          "name": "needed",
          "type": "uint256"
        }
      ],
      "name": "ERC20InsufficientBalance",
      "type": "error"
    },
    {
      "inputs": [
        {
          "internalType": "address",
          "name": "approver",
          "type": "address"
        }
      ],
      "name": "ERC20InvalidApprover",
      "type": "error"
    },
    {
      "inputs": [
        {
          "internalType": "address",
          "name": "receiver",
          "type": "address"
        }
      ],
      "name": "ERC20InvalidReceiver",
      "type": "error"
    },
    {
      "inputs": [
        {
          "internalType": "address",
          "name": "sender",
          "type": "address"
        }
      ],
      "name": "ERC20InvalidSender",
      "type": "error"
    },
    {
      "inputs": [
        {
          "internalType": "address",
          "name": "spender",
          "type": "address"
        }
      ],
      "name": "ERC20InvalidSpender",
      "type": "error"
    },
    {
      "inputs": [],
      "name": "EnforcedPause",
      "type": "error"
    },
    {
      "inputs": [],
      "name": "ExpectedPause",
      "type": "error"
    },
    {
      "inputs": [
        {
          "internalType": "address",
          "name": "owner",
          "type": "address"
        }
      ],
      "name": "OwnableInvalidOwner",
      "type": "error"
    },
    {
      "inputs": [
        {
          "internalType": "address",
          "name": "account",
          "type": "address"
        }
      ],
      "name": "OwnableUnauthorizedAccount",
      "type": "error"
    },
    {
      "inputs": [],
      "name": "ReentrancyGuardReentrantCall",
      "type": "error"
    },
    {
      "anonymous": false,
      "inputs": [
        {
          "indexed": true,
          "internalType": "address",
          "name": "owner",
          "type": "address"
        },
        {
          "indexed": true,
          "internalType": "address",
          "name": "spender",
          "type": "address"
        },
        {
          "indexed": false,
          "internalType": "uint256",
          "name": "value",
          "type": "uint256"
        }
      ],
      "name": "Approval",
      "type": "event"
    },
    {
      "anonymous": false,
      "inputs": [
        {
          "indexed": false,
          "internalType": "uint256",
          "name": "blockHeight",
          "type": "uint256"
        },
        {
          "indexed": false,
          "internalType": "uint256",
          "name": "emission",
          "type": "uint256"
        },
        {
          "indexed": false,
          "internalType": "uint256",
          "name": "researchValue",
          "type": "uint256"
        },
        {
          "indexed": false,
          "internalType": "uint256",
          "name": "multiplier",
          "type": "uint256"
        }
      ],
      "name": "AsymptoticEmission",
      "type": "event"
    },
    {
      "anonymous": false,
      "inputs": [
        {
          "indexed": true,
          "internalType": "address",
          "name": "to",
          "type": "address"
        },
        {
          "indexed": false,
          "internalType": "uint256",
          "name": "amount",
          "type": "uint256"
        },
        {
          "indexed": false,
          "internalType": "uint256",
          "name": "blockHeight",
          "type": "uint256"
        }
      ],
      "name": "MiningRewardsMinted",
      "type": "event"
    },
    {
      "anonymous": false,
      "inputs": [
        {
          "indexed": true,
          "internalType": "address",
          "name": "minter",
          "type": "address"
        }
      ],
      "name": "MinterAdded",
      "type": "event"
    },
    {
      "anonymous": false,
      "inputs": [
        {
          "indexed": true,
          "internalType": "address",
          "name": "minter",
          "type": "address"
        }
      ],
      "name": "MinterRemoved",
      "type": "event"
    },
    {
      "anonymous": false,
      "inputs": [
        {
          "indexed": true,
          "internalType": "address",
          "name": "previousOwner",
          "type": "address"
        },
        {
          "indexed": true,
          "internalType": "address",
          "name": "newOwner",
          "type": "address"
        }
      ],
      "name": "OwnershipTransferred",
      "type": "event"
    },
    {
      "anonymous": false,
      "inputs": [
        {
          "indexed": false,
          "internalType": "address",
          "name": "account",
          "type": "address"
        }
      ],
      "name": "Paused",
      "type": "event"
    },
    {
      "anonymous": false,
      "inputs": [
        {
          "indexed": true,
          "internalType": "address",
          "name": "to",
          "type": "address"
        },
        {
          "indexed": false,
          "internalType": "uint256",
          "name": "amount",
          "type": "uint256"
        },
        {
          "indexed": false,
          "internalType": "uint256",
          "name": "blockHeight",
          "type": "uint256"
        }
      ],
      "name": "ResearchRewardsMinted",
      "type": "event"
    },
    {
      "anonymous": false,
      "inputs": [
        {
          "indexed": false,
          "internalType": "uint256",
          "name": "blockHeight",
          "type": "uint256"
        },
        {
          "indexed": true,
          "internalType": "address",
          "name": "contributor",
          "type": "address"
        },
        {
          "indexed": false,
          "internalType": "uint256",
          "name": "researchValue",
          "type": "uint256"
        }
      ],
      "name": "ResearchValueAdded",
      "type": "event"
    },
    {
      "anonymous": false,
      "inputs": [
        {
          "indexed": true,
          "internalType": "address",
          "name": "to",
          "type": "address"
        },
        {
          "indexed": false,
          "internalType": "uint256",
          "name": "amount",
          "type": "uint256"
        },
        {
          "indexed": false,
          "internalType": "uint256",
          "name": "blockHeight",
          "type": "uint256"
        }
      ],
      "name": "StakingRewardsMinted",
      "type": "event"
    },
    {
      "anonymous": false,
      "inputs": [
        {
          "indexed": true,
          "internalType": "address",
          "name": "from",
          "type": "address"
        },
        {
          "indexed": true,
          "internalType": "address",
          "name": "to",
          "type": "address"
        },
        {
          "indexed": false,
          "internalType": "uint256",
          "name": "value",
          "type": "uint256"
        }
      ],
      "name": "Transfer",
      "type": "event"
    },
    {
      "anonymous": false,
      "inputs": [
        {
          "indexed": true,
          "internalType": "address",
          "name": "to",
          "type": "address"
        },
        {
          "indexed": false,
          "internalType": "uint256",
          "name": "amount",
          "type": "uint256"
        },
        {
          "indexed": false,
          "internalType": "uint256",
          "name": "blockHeight",
          "type": "uint256"
        }
      ],
      "name": "TreasuryMinted",
      "type": "event"
    },
    {
      "anonymous": false,
      "inputs": [
        {
          "indexed": false,
          "internalType": "address",
          "name": "account",
          "type": "address"
        }
      ],
      "name": "Unpaused",
      "type": "event"
    },
    {
      "inputs": [],
      "name": "DECAY_CONSTANT",
      "outputs": [
        {
          "internalType": "uint256",
          "name": "",
          "type": "uint256"
        }
      ],
      "stateMutability": "view",
      "type": "function"
    },
    {
      "inputs": [],
      "name": "DECAY_SCALE",
      "outputs": [
        {
          "internalType": "uint256",
          "name": "",
          "type": "uint256"
        }
      ],
      "stateMutability": "view",
      "type": "function"
    },
    {
      "inputs": [],
      "name": "INITIAL_EMISSION_RATE",
      "outputs": [
        {
          "internalType": "uint256",
          "name": "",
          "type": "uint256"
        }
      ],
      "stateMutability": "view",
      "type": "function"
    },
    {
      "inputs": [],
      "name": "RESEARCH_MULTIPLIER_BASE",
      "outputs": [
        {
          "internalType": "uint256",
          "name": "",
          "type": "uint256"
        }
      ],
      "stateMutability": "view",
      "type": "function"
    },
    {
      "inputs": [],
      "name": "RESEARCH_SCALE",
      "outputs": [
        {
          "internalType": "uint256",
          "name": "",
          "type": "uint256"
        }
      ],
      "stateMutability": "view",
      "type": "function"
    },
    {
      "inputs": [],
      "name": "SOFT_CAP",
      "outputs": [
        {
          "internalType": "uint256",
          "name": "",
          "type": "uint256"
        }
      ],
      "stateMutability": "view",
      "type": "function"
    },
    {
      "inputs": [
        {
          "internalType": "address",
          "name": "_minter",
          "type": "address"
        }
      ],
      "name": "addMinter",
      "outputs": [],
      "stateMutability": "nonpayable",
      "type": "function"
    },
    {
      "inputs": [
        {
          "internalType": "uint256",
          "name": "_blockHeight",
          "type": "uint256"
        },
        {
          "internalType": "uint256",
          "name": "_researchValue",
          "type": "uint256"
        },
        {
          "internalType": "address",
          "name": "_contributor",
          "type": "address"
        }
      ],
      "name": "addResearchValue",
      "outputs": [],
      "stateMutability": "nonpayable",
      "type": "function"
    },
    {
      "inputs": [
        {
          "internalType": "address",
          "name": "owner",
          "type": "address"
        },
        {
          "internalType": "address",
          "name": "spender",
          "type": "address"
        }
      ],
      "name": "allowance",
      "outputs": [
        {
          "internalType": "uint256",
          "name": "",
          "type": "uint256"
        }
      ],
      "stateMutability": "view",
      "type": "function"
    },
    {
      "inputs": [
        {
          "internalType": "address",
          "name": "spender",
          "type": "address"
        },
        {
          "internalType": "uint256",
          "name": "value",
          "type": "uint256"
        }
      ],
      "name": "approve",
      "outputs": [
        {
          "internalType": "bool",
          "name": "",
          "type": "bool"
        }
      ],
      "stateMutability": "nonpayable",
      "type": "function"
    },
    {
      "inputs": [
        {
          "internalType": "address",
          "name": "account",
          "type": "address"
        }
      ],
      "name": "balanceOf",
      "outputs": [
        {
          "internalType": "uint256",
          "name": "",
          "type": "uint256"
        }
      ],
      "stateMutability": "view",
      "type": "function"
    },
    {
      "inputs": [
        {
          "internalType": "uint256",
          "name": "",
          "type": "uint256"
        }
      ],
      "name": "blockResearchValue",
      "outputs": [
        {
          "internalType": "uint256",
          "name": "",
          "type": "uint256"
        }
      ],
      "stateMutability": "view",
      "type": "function"
    },
    {
      "inputs": [
        {
          "internalType": "uint256",
          "name": "value",
          "type": "uint256"
        }
      ],
      "name": "burn",
      "outputs": [],
      "stateMutability": "nonpayable",
      "type": "function"
    },
    {
      "inputs": [
        {
          "internalType": "address",
          "name": "account",
          "type": "address"
        },
        {
          "internalType": "uint256",
          "name": "value",
          "type": "uint256"
        }
      ],
      "name": "burnFrom",
      "outputs": [],
      "stateMutability": "nonpayable",
      "type": "function"
    },
    {
      "inputs": [
        {
          "internalType": "uint256",
          "name": "_blockHeight",
          "type": "uint256"
        },
        {
          "internalType": "uint256",
          "name": "_researchValue",
          "type": "uint256"
        }
      ],
      "name": "calculateAsymptoticEmission",
      "outputs": [
        {
          "internalType": "uint256",
          "name": "emission",
          "type": "uint256"
        }
      ],
      "stateMutability": "view",
      "type": "function"
    },
    {
      "inputs": [],
      "name": "currentBlockHeight",
      "outputs": [
        {
          "internalType": "uint256",
          "name": "",
          "type": "uint256"
        }
      ],
      "stateMutability": "view",
      "type": "function"
    },
    {
      "inputs": [],
      "name": "decimals",
      "outputs": [
        {
          "internalType": "uint8",
          "name": "",
          "type": "uint8"
        }
      ],
      "stateMutability": "view",
      "type": "function"
    },
    {
      "inputs": [],
      "name": "getAsymptoticTokenInfo",
      "outputs": [
        {
          "internalType": "string",
          "name": "tokenName",
          "type": "string"
        },
        {
          "internalType": "string",
          "name": "tokenSymbol",
          "type": "string"
        },
        {
          "internalType": "uint8",
          "name": "tokenDecimals",
          "type": "uint8"
        },
        {
          "internalType": "uint256",
          "name": "tokenTotalSupply",
          "type": "uint256"
        },
        {
          "internalType": "uint256",
          "name": "tokenSoftCap",
          "type": "uint256"
        },
        {
          "internalType": "uint256",
          "name": "tokenCurrentBlockHeight",
          "type": "uint256"
        },
        {
          "internalType": "uint256",
          "name": "tokenTotalResearchValue",
          "type": "uint256"
        },
        {
          "internalType": "uint256",
          "name": "tokenTotalEmitted",
          "type": "uint256"
        }
      ],
      "stateMutability": "view",
      "type": "function"
    },
    {
      "inputs": [],
      "name": "getEmissionParameters",
      "outputs": [
        {
          "internalType": "uint256",
          "name": "initialEmissionRate",
          "type": "uint256"
        },
        {
          "internalType": "uint256",
          "name": "decayConstant",
          "type": "uint256"
        },
        {
          "internalType": "uint256",
          "name": "researchMultiplierBase",
          "type": "uint256"
        },
        {
          "internalType": "uint256",
          "name": "decayScale",
          "type": "uint256"
        },
        {
          "internalType": "uint256",
          "name": "researchScale",
          "type": "uint256"
        }
      ],
      "stateMutability": "pure",
      "type": "function"
    },
    {
      "inputs": [
        {
          "internalType": "address",
          "name": "_user",
          "type": "address"
        }
      ],
      "name": "getUserResearchContributions",
      "outputs": [
        {
          "internalType": "uint256",
          "name": "contributions",
          "type": "uint256"
        }
      ],
      "stateMutability": "view",
      "type": "function"
    },
    {
      "inputs": [],
      "name": "lastEmissionBlock",
      "outputs": [
        {
          "internalType": "uint256",
          "name": "",
          "type": "uint256"
        }
      ],
      "stateMutability": "view",
      "type": "function"
    },
    {
      "inputs": [],
      "name": "miningRewardsPool",
      "outputs": [
        {
          "internalType": "address",
          "name": "",
          "type": "address"
        }
      ],
      "stateMutability": "view",
      "type": "function"
    },
    {
      "inputs": [
        {
          "internalType": "address",
          "name": "_to",
          "type": "address"
        },
        {
          "internalType": "uint256",
          "name": "_amount",
          "type": "uint256"
        },
        {
          "internalType": "uint256",
          "name": "_blockHeight",
          "type": "uint256"
        }
      ],
      "name": "mintMiningRewards",
      "outputs": [],
      "stateMutability": "nonpayable",
      "type": "function"
    },
    {
      "inputs": [
        {
          "internalType": "address",
          "name": "_to",
          "type": "address"
        },
        {
          "internalType": "uint256",
          "name": "_amount",
          "type": "uint256"
        }
      ],
      "name": "mintResearchRewards",
      "outputs": [],
      "stateMutability": "nonpayable",
      "type": "function"
    },
    {
      "inputs": [
        {
          "internalType": "address",
          "name": "_to",
          "type": "address"
        },
        {
          "internalType": "uint256",
          "name": "_amount",
          "type": "uint256"
        }
      ],
      "name": "mintStakingRewards",
      "outputs": [],
      "stateMutability": "nonpayable",
      "type": "function"
    },
    {
      "inputs": [
        {
          "internalType": "address",
          "name": "_to",
          "type": "address"
        },
        {
          "internalType": "uint256",
          "name": "_amount",
          "type": "uint256"
        }
      ],
      "name": "mintTreasury",
      "outputs": [],
      "stateMutability": "nonpayable",
      "type": "function"
    },
    {
      "inputs": [
        {
          "internalType": "address",
          "name": "",
          "type": "address"
        }
      ],
      "name": "minters",
      "outputs": [
        {
          "internalType": "bool",
          "name": "",
          "type": "bool"
        }
      ],
      "stateMutability": "view",
      "type": "function"
    },
    {
      "inputs": [],
      "name": "name",
      "outputs": [
        {
          "internalType": "string",
          "name": "",
          "type": "string"
        }
      ],
      "stateMutability": "view",
      "type": "function"
    },
    {
      "inputs": [],
      "name": "owner",
      "outputs": [
        {
          "internalType": "address",
          "name": "",
          "type": "address"
        }
      ],
      "stateMutability": "view",
      "type": "function"
    },
    {
      "inputs": [],
      "name": "pause",
      "outputs": [],
      "stateMutability": "nonpayable",
      "type": "function"
    },
    {
      "inputs": [],
      "name": "paused",
      "outputs": [
        {
          "internalType": "bool",
          "name": "",
          "type": "bool"
        }
      ],
      "stateMutability": "view",
      "type": "function"
    },
    {
      "inputs": [],
      "name": "productiveMinerContract",
      "outputs": [
        {
          "internalType": "address",
          "name": "",
          "type": "address"
        }
      ],
      "stateMutability": "view",
      "type": "function"
    },
    {
      "inputs": [
        {
          "internalType": "address",
          "name": "_minter",
          "type": "address"
        }
      ],
      "name": "removeMinter",
      "outputs": [],
      "stateMutability": "nonpayable",
      "type": "function"
    },
    {
      "inputs": [],
      "name": "renounceOwnership",
      "outputs": [],
      "stateMutability": "nonpayable",
      "type": "function"
    },
    {
      "inputs": [],
      "name": "researchFund",
      "outputs": [
        {
          "internalType": "address",
          "name": "",
          "type": "address"
        }
      ],
      "stateMutability": "view",
      "type": "function"
    },
    {
      "inputs": [],
      "name": "stakingRewardsPool",
      "outputs": [
        {
          "internalType": "address",
          "name": "",
          "type": "address"
        }
      ],
      "stateMutability": "view",
      "type": "function"
    },
    {
      "inputs": [],
      "name": "symbol",
      "outputs": [
        {
          "internalType": "string",
          "name": "",
          "type": "string"
        }
      ],
      "stateMutability": "view",
      "type": "function"
    },
    {
      "inputs": [],
      "name": "totalEmitted",
      "outputs": [
        {
          "internalType": "uint256",
          "name": "",
          "type": "uint256"
        }
      ],
      "stateMutability": "view",
      "type": "function"
    },
    {
      "inputs": [],
      "name": "totalResearchValue",
      "outputs": [
        {
          "internalType": "uint256",
          "name": "",
          "type": "uint256"
        }
      ],
      "stateMutability": "view",
      "type": "function"
    },
    {
      "inputs": [],
      "name": "totalSupply",
      "outputs": [
        {
          "internalType": "uint256",
          "name": "",
          "type": "uint256"
        }
      ],
      "stateMutability": "view",
      "type": "function"
    },
    {
      "inputs": [
        {
          "internalType": "address",
          "name": "to",
          "type": "address"
        },
        {
          "internalType": "uint256",
          "name": "value",
          "type": "uint256"
        }
      ],
      "name": "transfer",
      "outputs": [
        {
          "internalType": "bool",
          "name": "",
          "type": "bool"
        }
      ],
      "stateMutability": "nonpayable",
      "type": "function"
    },
    {
      "inputs": [
        {
          "internalType": "address",
          "name": "from",
          "type": "address"
        },
        {
          "internalType": "address",
          "name": "to",
          "type": "address"
        },
        {
          "internalType": "uint256",
          "name": "value",
          "type": "uint256"
        }
      ],
      "name": "transferFrom",
      "outputs": [
        {
          "internalType": "bool",
          "name": "",
          "type": "bool"
        }
      ],
      "stateMutability": "nonpayable",
      "type": "function"
    },
    {
      "inputs": [
        {
          "internalType": "address",
          "name": "newOwner",
          "type": "address"
        }
      ],
      "name": "transferOwnership",
      "outputs": [],
      "stateMutability": "nonpayable",
      "type": "function"
    },
    {
      "inputs": [],
      "name": "treasury",
      "outputs": [
        {
          "internalType": "address",
          "name": "",
          "type": "address"
        }
      ],
      "stateMutability": "view",
      "type": "function"
    },
    {
      "inputs": [],
      "name": "unpause",
      "outputs": [],
      "stateMutability": "nonpayable",
      "type": "function"
    },
    {
      "inputs": [
        {
          "internalType": "address",
          "name": "_newProductiveMiner",
          "type": "address"
        }
      ],
      "name": "updateProductiveMinerContract",
      "outputs": [],
      "stateMutability": "nonpayable",
      "type": "function"
    },
    {
      "inputs": [
        {
          "internalType": "address",
          "name": "",
          "type": "address"
        }
      ],
      "name": "userResearchContributions",
      "outputs": [
        {
          "internalType": "uint256",
          "name": "",
          "type": "uint256"
        }
      ],
      "stateMutability": "view",
      "type": "function"
    }
  ],
  "bytecode": "0x60806040523480156200001157600080fd5b50604051620025c0380380620025c083398101604081905262000034916200065b565b604080518082018252600580825264135253915160da1b60208084018290528451808601909552918452908301523391600362000072838262000780565b50600462000081828262000780565b5050506001600160a01b038116620000b457604051631e4fbdf760e01b8152600060048201526024015b60405180910390fd5b620000bf8162000423565b5060016006556001600160a01b0386166200011d5760405162461bcd60e51b815260206004820152601d60248201527f4d494e45443a20696e76616c696420696e697469616c20686f6c6465720000006044820152606401620000ab565b6001600160a01b038516620001805760405162461bcd60e51b815260206004820152602260248201527f4d494e45443a20696e76616c6964206d696e696e67207265776172647320706f6044820152611bdb60f21b6064820152608401620000ab565b6001600160a01b038416620001e45760405162461bcd60e51b815260206004820152602360248201527f4d494e45443a20696e76616c6964207374616b696e67207265776172647320706044820152621bdbdb60ea1b6064820152608401620000ab565b6001600160a01b0383166200023c5760405162461bcd60e51b815260206004820152601c60248201527f4d494e45443a20696e76616c69642072657365617263682066756e64000000006044820152606401620000ab565b6001600160a01b038216620002945760405162461bcd60e51b815260206004820152601760248201527f4d494e45443a20696e76616c69642074726561737572790000000000000000006044820152606401620000ab565b6001600160a01b038116620002fb5760405162461bcd60e51b815260206004820152602660248201527f4d494e45443a20696e76616c69642050726f647563746976654d696e6572206160448201526564647265737360d01b6064820152608401620000ab565b600780546001600160a01b03199081166001600160a01b0388811691909117909255600880548216878416179055600980548216868416179055600a80548216858416179055600b80549091169183169190911790556001600c556000600e819055600f819055600d8190556200038060146b3077b58d5d378391980000006200084c565b90506200038e87826200047d565b80600f6000828254620003a291906200086f565b9091555050336000818152601260205260408082208054600160ff1991821681179092556001600160a01b03871684528284208054909116909117905551600080516020620025a08339815191529190a26040516001600160a01b03831690600080516020620025a083398151915290600090a25050505050505062000897565b600580546001600160a01b03838116610100818102610100600160a81b031985161790945560405193909204169182907f8be0079c531659141344cd1fd0a4f28419497f9722a3daafe3b4186f6b6457e090600090a35050565b6001600160a01b038216620004a95760405163ec442f0560e01b815260006004820152602401620000ab565b620004b760008383620004bb565b5050565b620004c8838383620004cd565b505050565b620004d7620004e4565b620004c88383836200050b565b60055460ff1615620005095760405163d93c066560e01b815260040160405180910390fd5b565b6001600160a01b0383166200053a5780600260008282546200052e91906200086f565b90915550620005ae9050565b6001600160a01b038316600090815260208190526040902054818110156200058f5760405163391434e360e21b81526001600160a01b03851660048201526024810182905260448101839052606401620000ab565b6001600160a01b03841660009081526020819052604090209082900390555b6001600160a01b038216620005cc57600280548290039055620005eb565b6001600160a01b03821660009081526020819052604090208054820190555b816001600160a01b0316836001600160a01b03167fddf252ad1be2c89b69c2b068fc378daa952ba7f163c4a11628f55a4df523b3ef836040516200063191815260200190565b60405180910390a3505050565b80516001600160a01b03811681146200065657600080fd5b919050565b60008060008060008060c087890312156200067557600080fd5b62000680876200063e565b955062000690602088016200063e565b9450620006a0604088016200063e565b9350620006b0606088016200063e565b9250620006c0608088016200063e565b9150620006d060a088016200063e565b90509295509295509295565b634e487b7160e01b600052604160045260246000fd5b600181811c908216806200070757607f821691505b6020821081036200072857634e487b7160e01b600052602260045260246000fd5b50919050565b601f821115620004c857600081815260208120601f850160051c81016020861015620007575750805b601f850160051c820191505b81811015620007785782815560010162000763565b505050505050565b81516001600160401b038111156200079c576200079c620006dc565b620007b481620007ad8454620006f2565b846200072e565b602080601f831160018114620007ec5760008415620007d35750858301515b600019600386901b1c1916600185901b17855562000778565b600085815260208120601f198616915b828110156200081d57888601518255948401946001909101908401620007fc565b50858210156200083c5787850151600019600388901b60f8161c191681555b5050505050600190811b01905550565b6000826200086a57634e487b7160e01b600052601260045260246000fd5b500490565b808201808211156200089157634e487b7160e01b600052601160045260246000fd5b92915050565b611cf980620008a76000396000f3fe608060405234801561001057600080fd5b50600436106102955760003560e01c80636a1cbf6411610167578063a9059cbb116100ce578063dd50037a11610087578063dd50037a14610347578063dd62ed3e146105da578063df0244b114610613578063f2fde38b1461061c578063f46eccc41461062f578063f68f210b1461065257600080fd5b8063a9059cbb14610565578063aa29545314610578578063b131b7801461058b578063b652dc2f146105ab578063c66966b7146105be578063d88cfa04146105c757600080fd5b80638ac688e0116101205780638ac688e0146104f15780638da5cb5b1461050457806391bb809c1461051a578063955da4621461052a57806395d89b411461054a578063983b2d561461055257600080fd5b80636a1cbf641461047f57806370a0823114610492578063715018a6146104bb5780637929b27b146104c357806379cc6790146104d65780638456cb59146104e957600080fd5b80632d4ab5d91161020b5780633f4ba83a116101c45780633f4ba83a1461040a57806342966c6814610412578063477ec992146104255780634995c8111461044e5780635c975abb1461046157806361d027b31461046c57600080fd5b80632d4ab5d91461036a5780633092afd5146103a1578063313ce567146103b4578063367bf2f9146103c3578063368e3daf146103cc57806338386f69146103f757600080fd5b806315061fa41161025d57806315061fa41461032357806318160ddd1461032c57806319174ae2146103345780631e8267d7146103475780631f7836351461034f57806323b872dd1461035757600080fd5b80630194a7ca1461029a57806306fdde03146102af578063072f4346146102cd57806307e993ae146102e4578063095ea7b314610300575b600080fd5b6102ad6102a8366004611923565b610665565b005b6102b76107b1565b6040516102c49190611993565b60405180910390f35b6102d6600d5481565b6040519081526020016102c4565b6102ec610843565b6040516102c49897969594939291906119ad565b61031361030e366004611923565b610891565b60405190151581526020016102c4565b6102d661271081565b6002546102d6565b6102ad610342366004611a0b565b6108ab565b6102d6600181565b6102d6606481565b610313610365366004611a40565b610a7f565b60408051683635c9adc5dea0000081526001602082018190529181019190915261271060608201526064608082015260a0016102c4565b6102ad6103af366004611a7c565b610aa3565b604051601281526020016102c4565b6102d6600c5481565b6009546103df906001600160a01b031681565b6040516001600160a01b0390911681526020016102c4565b600b546103df906001600160a01b031681565b6102ad610c25565b6102ad610420366004611a97565b610c37565b6102d6610433366004611a7c565b6001600160a01b031660009081526011602052604090205490565b6102ad61045c366004611a7c565b610c44565b60055460ff16610313565b600a546103df906001600160a01b031681565b6007546103df906001600160a01b031681565b6102d66104a0366004611a7c565b6001600160a01b031660009081526020819052604090205490565b6102ad610d76565b6102ad6104d1366004611923565b610d88565b6102ad6104e4366004611923565b610ec3565b6102ad610edc565b6102ad6104ff366004611ab0565b610eec565b60055461010090046001600160a01b03166103df565b6102d6683635c9adc5dea0000081565b6102d6610538366004611a7c565b60116020526000908152604090205481565b6102b7611032565b6102ad610560366004611a7c565b611041565b610313610573366004611923565b611154565b6102d6610586366004611ae3565b611162565b6102d6610599366004611a97565b60106020526000908152604090205481565b6102d66b3077b58d5d3783919800000081565b6102d6600e5481565b6102ad6105d5366004611923565b6112ba565b6102d66105e8366004611b05565b6001600160a01b03918216600090815260016020908152604080832093909416825291909152205490565b6102d6600f5481565b6102ad61062a366004611a7c565b6113f5565b61031361063d366004611a7c565b60126020526000908152604090205460ff1681565b6008546103df906001600160a01b031681565b3360009081526012602052604090205460ff16806106a4575060055461010090046001600160a01b03166001600160a01b0316336001600160a01b0316145b6106c95760405162461bcd60e51b81526004016106c090611b38565b60405180910390fd5b6001600160a01b0382166106ef5760405162461bcd60e51b81526004016106c090611b6f565b6000811161070f5760405162461bcd60e51b81526004016106c090611ba6565b6b3077b58d5d3783919800000081600f5461072a9190611bf3565b11156107485760405162461bcd60e51b81526004016106c090611c06565b6107528282611430565b80600f60008282546107649190611bf3565b9091555050604080518281524360208201526001600160a01b038416917f728e25e27853d4af728e4f7d94277f913f0fa1010496a04144b3943f71d2c6e191015b60405180910390a25050565b6060600380546107c090611c3d565b80601f01602080910402602001604051908101604052809291908181526020018280546107ec90611c3d565b80156108395780601f1061080e57610100808354040283529160200191610839565b820191906000526020600020905b81548152906001019060200180831161081c57829003601f168201915b5050505050905090565b6060806000806000806000806108576107b1565b61085f611032565b600254600c54600d54600f54949d939c5060129b509199506b3077b58d5d378391980000009850965094509092509050565b60003361089f818585611466565b60019150505b92915050565b600b546001600160a01b031633146109175760405162461bcd60e51b815260206004820152602960248201527f4d494e45443a206f6e6c792050726f647563746976654d696e65722063616e2060448201526863616c6c207468697360b81b60648201526084016106c0565b600082116109765760405162461bcd60e51b815260206004820152602660248201527f4d494e45443a2072657365617263682076616c7565206d75737420626520706f60448201526573697469766560d01b60648201526084016106c0565b6001600160a01b0381166109cc5760405162461bcd60e51b815260206004820152601a60248201527f4d494e45443a20696e76616c696420636f6e7472696275746f7200000000000060448201526064016106c0565b600083815260106020526040812080548492906109ea908490611bf3565b9250508190555081600d6000828254610a039190611bf3565b90915550506001600160a01b03811660009081526011602052604081208054849290610a30908490611bf3565b909155505060408051848152602081018490526001600160a01b038316917f8cccd45bfba8849250eb2d315ed1f9071d43d5db1250ddc5f7556aa5ecf98d6591015b60405180910390a2505050565b600033610a8d858285611478565b610a988585856114f7565b506001949350505050565b610aab611556565b6001600160a01b038116610b015760405162461bcd60e51b815260206004820152601d60248201527f4d494e45443a20696e76616c6964206d696e746572206164647265737300000060448201526064016106c0565b6001600160a01b03811660009081526012602052604090205460ff16610b5f5760405162461bcd60e51b815260206004820152601360248201527226a4a722a21d103737ba10309036b4b73a32b960691b60448201526064016106c0565b60055461010090046001600160a01b03166001600160a01b0316816001600160a01b031603610bdc5760405162461bcd60e51b8152602060048201526024808201527f4d494e45443a2063616e6e6f742072656d6f7665206f776e6572206173206d69604482015263373a32b960e11b60648201526084016106c0565b6001600160a01b038116600081815260126020526040808220805460ff19169055517fe94479a9f7e1952cc78f2d6baab678adc1b772d936c6583def489e524cb666929190a250565b610c2d611556565b610c35611589565b565b610c4133826115db565b50565b610c4c611556565b6001600160a01b038116610cb15760405162461bcd60e51b815260206004820152602660248201527f4d494e45443a20696e76616c69642050726f647563746976654d696e6572206160448201526564647265737360d01b60648201526084016106c0565b600b546001600160a01b031615610d1657600b80546001600160a01b03908116600090815260126020526040808220805460ff191690559254925192909116917fe94479a9f7e1952cc78f2d6baab678adc1b772d936c6583def489e524cb666929190a25b600b80546001600160a01b0319166001600160a01b038316908117909155600081815260126020526040808220805460ff19166001179055517f6ae172837ea30b801fbfcdd4108aa1d5bf8ff775444fd70256b44e6bf3dfc3f69190a250565b610d7e611556565b610c356000611611565b3360009081526012602052604090205460ff1680610dc7575060055461010090046001600160a01b03166001600160a01b0316336001600160a01b0316145b610de35760405162461bcd60e51b81526004016106c090611b38565b6001600160a01b038216610e095760405162461bcd60e51b81526004016106c090611b6f565b60008111610e295760405162461bcd60e51b81526004016106c090611ba6565b6b3077b58d5d3783919800000081600f54610e449190611bf3565b1115610e625760405162461bcd60e51b81526004016106c090611c06565b610e6c8282611430565b80600f6000828254610e7e9190611bf3565b9091555050604080518281524360208201526001600160a01b038416917fdea0655b5cd3280541c6ec1aa5b38ab4402a62df698e2455fd96c03651bbec8a91016107a5565b610ece823383611478565b610ed882826115db565b5050565b610ee4611556565b610c3561166b565b3360009081526012602052604090205460ff1680610f2b575060055461010090046001600160a01b03166001600160a01b0316336001600160a01b0316145b610f475760405162461bcd60e51b81526004016106c090611b38565b6001600160a01b038316610f6d5760405162461bcd60e51b81526004016106c090611b6f565b60008211610f8d5760405162461bcd60e51b81526004016106c090611ba6565b6b3077b58d5d3783919800000082600f54610fa89190611bf3565b1115610fc65760405162461bcd60e51b81526004016106c090611c06565b610fd08383611430565b81600f6000828254610fe29190611bf3565b9091555050600c819055600e81905560408051838152602081018390526001600160a01b038516917fe92b2165b0258b757b29311a8ec1163b5bf23c113557cc3440f4c0a2d845dbc69101610a72565b6060600480546107c090611c3d565b611049611556565b6001600160a01b03811661109f5760405162461bcd60e51b815260206004820152601d60248201527f4d494e45443a20696e76616c6964206d696e746572206164647265737300000060448201526064016106c0565b6001600160a01b03811660009081526012602052604090205460ff16156111085760405162461bcd60e51b815260206004820152601760248201527f4d494e45443a20616c72656164792061206d696e74657200000000000000000060448201526064016106c0565b6001600160a01b038116600081815260126020526040808220805460ff19166001179055517f6ae172837ea30b801fbfcdd4108aa1d5bf8ff775444fd70256b44e6bf3dfc3f69190a250565b60003361089f8185856114f7565b600080612710611173856001611c77565b61117d9190611c8e565b905060006127108210156111cf57600061271061119a8480611c77565b6111a49190611c8e565b90506111b1600282611c8e565b6111bd84612710611cb0565b6111c79190611bf3565b9150506111df565b6111dc6064612710611c8e565b90505b600060646111ee866001611c77565b6111f89190611c8e565b611203906064611bf3565b90506112126064612710611c77565b8161122684683635c9adc5dea00000611c77565b6112309190611c77565b61123a9190611c8e565b9350670de0b6b3a764000084101561125857670de0b6b3a764000093505b6b3077b58d5d3783919800000084600f546112739190611bf3565b11156112b157600f546b3077b58d5d37839198000000116112955760006112ae565b600f546112ae906b3077b58d5d37839198000000611cb0565b93505b50505092915050565b3360009081526012602052604090205460ff16806112f9575060055461010090046001600160a01b03166001600160a01b0316336001600160a01b0316145b6113155760405162461bcd60e51b81526004016106c090611b38565b6001600160a01b03821661133b5760405162461bcd60e51b81526004016106c090611b6f565b6000811161135b5760405162461bcd60e51b81526004016106c090611ba6565b6b3077b58d5d3783919800000081600f546113769190611bf3565b11156113945760405162461bcd60e51b81526004016106c090611c06565b61139e8282611430565b80600f60008282546113b09190611bf3565b9091555050604080518281524360208201526001600160a01b038416917f617585ce19a00b383f531602d6761790bee787b9db7fc70b41b4565c87e8cfb791016107a5565b6113fd611556565b6001600160a01b03811661142757604051631e4fbdf760e01b8152600060048201526024016106c0565b610c4181611611565b6001600160a01b03821661145a5760405163ec442f0560e01b8152600060048201526024016106c0565b610ed8600083836116a8565b61147383838360016116b3565b505050565b6001600160a01b038381166000908152600160209081526040808320938616835292905220546000198110156114f157818110156114e257604051637dc7a0d960e11b81526001600160a01b038416600482015260248101829052604481018390526064016106c0565b6114f1848484840360006116b3565b50505050565b6001600160a01b03831661152157604051634b637e8f60e11b8152600060048201526024016106c0565b6001600160a01b03821661154b5760405163ec442f0560e01b8152600060048201526024016106c0565b6114738383836116a8565b6005546001600160a01b03610100909104163314610c355760405163118cdaa760e01b81523360048201526024016106c0565b611591611788565b6005805460ff191690557f5db9ee0a495bf2e6ff9c91a7834c1ba4fdd244a5e8aa4e537bd38aeae4b073aa335b6040516001600160a01b03909116815260200160405180910390a1565b6001600160a01b03821661160557604051634b637e8f60e11b8152600060048201526024016106c0565b610ed8826000836116a8565b600580546001600160a01b03838116610100818102610100600160a81b031985161790945560405193909204169182907f8be0079c531659141344cd1fd0a4f28419497f9722a3daafe3b4186f6b6457e090600090a35050565b6116736117ab565b6005805460ff191660011790557f62e78cea01bee320cd4e420270b5ea74000d11b0c9f74754ebdbfc544b05a2586115be3390565b6114738383836117cf565b6001600160a01b0384166116dd5760405163e602df0560e01b8152600060048201526024016106c0565b6001600160a01b03831661170757604051634a1406b160e11b8152600060048201526024016106c0565b6001600160a01b03808516600090815260016020908152604080832093871683529290522082905580156114f157826001600160a01b0316846001600160a01b03167f8c5be1e5ebec7d5bd14f71427d1e84f3dd0314c0f7b2291e5b200ac8c7c3b9258460405161177a91815260200190565b60405180910390a350505050565b60055460ff16610c3557604051638dfc202b60e01b815260040160405180910390fd5b60055460ff1615610c355760405163d93c066560e01b815260040160405180910390fd5b6117d76117ab565b6114738383836001600160a01b0383166118085780600260008282546117fd9190611bf3565b9091555061187a9050565b6001600160a01b0383166000908152602081905260409020548181101561185b5760405163391434e360e21b81526001600160a01b038516600482015260248101829052604481018390526064016106c0565b6001600160a01b03841660009081526020819052604090209082900390555b6001600160a01b038216611896576002805482900390556118b5565b6001600160a01b03821660009081526020819052604090208054820190555b816001600160a01b0316836001600160a01b03167fddf252ad1be2c89b69c2b068fc378daa952ba7f163c4a11628f55a4df523b3ef836040516118fa91815260200190565b60405180910390a3505050565b80356001600160a01b038116811461191e57600080fd5b919050565b6000806040838503121561193657600080fd5b61193f83611907565b946020939093013593505050565b6000815180845260005b8181101561197357602081850181015186830182015201611957565b506000602082860101526020601f19601f83011685010191505092915050565b6020815260006119a6602083018461194d565b9392505050565b60006101008083526119c18184018c61194d565b905082810360208401526119d5818b61194d565b60ff99909916604084015250506060810195909552608085019390935260a084019190915260c083015260e09091015292915050565b600080600060608486031215611a2057600080fd5b8335925060208401359150611a3760408501611907565b90509250925092565b600080600060608486031215611a5557600080fd5b611a5e84611907565b9250611a6c60208501611907565b9150604084013590509250925092565b600060208284031215611a8e57600080fd5b6119a682611907565b600060208284031215611aa957600080fd5b5035919050565b600080600060608486031215611ac557600080fd5b611ace84611907565b95602085013595506040909401359392505050565b60008060408385031215611af657600080fd5b50508035926020909101359150565b60008060408385031215611b1857600080fd5b611b2183611907565b9150611b2f60208401611907565b90509250929050565b6020808252601d908201527f4d494e45443a2063616c6c6572206973206e6f742061206d696e746572000000604082015260600190565b60208082526018908201527f4d494e45443a20696e76616c696420726563697069656e740000000000000000604082015260600190565b6020808252601e908201527f4d494e45443a20616d6f756e74206d75737420626520706f7369746976650000604082015260600190565b634e487b7160e01b600052601160045260246000fd5b808201808211156108a5576108a5611bdd565b6020808252601c908201527f4d494e45443a20776f756c642065786365656420736f66742063617000000000604082015260600190565b600181811c90821680611c5157607f821691505b602082108103611c7157634e487b7160e01b600052602260045260246000fd5b50919050565b80820281158282048414176108a5576108a5611bdd565b600082611cab57634e487b7160e01b600052601260045260246000fd5b500490565b818103818111156108a5576108a5611bdd56fea26469706673582212201513e9cc6d233558ab3125a6faff01c74ba90def8e0d1eb2218ebe54512c1f7564736f6c634300081400336ae172837ea30b801fbfcdd4108aa1d5bf8ff775444fd70256b44e6bf3dfc3f6",
  "linkReferences": {},
  "deployedLinkReferences": {}
}