{
  "_format": "hh-sol-artifact-1",
  "contractName": "ProductiveMinerAsymptotic",
  "sourceName": "contracts/ProductiveMinerAsymptotic.sol",
  "abi": [
    {
      "inputs": [
        {
          "internalType": "address",
          "name": "_minedTokenAddress",
          "type": "address"
        }
      ],
      "stateMutability": "nonpayable",
      "type": "constructor"
    },
    {
      "anonymous": false,
      "inputs": [
        {
          "indexed": true,
          "internalType": "uint256",
          "name": "discoveryId",
          "type": "uint256"
        },
        {
          "indexed": true,
          "internalType": "address",
          "name": "miner",
          "type": "address"
        },
        {
          "indexed": false,
          "internalType": "enum ProductiveMinerAsymptotic.WorkType",
          "name": "workType",
          "type": "uint8"
        },
        {
          "indexed": false,
          "internalType": "uint256",
          "name": "difficulty",
          "type": "uint256"
        },
        {
          "indexed": false,
          "internalType": "uint256",
          "name": "researchValue",
          "type": "uint256"
        }
      ],
      "name": "DiscoverySubmitted",
      "type": "event"
    },
    {
      "anonymous": false,
      "inputs": [
        {
          "indexed": true,
          "internalType": "uint256",
          "name": "sessionId",
          "type": "uint256"
        },
        {
          "indexed": true,
          "internalType": "address",
          "name": "miner",
          "type": "address"
        },
        {
          "indexed": false,
          "internalType": "uint256",
          "name": "reward",
          "type": "uint256"
        },
        {
          "indexed": false,
          "internalType": "uint256",
          "name": "tokenReward",
          "type": "uint256"
        }
      ],
      "name": "MiningSessionCompleted",
      "type": "event"
    },
    {
      "anonymous": false,
      "inputs": [
        {
          "indexed": true,
          "internalType": "uint256",
          "name": "sessionId",
          "type": "uint256"
        },
        {
          "indexed": true,
          "internalType": "address",
          "name": "miner",
          "type": "address"
        },
        {
          "indexed": false,
          "internalType": "enum ProductiveMinerAsymptotic.WorkType",
          "name": "workType",
          "type": "uint8"
        },
        {
          "indexed": false,
          "internalType": "uint256",
          "name": "difficulty",
          "type": "uint256"
        }
      ],
      "name": "MiningSessionStarted",
      "type": "event"
    },
    {
      "anonymous": false,
      "inputs": [
        {
          "indexed": true,
          "internalType": "address",
          "name": "by",
          "type": "address"
        }
      ],
      "name": "Paused",
      "type": "event"
    },
    {
      "anonymous": false,
      "inputs": [
        {
          "indexed": true,
          "internalType": "uint256",
          "name": "blockHeight",
          "type": "uint256"
        },
        {
          "indexed": true,
          "internalType": "address",
          "name": "contributor",
          "type": "address"
        },
        {
          "indexed": false,
          "internalType": "uint256",
          "name": "researchValue",
          "type": "uint256"
        }
      ],
      "name": "ResearchValueAdded",
      "type": "event"
    },
    {
      "anonymous": false,
      "inputs": [
        {
          "indexed": true,
          "internalType": "address",
          "name": "staker",
          "type": "address"
        },
        {
          "indexed": false,
          "internalType": "uint256",
          "name": "amount",
          "type": "uint256"
        },
        {
          "indexed": false,
          "internalType": "uint256",
          "name": "tokenAmount",
          "type": "uint256"
        }
      ],
      "name": "RewardsClaimed",
      "type": "event"
    },
    {
      "anonymous": false,
      "inputs": [
        {
          "indexed": true,
          "internalType": "address",
          "name": "staker",
          "type": "address"
        },
        {
          "indexed": false,
          "internalType": "uint256",
          "name": "amount",
          "type": "uint256"
        }
      ],
      "name": "Staked",
      "type": "event"
    },
    {
      "anonymous": false,
      "inputs": [
        {
          "indexed": true,
          "internalType": "address",
          "name": "tokenAddress",
          "type": "address"
        }
      ],
      "name": "TokenIntegrationEnabled",
      "type": "event"
    },
    {
      "anonymous": false,
      "inputs": [
        {
          "indexed": true,
          "internalType": "address",
          "name": "by",
          "type": "address"
        }
      ],
      "name": "Unpaused",
      "type": "event"
    },
    {
      "anonymous": false,
      "inputs": [
        {
          "indexed": true,
          "internalType": "address",
          "name": "staker",
          "type": "address"
        },
        {
          "indexed": false,
          "internalType": "uint256",
          "name": "amount",
          "type": "uint256"
        }
      ],
      "name": "Unstaked",
      "type": "event"
    },
    {
      "stateMutability": "payable",
      "type": "fallback"
    },
    {
      "inputs": [],
      "name": "baseReward",
      "outputs": [
        {
          "internalType": "uint256",
          "name": "",
          "type": "uint256"
        }
      ],
      "stateMutability": "view",
      "type": "function"
    },
    {
      "inputs": [],
      "name": "claimStakingRewards",
      "outputs": [],
      "stateMutability": "nonpayable",
      "type": "function"
    },
    {
      "inputs": [
        {
          "internalType": "uint256",
          "name": "_sessionId",
          "type": "uint256"
        },
        {
          "internalType": "bytes32",
          "name": "_proofHash",
          "type": "bytes32"
        },
        {
          "internalType": "string",
          "name": "_metadata",
          "type": "string"
        }
      ],
      "name": "completeMiningSession",
      "outputs": [],
      "stateMutability": "nonpayable",
      "type": "function"
    },
    {
      "inputs": [],
      "name": "currentBlockHeight",
      "outputs": [
        {
          "internalType": "uint256",
          "name": "",
          "type": "uint256"
        }
      ],
      "stateMutability": "view",
      "type": "function"
    },
    {
      "inputs": [
        {
          "internalType": "uint256",
          "name": "",
          "type": "uint256"
        }
      ],
      "name": "discoveries",
      "outputs": [
        {
          "internalType": "uint256",
          "name": "id",
          "type": "uint256"
        },
        {
          "internalType": "address",
          "name": "miner",
          "type": "address"
        },
        {
          "internalType": "enum ProductiveMinerAsymptotic.WorkType",
          "name": "workType",
          "type": "uint8"
        },
        {
          "internalType": "uint256",
          "name": "difficulty",
          "type": "uint256"
        },
        {
          "internalType": "uint256",
          "name": "quantumSecurityLevel",
          "type": "uint256"
        },
        {
          "internalType": "uint256",
          "name": "reward",
          "type": "uint256"
        },
        {
          "internalType": "uint256",
          "name": "tokenReward",
          "type": "uint256"
        },
        {
          "internalType": "uint256",
          "name": "timestamp",
          "type": "uint256"
        },
        {
          "internalType": "bytes32",
          "name": "proofHash",
          "type": "bytes32"
        },
        {
          "internalType": "bool",
          "name": "verified",
          "type": "bool"
        },
        {
          "internalType": "string",
          "name": "metadata",
          "type": "string"
        },
        {
          "internalType": "uint256",
          "name": "computationalComplexity",
          "type": "uint256"
        },
        {
          "internalType": "uint256",
          "name": "impactScore",
          "type": "uint256"
        },
        {
          "internalType": "uint256",
          "name": "researchValue",
          "type": "uint256"
        }
      ],
      "stateMutability": "view",
      "type": "function"
    },
    {
      "inputs": [],
      "name": "discoveryCounter",
      "outputs": [
        {
          "internalType": "uint256",
          "name": "",
          "type": "uint256"
        }
      ],
      "stateMutability": "view",
      "type": "function"
    },
    {
      "inputs": [
        {
          "internalType": "address",
          "name": "_miner",
          "type": "address"
        }
      ],
      "name": "getMinerStats",
      "outputs": [
        {
          "internalType": "uint256",
          "name": "totalSessions",
          "type": "uint256"
        },
        {
          "internalType": "uint256",
          "name": "totalDiscoveries",
          "type": "uint256"
        },
        {
          "internalType": "uint256",
          "name": "totalRewards",
          "type": "uint256"
        },
        {
          "internalType": "uint256",
          "name": "totalTokenRewards",
          "type": "uint256"
        },
        {
          "internalType": "uint256",
          "name": "stakedAmount",
          "type": "uint256"
        },
        {
          "internalType": "uint256",
          "name": "pendingRewards",
          "type": "uint256"
        },
        {
          "internalType": "uint256",
          "name": "pendingTokenRewards",
          "type": "uint256"
        },
        {
          "internalType": "uint256",
          "name": "researchContributions",
          "type": "uint256"
        }
      ],
      "stateMutability": "view",
      "type": "function"
    },
    {
      "inputs": [],
      "name": "getNetworkStats",
      "outputs": [
        {
          "components": [
            {
              "internalType": "uint256",
              "name": "totalDiscoveries",
              "type": "uint256"
            },
            {
              "internalType": "uint256",
              "name": "totalSessions",
              "type": "uint256"
            },
            {
              "internalType": "uint256",
              "name": "currentActiveSessions",
              "type": "uint256"
            },
            {
              "internalType": "uint256",
              "name": "maxDifficulty",
              "type": "uint256"
            },
            {
              "internalType": "uint256",
              "name": "baseReward",
              "type": "uint256"
            },
            {
              "internalType": "uint256",
              "name": "quantumSecurityLevel",
              "type": "uint256"
            },
            {
              "internalType": "uint256",
              "name": "totalStaked",
              "type": "uint256"
            },
            {
              "internalType": "uint256",
              "name": "totalRewardsDistributed",
              "type": "uint256"
            },
            {
              "internalType": "uint256",
              "name": "totalTokenRewardsDistributed",
              "type": "uint256"
            },
            {
              "internalType": "uint256",
              "name": "averageComputationalComplexity",
              "type": "uint256"
            },
            {
              "internalType": "uint256",
              "name": "totalResearchValue",
              "type": "uint256"
            },
            {
              "internalType": "uint256",
              "name": "currentBlockHeight",
              "type": "uint256"
            }
          ],
          "internalType": "struct ProductiveMinerAsymptotic.NetworkStats",
          "name": "",
          "type": "tuple"
        }
      ],
      "stateMutability": "view",
      "type": "function"
    },
    {
      "inputs": [],
      "name": "maxConcurrentSessions",
      "outputs": [
        {
          "internalType": "uint256",
          "name": "",
          "type": "uint256"
        }
      ],
      "stateMutability": "view",
      "type": "function"
    },
    {
      "inputs": [],
      "name": "maxDifficulty",
      "outputs": [
        {
          "internalType": "uint256",
          "name": "",
          "type": "uint256"
        }
      ],
      "stateMutability": "view",
      "type": "function"
    },
    {
      "inputs": [],
      "name": "minStakeAmount",
      "outputs": [
        {
          "internalType": "uint256",
          "name": "",
          "type": "uint256"
        }
      ],
      "stateMutability": "view",
      "type": "function"
    },
    {
      "inputs": [],
      "name": "minedToken",
      "outputs": [
        {
          "internalType": "contract MINEDTokenAsymptoticEnhanced",
          "name": "",
          "type": "address"
        }
      ],
      "stateMutability": "view",
      "type": "function"
    },
    {
      "inputs": [
        {
          "internalType": "address",
          "name": "",
          "type": "address"
        },
        {
          "internalType": "uint256",
          "name": "",
          "type": "uint256"
        }
      ],
      "name": "minerDiscoveries",
      "outputs": [
        {
          "internalType": "uint256",
          "name": "",
          "type": "uint256"
        }
      ],
      "stateMutability": "view",
      "type": "function"
    },
    {
      "inputs": [
        {
          "internalType": "address",
          "name": "",
          "type": "address"
        },
        {
          "internalType": "uint256",
          "name": "",
          "type": "uint256"
        }
      ],
      "name": "minerSessions",
      "outputs": [
        {
          "internalType": "uint256",
          "name": "",
          "type": "uint256"
        }
      ],
      "stateMutability": "view",
      "type": "function"
    },
    {
      "inputs": [],
      "name": "owner",
      "outputs": [
        {
          "internalType": "address",
          "name": "",
          "type": "address"
        }
      ],
      "stateMutability": "view",
      "type": "function"
    },
    {
      "inputs": [],
      "name": "pause",
      "outputs": [],
      "stateMutability": "nonpayable",
      "type": "function"
    },
    {
      "inputs": [],
      "name": "paused",
      "outputs": [
        {
          "internalType": "bool",
          "name": "",
          "type": "bool"
        }
      ],
      "stateMutability": "view",
      "type": "function"
    },
    {
      "inputs": [],
      "name": "quantumSecurityLevel",
      "outputs": [
        {
          "internalType": "uint256",
          "name": "",
          "type": "uint256"
        }
      ],
      "stateMutability": "view",
      "type": "function"
    },
    {
      "inputs": [],
      "name": "sessionCounter",
      "outputs": [
        {
          "internalType": "uint256",
          "name": "",
          "type": "uint256"
        }
      ],
      "stateMutability": "view",
      "type": "function"
    },
    {
      "inputs": [
        {
          "internalType": "uint256",
          "name": "",
          "type": "uint256"
        }
      ],
      "name": "sessions",
      "outputs": [
        {
          "internalType": "uint256",
          "name": "sessionId",
          "type": "uint256"
        },
        {
          "internalType": "address",
          "name": "miner",
          "type": "address"
        },
        {
          "internalType": "enum ProductiveMinerAsymptotic.WorkType",
          "name": "workType",
          "type": "uint8"
        },
        {
          "internalType": "uint256",
          "name": "startTime",
          "type": "uint256"
        },
        {
          "internalType": "uint256",
          "name": "endTime",
          "type": "uint256"
        },
        {
          "internalType": "uint256",
          "name": "difficulty",
          "type": "uint256"
        },
        {
          "internalType": "uint256",
          "name": "quantumSecurityLevel",
          "type": "uint256"
        },
        {
          "internalType": "bool",
          "name": "active",
          "type": "bool"
        },
        {
          "internalType": "bool",
          "name": "completed",
          "type": "bool"
        },
        {
          "internalType": "uint256",
          "name": "computationalPower",
          "type": "uint256"
        },
        {
          "internalType": "uint256",
          "name": "energyConsumption",
          "type": "uint256"
        },
        {
          "internalType": "uint256",
          "name": "researchValue",
          "type": "uint256"
        }
      ],
      "stateMutability": "view",
      "type": "function"
    },
    {
      "inputs": [],
      "name": "stake",
      "outputs": [],
      "stateMutability": "payable",
      "type": "function"
    },
    {
      "inputs": [],
      "name": "stakingAPY",
      "outputs": [
        {
          "internalType": "uint256",
          "name": "",
          "type": "uint256"
        }
      ],
      "stateMutability": "view",
      "type": "function"
    },
    {
      "inputs": [
        {
          "internalType": "address",
          "name": "",
          "type": "address"
        }
      ],
      "name": "stakingInfo",
      "outputs": [
        {
          "internalType": "uint256",
          "name": "stakedAmount",
          "type": "uint256"
        },
        {
          "internalType": "uint256",
          "name": "rewards",
          "type": "uint256"
        },
        {
          "internalType": "uint256",
          "name": "tokenRewards",
          "type": "uint256"
        },
        {
          "internalType": "uint256",
          "name": "lastClaimTime",
          "type": "uint256"
        },
        {
          "internalType": "uint256",
          "name": "apy",
          "type": "uint256"
        },
        {
          "internalType": "bool",
          "name": "isActive",
          "type": "bool"
        }
      ],
      "stateMutability": "view",
      "type": "function"
    },
    {
      "inputs": [
        {
          "internalType": "enum ProductiveMinerAsymptotic.WorkType",
          "name": "_workType",
          "type": "uint8"
        },
        {
          "internalType": "uint256",
          "name": "_difficulty",
          "type": "uint256"
        }
      ],
      "name": "startMiningSession",
      "outputs": [],
      "stateMutability": "nonpayable",
      "type": "function"
    },
    {
      "inputs": [],
      "name": "tokenIntegrationEnabled",
      "outputs": [
        {
          "internalType": "bool",
          "name": "",
          "type": "bool"
        }
      ],
      "stateMutability": "view",
      "type": "function"
    },
    {
      "inputs": [],
      "name": "totalResearchValue",
      "outputs": [
        {
          "internalType": "uint256",
          "name": "",
          "type": "uint256"
        }
      ],
      "stateMutability": "view",
      "type": "function"
    },
    {
      "inputs": [],
      "name": "totalRewardsDistributed",
      "outputs": [
        {
          "internalType": "uint256",
          "name": "",
          "type": "uint256"
        }
      ],
      "stateMutability": "view",
      "type": "function"
    },
    {
      "inputs": [],
      "name": "totalStaked",
      "outputs": [
        {
          "internalType": "uint256",
          "name": "",
          "type": "uint256"
        }
      ],
      "stateMutability": "view",
      "type": "function"
    },
    {
      "inputs": [],
      "name": "totalTokenRewardsDistributed",
      "outputs": [
        {
          "internalType": "uint256",
          "name": "",
          "type": "uint256"
        }
      ],
      "stateMutability": "view",
      "type": "function"
    },
    {
      "inputs": [],
      "name": "unpause",
      "outputs": [],
      "stateMutability": "nonpayable",
      "type": "function"
    },
    {
      "inputs": [
        {
          "internalType": "uint256",
          "name": "_amount",
          "type": "uint256"
        }
      ],
      "name": "unstake",
      "outputs": [],
      "stateMutability": "nonpayable",
      "type": "function"
    },
    {
      "inputs": [
        {
          "internalType": "uint256",
          "name": "_maxDifficulty",
          "type": "uint256"
        },
        {
          "internalType": "uint256",
          "name": "_baseReward",
          "type": "uint256"
        },
        {
          "internalType": "uint256",
          "name": "_quantumSecurityLevel",
          "type": "uint256"
        },
        {
          "internalType": "uint256",
          "name": "_maxConcurrentSessions",
          "type": "uint256"
        }
      ],
      "name": "updateMiningParameters",
      "outputs": [],
      "stateMutability": "nonpayable",
      "type": "function"
    },
    {
      "inputs": [
        {
          "internalType": "uint256",
          "name": "_minStakeAmount",
          "type": "uint256"
        },
        {
          "internalType": "uint256",
          "name": "_stakingAPY",
          "type": "uint256"
        }
      ],
      "name": "updateStakingParameters",
      "outputs": [],
      "stateMutability": "nonpayable",
      "type": "function"
    },
    {
      "inputs": [
        {
          "internalType": "address",
          "name": "_tokenAddress",
          "type": "address"
        }
      ],
      "name": "updateTokenIntegration",
      "outputs": [],
      "stateMutability": "nonpayable",
      "type": "function"
    },
    {
      "inputs": [
        {
          "internalType": "enum ProductiveMinerAsymptotic.WorkType",
          "name": "",
          "type": "uint8"
        }
      ],
      "name": "workTypeResearchMultipliers",
      "outputs": [
        {
          "internalType": "uint256",
          "name": "",
          "type": "uint256"
        }
      ],
      "stateMutability": "view",
      "type": "function"
    },
    {
      "stateMutability": "payable",
      "type": "receive"
    }
  ],
  "bytecode": "0x6080604052620f424060009081556103e86001818155610100600255600391909155600c600455600a60058190556006805460ff1916831790556007919091556008829055805460ff60a01b1916905560108190556011819055601281905560138190556014553480156200007357600080fd5b50604051620028bb380380620028bb8339810160408190526200009691620002dc565b600a80546001600160a01b031916331790556006805460ff19166001600160a01b038316151590811790915560ff16156200011b5760068054610100600160a81b0319166101006001600160a01b038416908102919091179091556040517f481c683fc025a181130081945f61f1b14dbee0f02d769b7abef6cf6a2325e13190600090a25b506009602052600a7fec8156718a8372b1db44bb411437d0870f3e3790d4a08526d024ce1b0b668f6b5560327f92e85d02570a8092d09a6e3a57665bc3815a2699a4074001bf1ccabf660f5a365560287f6cde3cea4b3a3fb2488b2808bae7556f4a405e50f65e1794383bc026131b13c355600f7fc575c31fea594a6eb97c8e9d3f9caee4c16218c6ef37e923234c0fe9014a61e755601e7f8dc18c4ccfd75f5c815b63770fa542fd953e8fef7e0e44bbdd4913470ce7e9cb5560197f74b05292d1d4b2b48b65261b07099d24244bcb069f138d9a6bfdcf776becac4c5560147fbb6daa0c283751197dfdc76590680f9005e97d6f23870deb1164ab60b28b9f5f5560237fae6299332bcd708cd60e3a8defa55de28078a50a4cf2b3de3a546253240ff9e155603c7fc7694af312c4f286114180fd0ba6a52461fcee8a381636770b19a343af92538a55602d7f87e8a52529e8ece4ef759037313542a6429ff494a9fab9027fb79db90124eba65560127f502e20e4e219e0c509d693958f17384c185f07a810a5d31c46c2be981e979c2555600b600052600c7f0d9cf2cd531699eed8dd34e40ff2884a14a698c4898184fba85194e6f6772d24556200030e565b600060208284031215620002ef57600080fd5b81516001600160a01b03811681146200030757600080fd5b9392505050565b61259d806200031e6000396000f3fe6080604052600436106101f05760003560e01c80636b69e05b1161010c5780639a9974531161009a578063cc64e2af1161006c578063cc64e2af14610714578063d1bec2761461072a578063edfffca014610744578063ee17254614610769578063f18876841461077f57005b80639a997453146106a8578063a7bd789d146106be578063a952a326146106de578063ab483ff6146106fe57005b806383c4b7a3116100de57806383c4b7a3146105285780638456cb59146105c35780638da5cb5b146105d8578063921b71c21461061057806394eecb501461062657005b80636b69e05b146104d157806376ad03bc146104e65780637ada463a146104fc578063817b1cd21461051257005b8063367bf2f9116101895780634d61ac311161015b5780634d61ac31146103f9578063559e98451461043357806358821a0a146104535780635c975abb146104805780635e309e09146104b157005b8063367bf2f9146103295780633a4b66f11461033f5780633f4ba83a146103475780634a662f481461035c57005b80631531b62a116101c25780631531b62a146102785780631c997e1d1461028e5780632e17de78146102ae57806334b2237a146102ce57005b8063072f4346146101f95780630ace5d28146102225780630aeeaad71461024257806311edb6791461025857005b366101f757005b005b34801561020557600080fd5b5061020f60085481565b6040519081526020015b60405180910390f35b34801561022e57600080fd5b506101f761023d366004611f5e565b610795565b34801561024e57600080fd5b5061020f60055481565b34801561026457600080fd5b506101f7610273366004611f88565b610b3f565b34801561028457600080fd5b5061020f60045481565b34801561029a57600080fd5b506101f76102a9366004611faa565b610b74565b3480156102ba57600080fd5b506101f76102c9366004611fdc565b610bb2565b3480156102da57600080fd5b506102ee6102e936600461200c565b610d7d565b604080519889526020890197909752958701949094526060860192909252608085015260a084015260c083015260e082015261010001610219565b34801561033557600080fd5b5061020f60075481565b6101f7610f18565b34801561035357600080fd5b506101f7611080565b34801561036857600080fd5b506103716110e4565b6040516102199190815181526020808301519082015260408083015190820152606080830151908201526080808301519082015260a0808301519082015260c0808301519082015260e0808301519082015261010080830151908201526101208083015190820152610140808301519082015261016091820151918101919091526101800190565b34801561040557600080fd5b50610419610414366004611fdc565b61123a565b6040516102199e9d9c9b9a999897969594939291906120ac565b34801561043f57600080fd5b5061020f61044e36600461213b565b611337565b34801561045f57600080fd5b5061020f61046e366004612157565b60096020526000908152604090205481565b34801561048c57600080fd5b50600a546104a190600160a01b900460ff1681565b6040519015158152602001610219565b3480156104bd57600080fd5b506101f76104cc366004612188565b611368565b3480156104dd57600080fd5b506101f76117ae565b3480156104f257600080fd5b5061020f60015481565b34801561050857600080fd5b5061020f60025481565b34801561051e57600080fd5b5061020f60125481565b34801561053457600080fd5b506105ab610543366004611fdc565b600c60205260009081526040902080546001820154600283015460038401546004850154600586015460068701546007880154600889015460099099015497986001600160a01b0388169860ff600160a01b909904891698848116946101009004169291908c565b6040516102199c9b9a9998979695949392919061224c565b3480156105cf57600080fd5b506101f7611a10565b3480156105e457600080fd5b50600a546105f8906001600160a01b031681565b6040516001600160a01b039091168152602001610219565b34801561061c57600080fd5b5061020f60145481565b34801561063257600080fd5b5061067961064136600461200c565b600d60205260009081526040902080546001820154600283015460038401546004850154600590950154939492939192909160ff1686565b6040805196875260208701959095529385019290925260608401526080830152151560a082015260c001610219565b3480156106b457600080fd5b5061020f60005481565b3480156106ca57600080fd5b5061020f6106d936600461213b565b611a7a565b3480156106ea57600080fd5b506101f76106f936600461200c565b611a96565b34801561070a57600080fd5b5061020f60105481565b34801561072057600080fd5b5061020f60115481565b34801561073657600080fd5b506006546104a19060ff1681565b34801561075057600080fd5b506006546105f89061010090046001600160a01b031681565b34801561077557600080fd5b5061020f60135481565b34801561078b57600080fd5b5061020f60035481565b600a54600160a01b900460ff16156107c85760405162461bcd60e51b81526004016107bf906122ba565b60405180910390fd5b60005481111561081a5760405162461bcd60e51b815260206004820152601a60248201527f446966666963756c74792065786365656473206d6178696d756d00000000000060448201526064016107bf565b600081116108745760405162461bcd60e51b815260206004820152602160248201527f446966666963756c7479206d7573742062652067726561746572207468616e206044820152600360fc1b60648201526084016107bf565b6000805b336000908152600e60205260409020548110156108fb57336000908152600e602052604081208054839081106108b0576108b06122e6565b6000918252602080832090910154808352600c90915260409091206006015490915060ff16156108e857826108e481612312565b9350505b50806108f381612312565b915050610878565b50600554811061094d5760405162461bcd60e51b815260206004820152601860248201527f546f6f206d616e79206163746976652073657373696f6e73000000000000000060448201526064016107bf565b6011805490600061095d83612312565b9091555050601154600061097c858561097781606461232b565b611b37565b6040805161018081018252848152336020820152919250810186600b8111156109a7576109a761202e565b8152426020820152600060408201819052606082018790526002546080830152600160a083015260c082015260e0016109e186606461232b565b81526020016109f186600a61232b565b815260209081018390526000848152600c825260409081902083518155918301516001830180546001600160a01b039092166001600160a01b0319831681178255928501519290916001600160a81b03191617600160a01b83600b811115610a5b57610a5b61202e565b0217905550606082015160028201556080820151600382015560a0820151600482015560c0820151600582015560e08201516006820180546101008086015115150261ff00199315159390931661ffff19909116179190911790556101208201516007820155610140820151600882015561016090910151600990910155336000818152600e60209081526040808320805460018101825590845291909220018490555183907f6a076484c19a77742a92063180d09799c4f84c1299381b580e50ba5a068f0d8390610b309089908990612342565b60405180910390a35050505050565b600a546001600160a01b03163314610b695760405162461bcd60e51b81526004016107bf9061235d565b600391909155600455565b600a546001600160a01b03163314610b9e5760405162461bcd60e51b81526004016107bf9061235d565b600093909355600191909155600255600555565b600a54600160a01b900460ff1615610bdc5760405162461bcd60e51b81526004016107bf906122ba565b336000908152600d60205260409020600581015460ff16610c2d5760405162461bcd60e51b815260206004820152600b60248201526a4e6f74207374616b696e6760a81b60448201526064016107bf565b8054821115610c7e5760405162461bcd60e51b815260206004820152601a60248201527f496e73756666696369656e74207374616b656420616d6f756e7400000000000060448201526064016107bf565b6000610c8933611ba3565b90506000610c9633611c36565b905081836001016000828254610cac919061239e565b9250508190555080836002016000828254610cc7919061239e565b9091555050825484908490600090610ce09084906123b1565b925050819055508360126000828254610cf991906123b1565b90915550508254600003610d145760058301805460ff191690555b604051339085156108fc029086906000818181858888f19350505050158015610d41573d6000803e3d6000fd5b5060405184815233907f0f5bb82176feb1b5e747e28471aa92156a04d9f3ab9f45f28e2d704232b93f759060200160405180910390a250505050565b6001600160a01b0381166000908152600e6020908152604080832054600f90925282205490918080808080805b6001600160a01b038a166000908152600f6020526040902054811015610e58576001600160a01b038a166000908152600f60205260408120805483908110610df457610df46122e6565b90600052602060002001549050600b60008281526020019081526020016000206004015488610e23919061239e565b6000828152600b6020526040902060050154909850610e42908861239e565b9650508080610e5090612312565b915050610daa565b506001600160a01b0389166000908152600d60205260409020549350610e7d89611ba3565b9250610e8889611c36565b60065490925060ff1615610f0d576006546040516323bf64c960e11b81526001600160a01b038b811660048301526101009092049091169063477ec99290602401602060405180830381865afa158015610ee6573d6000803e3d6000fd5b505050506040513d601f19601f82011682018060405250810190610f0a91906123c4565b90505b919395975091939597565b600a54600160a01b900460ff1615610f425760405162461bcd60e51b81526004016107bf906122ba565b600354341015610f8b5760405162461bcd60e51b81526020600482015260146024820152735374616b6520616d6f756e7420746f6f206c6f7760601b60448201526064016107bf565b336000908152600d60205260409020600581015460ff1615610ff8576000610fb233611ba3565b90506000610fbf33611c36565b905081836001016000828254610fd5919061239e565b9250508190555080836002016000828254610ff0919061239e565b909155505050505b3481600001600082825461100c919061239e565b909155505042600382015560058101805460ff1916600117905560048054908201556012805434919060009061104390849061239e565b909155505060405134815233907f9e71bc8eea02a63969f509818f2dafb9254532904319f9dbda79b67bd34a5f3d9060200160405180910390a250565b600a546001600160a01b031633146110aa5760405162461bcd60e51b81526004016107bf9061235d565b600a805460ff60a01b1916905560405133907f5db9ee0a495bf2e6ff9c91a7834c1ba4fdd244a5e8aa4e537bd38aeae4b073aa90600090a2565b6111486040518061018001604052806000815260200160008152602001600081526020016000815260200160008152602001600081526020016000815260200160008152602001600081526020016000815260200160008152602001600081525090565b60008060015b60115481116111af576000818152600c602052604090206006015460ff161561117f578261117b81612312565b9350505b6000818152600c602052604090206007015461119b908361239e565b9150806111a781612312565b91505061114e565b5060405180610180016040528060105481526020016011548152602001838152602001600054815260200160015481526020016002548152602001601254815260200160135481526020016014548152602001600060115411611213576000611220565b60115461122090846123dd565b815260200160085481526020016007548152509250505090565b600b60205260009081526040902080546001820154600283015460038401546004850154600586015460068701546007880154600889015460098a018054999a6001600160a01b038a169a600160a01b909a0460ff9081169a9316929091906112a2906123ff565b80601f01602080910402602001604051908101604052809291908181526020018280546112ce906123ff565b801561131b5780601f106112f05761010080835404028352916020019161131b565b820191906000526020600020905b8154815290600101906020018083116112fe57829003601f168201915b50505050509080600a01549080600b01549080600c015490508e565b600f602052816000526040600020818154811061135357600080fd5b90600052602060002001600091509150505481565b600a54600160a01b900460ff16156113925760405162461bcd60e51b81526004016107bf906122ba565b6000838152600c60205260409020600101546001600160a01b031633146113f35760405162461bcd60e51b81526020600482015260156024820152742737ba103a34329039b2b9b9b4b7b71036b4b732b960591b60448201526064016107bf565b6000838152600c602052604090206006015460ff166114495760405162461bcd60e51b815260206004820152601260248201527153657373696f6e206e6f742061637469766560701b60448201526064016107bf565b6000838152600c6020526040902060060154610100900460ff16156114b05760405162461bcd60e51b815260206004820152601960248201527f53657373696f6e20616c726561647920636f6d706c657465640000000000000060448201526064016107bf565b6000838152600c6020526040812060068101805461ffff1916610100179055426003820181905560028201549192916114e8916123b1565b905060006114fa836004015483611cae565b60108054919250600091908261150f83612312565b9091555050601054604080516101c08101825282815233602082015260018701549091820190600160a01b900460ff16600b8111156115505761155061202e565b81526020018660040154815260200186600501548152602001848152602001838152602001428152602001888152602001600115158152602001878152602001866007015481526020016115b987600401548860010160149054906101000a900460ff16611cfd565b815260098701546020918201526000838152600b80835260409182902084518155928401516001840180546001600160a01b039092166001600160a01b0319831681178255938601519390926001600160a81b03199092161790600160a01b90849081111561162a5761162a61202e565b0217905550606082015160028201556080820151600382015560a0820151600482015560c0820151600582015560e08201516006820155610100820151600782015561012082015160088201805460ff1916911515919091179055610140820151600982019061169a9082612488565b50610160820151600a820155610180820151600b8201556101a090910151600c90910155336000908152600f602090815260408220805460018101825590835290822001829055601380548592906116f390849061239e565b909155505060065460ff16156117125761171233866009015483611d39565b604080518481526020810184905233918a917fe75e2be1a2c3a4b3d1001f57465a2aa1590a066fa2bdb62cf53ccdcf1210ada1910160405180910390a3600185015460048601546009870154604051339385937f077f921c16369f1276708e215c5885a8d3357b8dfe405c93f6f39197f40b55a39361179c93600160a01b90930460ff1692612548565b60405180910390a35050505050505050565b600a54600160a01b900460ff16156117d85760405162461bcd60e51b81526004016107bf906122ba565b60065460ff1661182a5760405162461bcd60e51b815260206004820152601d60248201527f546f6b656e20696e746567726174696f6e2069732064697361626c656400000060448201526064016107bf565b336000908152600d60205260409020600581015460ff1661187b5760405162461bcd60e51b815260206004820152600b60248201526a4e6f74207374616b696e6760a81b60448201526064016107bf565b600061188633611ba3565b8260010154611895919061239e565b905060006118a233611c36565b83600201546118b1919061239e565b905060008211806118c25750600081115b6119045760405162461bcd60e51b81526020600482015260136024820152724e6f207265776172647320746f20636c61696d60681b60448201526064016107bf565b6000600184018190556002840155426003840155811561194d57604051339083156108fc029084906000818181858888f1935050505015801561194b573d6000803e3d6000fd5b505b80156119d0576007805490600061196383612312565b909155505060065460405162ca53e560e11b8152336004820152602481018390526101009091046001600160a01b031690630194a7ca90604401600060405180830381600087803b1580156119b757600080fd5b505af11580156119cb573d6000803e3d6000fd5b505050505b604080518381526020810183905233917fdacbdde355ba930696a362ea6738feb9f8bd52dfb3d81947558fd3217e23e325910160405180910390a2505050565b600a546001600160a01b03163314611a3a5760405162461bcd60e51b81526004016107bf9061235d565b600a805460ff60a01b1916600160a01b17905560405133907f62e78cea01bee320cd4e420270b5ea74000d11b0c9f74754ebdbfc544b05a25890600090a2565b600e602052816000526040600020818154811061135357600080fd5b600a546001600160a01b03163314611ac05760405162461bcd60e51b81526004016107bf9061235d565b6001600160a01b038116611adb576006805460ff1916905550565b6006805460ff196001600160a01b0384166101008102919091166001600160a81b0319909216919091176001179091556040517f481c683fc025a181130081945f61f1b14dbee0f02d769b7abef6cf6a2325e13190600090a250565b6000806103e8611b47848661232b565b611b5191906123dd565b905060006009600087600b811115611b6b57611b6b61202e565b600b811115611b7c57611b7c61202e565b81526020019081526020016000205490508082611b99919061232b565b9695505050505050565b6001600160a01b0381166000908152600d60205260408120600581015460ff161580611bce57508054155b15611bdc5750600092915050565b6000816003015442611bee91906123b1565b90506000606483600401548460000154611c08919061232b565b611c1291906123dd565b90506301e13380611c23838361232b565b611c2d91906123dd565b95945050505050565b60065460009060ff16611c4b57506000919050565b6001600160a01b0382166000908152600d60205260409020600581015460ff161580611c7657508054155b15611c845750600092915050565b6000816003015442611c9691906123b1565b9050600061271083600001546032611c08919061232b565b6000806103e884600154611cc2919061232b565b611ccc91906123dd565b90506000610e108411611ce0576001611ce3565b60025b60ff169050611cf2818361232b565b925050505b92915050565b600080611d0c6103e8856123dd565b9050600083600b811115611d2257611d2261202e565b611d2d90600161239e565b9050611cf2818361232b565b60078054906000611d4983612312565b9091555050600654600754604051630c8ba57160e11b81526004810191909152602481018490526001600160a01b038581166044830152610100909204909116906319174ae290606401600060405180830381600087803b158015611dad57600080fd5b505af1158015611dc1573d6000803e3d6000fd5b505060065460075460405163aa29545360e01b8152600481019190915260248101869052600093506101009091046001600160a01b0316915063aa29545390604401602060405180830381865afa158015611e20573d6000803e3d6000fd5b505050506040513d601f19601f82011682018060405250810190611e4491906123c4565b600654600754604051630456344760e51b81526001600160a01b0388811660048301526024820185905260448201929092529293506101009091041690638ac688e090606401600060405180830381600087803b158015611ea457600080fd5b505af1158015611eb8573d6000803e3d6000fd5b5050506000838152600b6020526040812060050183905560148054849350909190611ee490849061239e565b925050819055508260086000828254611efd919061239e565b90915550506007546040518481526001600160a01b03861691907f8cccd45bfba8849250eb2d315ed1f9071d43d5db1250ddc5f7556aa5ecf98d659060200160405180910390a350505050565b8035600c8110611f5957600080fd5b919050565b60008060408385031215611f7157600080fd5b611f7a83611f4a565b946020939093013593505050565b60008060408385031215611f9b57600080fd5b50508035926020909101359150565b60008060008060808587031215611fc057600080fd5b5050823594602084013594506040840135936060013592509050565b600060208284031215611fee57600080fd5b5035919050565b80356001600160a01b0381168114611f5957600080fd5b60006020828403121561201e57600080fd5b61202782611ff5565b9392505050565b634e487b7160e01b600052602160045260246000fd5b600c811061206257634e487b7160e01b600052602160045260246000fd5b9052565b6000815180845260005b8181101561208c57602081850181015186830182015201612070565b506000602082860101526020601f19601f83011685010191505092915050565b8e81526001600160a01b038e1660208201526120cb604082018e612044565b8b60608201528a60808201528960a08201528860c08201528760e0820152866101008201528515156101208201526101c061014082015260006121126101c0830187612066565b610160830195909552506101808101929092526101a0909101529b9a5050505050505050505050565b6000806040838503121561214e57600080fd5b611f7a83611ff5565b60006020828403121561216957600080fd5b61202782611f4a565b634e487b7160e01b600052604160045260246000fd5b60008060006060848603121561219d57600080fd5b8335925060208401359150604084013567ffffffffffffffff808211156121c357600080fd5b818601915086601f8301126121d757600080fd5b8135818111156121e9576121e9612172565b604051601f8201601f19908116603f0116810190838211818310171561221157612211612172565b8160405282815289602084870101111561222a57600080fd5b8260208601602083013760006020848301015280955050505050509250925092565b8c81526001600160a01b038c1660208201526101808101612270604083018d612044565b606082019a909a52608081019890985260a088019690965260c087019490945291151560e08601521515610100850152610120840152610140830152610160909101529392505050565b60208082526012908201527110dbdb9d1c9858dd081a5cc81c185d5cd95960721b604082015260600190565b634e487b7160e01b600052603260045260246000fd5b634e487b7160e01b600052601160045260246000fd5b600060018201612324576123246122fc565b5060010190565b8082028115828204841417611cf757611cf76122fc565b604081016123508285612044565b8260208301529392505050565b60208082526021908201527f4f6e6c79206f776e65722063616e2063616c6c20746869732066756e6374696f6040820152603760f91b606082015260800190565b80820180821115611cf757611cf76122fc565b81810381811115611cf757611cf76122fc565b6000602082840312156123d657600080fd5b5051919050565b6000826123fa57634e487b7160e01b600052601260045260246000fd5b500490565b600181811c9082168061241357607f821691505b60208210810361243357634e487b7160e01b600052602260045260246000fd5b50919050565b601f82111561248357600081815260208120601f850160051c810160208610156124605750805b601f850160051c820191505b8181101561247f5782815560010161246c565b5050505b505050565b815167ffffffffffffffff8111156124a2576124a2612172565b6124b6816124b084546123ff565b84612439565b602080601f8311600181146124eb57600084156124d35750858301515b600019600386901b1c1916600185901b17855561247f565b600085815260208120601f198616915b8281101561251a578886015182559484019460019091019084016124fb565b50858210156125385787850151600019600388901b60f8161c191681555b5050505050600190811b01905550565b606081016125568286612044565b60208201939093526040015291905056fea26469706673582212209ebad2846d9dfba5559071ce0241a0bcd634ab66c7f5185634bc5a8a02f3df3b64736f6c63430008140033",
  "linkReferences": {},
  "deployedLinkReferences": {}
}